{
  "_format": "hh-sol-artifact-1",
  "contractName": "RouterHpsmHlpCurve",
  "sourceName": "contracts/RouterHpsmHlpCurve.sol",
  "abi": [
    {
      "inputs": [
        {
          "internalType": "address",
          "name": "_hpsm",
          "type": "address"
        },
        {
          "internalType": "address",
          "name": "_routerHpsmHlp",
          "type": "address"
        }
      ],
      "stateMutability": "nonpayable",
      "type": "constructor"
    },
    {
      "anonymous": false,
      "inputs": [
        {
          "indexed": false,
          "internalType": "address",
          "name": "newPsm",
          "type": "address"
        }
      ],
      "name": "ChangeHpsm",
      "type": "event"
    },
    {
      "anonymous": false,
      "inputs": [
        {
          "indexed": false,
          "internalType": "address",
          "name": "routerHpsmHlp",
          "type": "address"
        }
      ],
      "name": "ChangeRouterHpsmHlp",
      "type": "event"
    },
    {
      "anonymous": false,
      "inputs": [
        {
          "indexed": true,
          "internalType": "address",
          "name": "previousOwner",
          "type": "address"
        },
        {
          "indexed": true,
          "internalType": "address",
          "name": "newOwner",
          "type": "address"
        }
      ],
      "name": "OwnershipTransferred",
      "type": "event"
    },
    {
      "inputs": [],
      "name": "hpsm",
      "outputs": [
        {
          "internalType": "address",
          "name": "",
          "type": "address"
        }
      ],
      "stateMutability": "view",
      "type": "function"
    },
    {
      "inputs": [],
      "name": "owner",
      "outputs": [
        {
          "internalType": "address",
          "name": "",
          "type": "address"
        }
      ],
      "stateMutability": "view",
      "type": "function"
    },
    {
      "inputs": [],
      "name": "renounceOwnership",
      "outputs": [],
      "stateMutability": "nonpayable",
      "type": "function"
    },
    {
      "inputs": [],
      "name": "routerHpsmHlp",
      "outputs": [
        {
          "internalType": "address",
          "name": "",
          "type": "address"
        }
      ],
      "stateMutability": "view",
      "type": "function"
    },
    {
      "inputs": [
        {
          "internalType": "address",
          "name": "_hpsm",
          "type": "address"
        }
      ],
      "name": "setHpsm",
      "outputs": [],
      "stateMutability": "nonpayable",
      "type": "function"
    },
    {
      "inputs": [
        {
          "internalType": "address",
          "name": "_routerHpsmHlp",
          "type": "address"
        }
      ],
      "name": "setRouterHpsmHlp",
      "outputs": [],
      "stateMutability": "nonpayable",
      "type": "function"
    },
    {
      "inputs": [
        {
          "internalType": "address",
          "name": "peggedToken",
          "type": "address"
        },
        {
          "internalType": "address",
          "name": "fxToken",
          "type": "address"
        },
        {
          "internalType": "address",
          "name": "hlpToken",
          "type": "address"
        },
        {
          "internalType": "address",
          "name": "tokenOut",
          "type": "address"
        },
        {
          "internalType": "uint256",
          "name": "amountIn",
          "type": "uint256"
        },
        {
          "internalType": "address",
          "name": "receiver",
          "type": "address"
        },
        {
          "internalType": "uint256",
          "name": "minOut",
          "type": "uint256"
        },
        {
          "internalType": "address",
          "name": "metapoolFactory",
          "type": "address"
        },
        {
          "internalType": "address",
          "name": "pool",
          "type": "address"
        },
        {
          "internalType": "bytes",
          "name": "signedQuoteData",
          "type": "bytes"
        }
      ],
      "name": "swapPeggedTokenToCurveToken",
      "outputs": [],
      "stateMutability": "nonpayable",
      "type": "function"
    },
    {
      "inputs": [
        {
          "internalType": "address",
          "name": "newOwner",
          "type": "address"
        }
      ],
      "name": "transferOwnership",
      "outputs": [],
      "stateMutability": "nonpayable",
      "type": "function"
    }
  ],
  "bytecode": "0x60a060405234801561001057600080fd5b5060405161123c38038061123c83398101604081905261002f91610156565b3060601b60805281610040336100ea565b600180546001600160a01b0319166001600160a01b0383169081179091556040519081527fa42db62e6a6fb46d8d03431106cca836fa4c9e4d41105d56dcd444dc85d340279060200160405180910390a150600280546001600160a01b0319166001600160a01b0383169081179091556040519081527f8108e6dae0c82a8b5f80c241b07f9d8ce44b800447c82ac24935189c637129dd9060200160405180910390a15050610189565b600080546001600160a01b038381166001600160a01b0319831681178455604051919092169283917f8be0079c531659141344cd1fd0a4f28419497f9722a3daafe3b4186f6b6457e09190a35050565b80516001600160a01b038116811461015157600080fd5b919050565b6000806040838503121561016957600080fd5b6101728361013a565b91506101806020840161013a565b90509250929050565b60805160601c6110876101b5600039600081816102db015281816105cd015261070701526110876000f3fe608060405234801561001057600080fd5b50600436106100885760003560e01c8063afa9d1861161005b578063afa9d186146100ea578063ba40e98b146100fd578063c7b65d3414610110578063f2fde38b1461012357600080fd5b80633d2ac2181461008d5780636b60bba8146100bc578063715018a6146100d15780638da5cb5b146100d9575b600080fd5b6001546100a0906001600160a01b031681565b6040516001600160a01b03909116815260200160405180910390f35b6100cf6100ca366004610df4565b610136565b005b6100cf6103d5565b6000546001600160a01b03166100a0565b6002546100a0906001600160a01b031681565b6100cf61010b366004610dd9565b6103e9565b6100cf61011e366004610dd9565b61049a565b6100cf610131366004610dd9565b610544565b876001600160a01b03168b6001600160a01b0316141561019d5760405162461bcd60e51b815260206004820152601c60248201527f546f6b656e20696e2063616e6e6f7420626520746f6b656e206f75740000000060448201526064015b60405180910390fd5b600087116101ed5760405162461bcd60e51b815260206004820152601860248201527f416d6f756e7420696e2063616e6e6f74206265207a65726f00000000000000006044820152606401610194565b6101f78b886105bd565b886001600160a01b03168a6001600160a01b031614156102215761021c8b8b896105f6565b61033a565b60025460405163095ea7b360e01b81526001600160a01b03918216600482015260248101899052908c169063095ea7b390604401602060405180830381600087803b15801561026f57600080fd5b505af1158015610283573d6000803e3d6000fd5b505050506040513d601f19601f820116820180604052508101906102a79190610ef1565b5060025460405163f12b70d360e01b81526001600160a01b039091169063f12b70d390610307908e908e908e908d906000907f0000000000000000000000000000000000000000000000000000000000000000908b908b90600401610f84565b600060405180830381600087803b15801561032157600080fd5b505af1158015610335573d6000803e3d6000fd5b505050505b60006103458a6106f0565b90506103548a8a838888610793565b5060006103608a6106f0565b9050868110156103b25760405162461bcd60e51b815260206004820152601760248201527f496e73756666696369656e7420616d6f756e74206f75740000000000000000006044820152606401610194565b6103c66001600160a01b038b1689836109f6565b50505050505050505050505050565b6103dd610a5e565b6103e76000610ab8565b565b6103f1610a5e565b6001546001600160a01b03828116911614156104455760405162461bcd60e51b81526020600482015260136024820152721059191c995cdcc8185b1c9958591e481cd95d606a1b6044820152606401610194565b600180546001600160a01b0319166001600160a01b0383169081179091556040519081527fa42db62e6a6fb46d8d03431106cca836fa4c9e4d41105d56dcd444dc85d34027906020015b60405180910390a150565b6104a2610a5e565b6002546001600160a01b03828116911614156104f65760405162461bcd60e51b81526020600482015260136024820152721059191c995cdcc8185b1c9958591e481cd95d606a1b6044820152606401610194565b600280546001600160a01b0319166001600160a01b0383169081179091556040519081527f8108e6dae0c82a8b5f80c241b07f9d8ce44b800447c82ac24935189c637129dd9060200161048f565b61054c610a5e565b6001600160a01b0381166105b15760405162461bcd60e51b815260206004820152602660248201527f4f776e61626c653a206e6577206f776e657220697320746865207a65726f206160448201526564647265737360d01b6064820152608401610194565b6105ba81610ab8565b50565b6105f26001600160a01b038316337f000000000000000000000000000000000000000000000000000000000000000084610b08565b5050565b60015460405163095ea7b360e01b81526001600160a01b039182166004820152602481018390529084169063095ea7b390604401602060405180830381600087803b15801561064457600080fd5b505af1158015610658573d6000803e3d6000fd5b505050506040513d601f19601f8201168201806040525081019061067c9190610ef1565b50600154604051638340f54960e01b81526001600160a01b03848116600483015285811660248301526044820184905290911690638340f54990606401600060405180830381600087803b1580156106d357600080fd5b505af11580156106e7573d6000803e3d6000fd5b50505050505050565b6040516370a0823160e01b81526001600160a01b037f000000000000000000000000000000000000000000000000000000000000000081166004830152600091908316906370a082319060240160206040518083038186803b15801561075557600080fd5b505afa158015610769573d6000803e3d6000fd5b505050506040513d601f19601f8201168201806040525081019061078d9190610f4f565b92915050565b60405163eb85226d60e01b81526001600160a01b0382811660048301528681166024830152858116604483015260009182918291829187169063eb85226d9060640160606040518083038186803b1580156107ed57600080fd5b505afa158015610801573d6000803e3d6000fd5b505050506040513d601f19601f820116820180604052508101906108259190610f0c565b60405163095ea7b360e01b81526001600160a01b038981166004830152602482018c90529396509194509250908a169063095ea7b390604401602060405180830381600087803b15801561087857600080fd5b505af115801561088c573d6000803e3d6000fd5b505050506040513d601f19601f820116820180604052508101906108b09190610ef1565b50801561095457604051635320bf6b60e11b8152600f84810b600483015283900b602482015260448101889052600060648201526001600160a01b0386169063a6417ed690608401602060405180830381600087803b15801561091257600080fd5b505af1158015610926573d6000803e3d6000fd5b505050506040513d601f19601f8201168201806040525081019061094a9190610f4f565b93505050506109ed565b604051630f7c084960e21b8152600f84810b600483015283900b602482015260448101889052600060648201526001600160a01b03861690633df0212490608401602060405180830381600087803b1580156109af57600080fd5b505af11580156109c3573d6000803e3d6000fd5b505050506040513d601f19601f820116820180604052508101906109e79190610f4f565b93505050505b95945050505050565b6040516001600160a01b038316602482015260448101829052610a5990849063a9059cbb60e01b906064015b60408051601f198184030181529190526020810180516001600160e01b03166001600160e01b031990931692909217909152610b46565b505050565b6000546001600160a01b031633146103e75760405162461bcd60e51b815260206004820181905260248201527f4f776e61626c653a2063616c6c6572206973206e6f7420746865206f776e65726044820152606401610194565b600080546001600160a01b038381166001600160a01b0319831681178455604051919092169283917f8be0079c531659141344cd1fd0a4f28419497f9722a3daafe3b4186f6b6457e09190a35050565b6040516001600160a01b0380851660248301528316604482015260648101829052610b409085906323b872dd60e01b90608401610a22565b50505050565b6000610b9b826040518060400160405280602081526020017f5361666545524332303a206c6f772d6c6576656c2063616c6c206661696c6564815250856001600160a01b0316610c189092919063ffffffff16565b805190915015610a595780806020019051810190610bb99190610ef1565b610a595760405162461bcd60e51b815260206004820152602a60248201527f5361666545524332303a204552433230206f7065726174696f6e20646964206e6044820152691bdd081cdd58d8d9595960b21b6064820152608401610194565b6060610c278484600085610c31565b90505b9392505050565b606082471015610c925760405162461bcd60e51b815260206004820152602660248201527f416464726573733a20696e73756666696369656e742062616c616e636520666f6044820152651c8818d85b1b60d21b6064820152608401610194565b6001600160a01b0385163b610ce95760405162461bcd60e51b815260206004820152601d60248201527f416464726573733a2063616c6c20746f206e6f6e2d636f6e74726163740000006044820152606401610194565b600080866001600160a01b03168587604051610d059190610f68565b60006040518083038185875af1925050503d8060008114610d42576040519150601f19603f3d011682016040523d82523d6000602084013e610d47565b606091505b5091509150610d57828286610d62565b979650505050505050565b60608315610d71575081610c2a565b825115610d815782518084602001fd5b8160405162461bcd60e51b81526004016101949190610ff2565b80356001600160a01b0381168114610db257600080fd5b919050565b80518015158114610db257600080fd5b8051600f81900b8114610db257600080fd5b600060208284031215610deb57600080fd5b610c2a82610d9b565b60008060008060008060008060008060006101408c8e031215610e1657600080fd5b610e1f8c610d9b565b9a50610e2d60208d01610d9b565b9950610e3b60408d01610d9b565b9850610e4960608d01610d9b565b975060808c01359650610e5e60a08d01610d9b565b955060c08c01359450610e7360e08d01610d9b565b9350610e826101008d01610d9b565b92506101208c013567ffffffffffffffff80821115610ea057600080fd5b818e0191508e601f830112610eb457600080fd5b813581811115610ec357600080fd5b8f6020828501011115610ed557600080fd5b6020830194508093505050509295989b509295989b9093969950565b600060208284031215610f0357600080fd5b610c2a82610db7565b600080600060608486031215610f2157600080fd5b610f2a84610dc7565b9250610f3860208501610dc7565b9150610f4660408501610db7565b90509250925092565b600060208284031215610f6157600080fd5b5051919050565b60008251610f7a818460208701611025565b9190910192915050565b6001600160a01b038981168252888116602083015287811660408301526060820187905260808201869052841660a082015260e060c08201819052810182905260006101008385828501376000838501820152601f909301601f191690910190910198975050505050505050565b6020815260008251806020840152611011816040850160208701611025565b601f01601f19169190910160400192915050565b60005b83811015611040578181015183820152602001611028565b83811115610b40575050600091015256fea26469706673582212200d36639dd7ab5e9ecb7893ba2ebc48bc9764f2b66c5f22025a361a0f07eaef0c64736f6c63430008070033",
  "linkReferences": {},
  "deployedLinkReferences": {}
}