{
  "_format": "hh-sol-artifact-1",
  "contractName": "LockMintBridge",
  "sourceName": "contracts/LockMintBridge.sol",
  "abi": [
    {
      "anonymous": false,
      "inputs": [
        {
          "indexed": false,
          "internalType": "address",
          "name": "previousAdmin",
          "type": "address"
        },
        {
          "indexed": false,
          "internalType": "address",
          "name": "newAdmin",
          "type": "address"
        }
      ],
      "name": "AdminChanged",
      "type": "event"
    },
    {
      "anonymous": false,
      "inputs": [
        {
          "indexed": true,
          "internalType": "address",
          "name": "beacon",
          "type": "address"
        }
      ],
      "name": "BeaconUpgraded",
      "type": "event"
    },
    {
      "anonymous": false,
      "inputs": [
        {
          "indexed": true,
          "internalType": "address",
          "name": "depositor",
          "type": "address"
        },
        {
          "indexed": true,
          "internalType": "address",
          "name": "token",
          "type": "address"
        },
        {
          "indexed": false,
          "internalType": "uint256",
          "name": "amount",
          "type": "uint256"
        },
        {
          "indexed": false,
          "internalType": "uint256",
          "name": "nonce",
          "type": "uint256"
        },
        {
          "indexed": false,
          "internalType": "uint256",
          "name": "fromId",
          "type": "uint256"
        },
        {
          "indexed": false,
          "internalType": "uint256",
          "name": "toId",
          "type": "uint256"
        }
      ],
      "name": "Deposit",
      "type": "event"
    },
    {
      "anonymous": false,
      "inputs": [
        {
          "indexed": true,
          "internalType": "bytes32",
          "name": "role",
          "type": "bytes32"
        },
        {
          "indexed": true,
          "internalType": "bytes32",
          "name": "previousAdminRole",
          "type": "bytes32"
        },
        {
          "indexed": true,
          "internalType": "bytes32",
          "name": "newAdminRole",
          "type": "bytes32"
        }
      ],
      "name": "RoleAdminChanged",
      "type": "event"
    },
    {
      "anonymous": false,
      "inputs": [
        {
          "indexed": true,
          "internalType": "bytes32",
          "name": "role",
          "type": "bytes32"
        },
        {
          "indexed": true,
          "internalType": "address",
          "name": "account",
          "type": "address"
        },
        {
          "indexed": true,
          "internalType": "address",
          "name": "sender",
          "type": "address"
        }
      ],
      "name": "RoleGranted",
      "type": "event"
    },
    {
      "anonymous": false,
      "inputs": [
        {
          "indexed": true,
          "internalType": "bytes32",
          "name": "role",
          "type": "bytes32"
        },
        {
          "indexed": true,
          "internalType": "address",
          "name": "account",
          "type": "address"
        },
        {
          "indexed": true,
          "internalType": "address",
          "name": "sender",
          "type": "address"
        }
      ],
      "name": "RoleRevoked",
      "type": "event"
    },
    {
      "anonymous": false,
      "inputs": [
        {
          "indexed": true,
          "internalType": "address",
          "name": "token",
          "type": "address"
        },
        {
          "indexed": false,
          "internalType": "bool",
          "name": "enabled",
          "type": "bool"
        }
      ],
      "name": "SetTokenEnabled",
      "type": "event"
    },
    {
      "anonymous": false,
      "inputs": [
        {
          "indexed": true,
          "internalType": "address",
          "name": "token",
          "type": "address"
        },
        {
          "indexed": false,
          "internalType": "uint256",
          "name": "fee",
          "type": "uint256"
        }
      ],
      "name": "SetTokenFee",
      "type": "event"
    },
    {
      "anonymous": false,
      "inputs": [
        {
          "indexed": true,
          "internalType": "address",
          "name": "recipient",
          "type": "address"
        },
        {
          "indexed": false,
          "internalType": "uint256",
          "name": "fee",
          "type": "uint256"
        }
      ],
      "name": "TransferFee",
      "type": "event"
    },
    {
      "anonymous": false,
      "inputs": [
        {
          "indexed": true,
          "internalType": "address",
          "name": "implementation",
          "type": "address"
        }
      ],
      "name": "Upgraded",
      "type": "event"
    },
    {
      "anonymous": false,
      "inputs": [
        {
          "indexed": true,
          "internalType": "address",
          "name": "depositor",
          "type": "address"
        },
        {
          "indexed": true,
          "internalType": "address",
          "name": "token",
          "type": "address"
        },
        {
          "indexed": false,
          "internalType": "uint256",
          "name": "amount",
          "type": "uint256"
        },
        {
          "indexed": false,
          "internalType": "uint256",
          "name": "nonce",
          "type": "uint256"
        },
        {
          "indexed": false,
          "internalType": "uint256",
          "name": "fromId",
          "type": "uint256"
        },
        {
          "indexed": false,
          "internalType": "uint256",
          "name": "toId",
          "type": "uint256"
        }
      ],
      "name": "Withdraw",
      "type": "event"
    },
    {
      "inputs": [],
      "name": "ADMIN_ROLE",
      "outputs": [
        {
          "internalType": "bytes32",
          "name": "",
          "type": "bytes32"
        }
      ],
      "stateMutability": "view",
      "type": "function"
    },
    {
      "inputs": [],
      "name": "DEFAULT_ADMIN_ROLE",
      "outputs": [
        {
          "internalType": "bytes32",
          "name": "",
          "type": "bytes32"
        }
      ],
      "stateMutability": "view",
      "type": "function"
    },
    {
      "inputs": [],
      "name": "OPERATOR_ROLE",
      "outputs": [
        {
          "internalType": "bytes32",
          "name": "",
          "type": "bytes32"
        }
      ],
      "stateMutability": "view",
      "type": "function"
    },
    {
      "inputs": [
        {
          "internalType": "address",
          "name": "token",
          "type": "address"
        },
        {
          "internalType": "uint256",
          "name": "amount",
          "type": "uint256"
        },
        {
          "internalType": "uint256",
          "name": "toId",
          "type": "uint256"
        }
      ],
      "name": "deposit",
      "outputs": [],
      "stateMutability": "nonpayable",
      "type": "function"
    },
    {
      "inputs": [
        {
          "internalType": "address",
          "name": "",
          "type": "address"
        }
      ],
      "name": "depositNonce",
      "outputs": [
        {
          "internalType": "uint256",
          "name": "",
          "type": "uint256"
        }
      ],
      "stateMutability": "view",
      "type": "function"
    },
    {
      "inputs": [
        {
          "internalType": "bytes32",
          "name": "message",
          "type": "bytes32"
        }
      ],
      "name": "getERC191Message",
      "outputs": [
        {
          "internalType": "bytes32",
          "name": "",
          "type": "bytes32"
        }
      ],
      "stateMutability": "pure",
      "type": "function"
    },
    {
      "inputs": [
        {
          "internalType": "bytes32",
          "name": "role",
          "type": "bytes32"
        }
      ],
      "name": "getRoleAdmin",
      "outputs": [
        {
          "internalType": "bytes32",
          "name": "",
          "type": "bytes32"
        }
      ],
      "stateMutability": "view",
      "type": "function"
    },
    {
      "inputs": [
        {
          "internalType": "address",
          "name": "recipient",
          "type": "address"
        },
        {
          "internalType": "address",
          "name": "token",
          "type": "address"
        },
        {
          "internalType": "uint256",
          "name": "amount",
          "type": "uint256"
        },
        {
          "internalType": "uint256",
          "name": "nonce",
          "type": "uint256"
        },
        {
          "internalType": "uint256",
          "name": "fromId",
          "type": "uint256"
        },
        {
          "internalType": "uint256",
          "name": "toId",
          "type": "uint256"
        }
      ],
      "name": "getWithdrawMessage",
      "outputs": [
        {
          "internalType": "bytes32",
          "name": "",
          "type": "bytes32"
        }
      ],
      "stateMutability": "pure",
      "type": "function"
    },
    {
      "inputs": [
        {
          "internalType": "bytes32",
          "name": "role",
          "type": "bytes32"
        },
        {
          "internalType": "address",
          "name": "account",
          "type": "address"
        }
      ],
      "name": "grantRole",
      "outputs": [],
      "stateMutability": "nonpayable",
      "type": "function"
    },
    {
      "inputs": [
        {
          "internalType": "bytes32",
          "name": "role",
          "type": "bytes32"
        },
        {
          "internalType": "address",
          "name": "account",
          "type": "address"
        }
      ],
      "name": "hasRole",
      "outputs": [
        {
          "internalType": "bool",
          "name": "",
          "type": "bool"
        }
      ],
      "stateMutability": "view",
      "type": "function"
    },
    {
      "inputs": [],
      "name": "id",
      "outputs": [
        {
          "internalType": "uint256",
          "name": "",
          "type": "uint256"
        }
      ],
      "stateMutability": "view",
      "type": "function"
    },
    {
      "inputs": [
        {
          "internalType": "uint256",
          "name": "_id",
          "type": "uint256"
        },
        {
          "internalType": "address",
          "name": "_signer",
          "type": "address"
        }
      ],
      "name": "initialize",
      "outputs": [],
      "stateMutability": "nonpayable",
      "type": "function"
    },
    {
      "inputs": [
        {
          "internalType": "bytes32",
          "name": "role",
          "type": "bytes32"
        },
        {
          "internalType": "address",
          "name": "account",
          "type": "address"
        }
      ],
      "name": "renounceRole",
      "outputs": [],
      "stateMutability": "nonpayable",
      "type": "function"
    },
    {
      "inputs": [
        {
          "internalType": "bytes32",
          "name": "role",
          "type": "bytes32"
        },
        {
          "internalType": "address",
          "name": "account",
          "type": "address"
        }
      ],
      "name": "revokeRole",
      "outputs": [],
      "stateMutability": "nonpayable",
      "type": "function"
    },
    {
      "inputs": [
        {
          "internalType": "address",
          "name": "_signer",
          "type": "address"
        }
      ],
      "name": "setSigner",
      "outputs": [],
      "stateMutability": "nonpayable",
      "type": "function"
    },
    {
      "inputs": [
        {
          "internalType": "address",
          "name": "token",
          "type": "address"
        },
        {
          "internalType": "bool",
          "name": "enabled",
          "type": "bool"
        }
      ],
      "name": "setTokenEnabled",
      "outputs": [],
      "stateMutability": "nonpayable",
      "type": "function"
    },
    {
      "inputs": [
        {
          "internalType": "address",
          "name": "token",
          "type": "address"
        },
        {
          "internalType": "uint256",
          "name": "fee",
          "type": "uint256"
        }
      ],
      "name": "setTokenFee",
      "outputs": [],
      "stateMutability": "nonpayable",
      "type": "function"
    },
    {
      "inputs": [],
      "name": "signer",
      "outputs": [
        {
          "internalType": "address",
          "name": "",
          "type": "address"
        }
      ],
      "stateMutability": "view",
      "type": "function"
    },
    {
      "inputs": [
        {
          "internalType": "bytes4",
          "name": "interfaceId",
          "type": "bytes4"
        }
      ],
      "name": "supportsInterface",
      "outputs": [
        {
          "internalType": "bool",
          "name": "",
          "type": "bool"
        }
      ],
      "stateMutability": "view",
      "type": "function"
    },
    {
      "inputs": [
        {
          "internalType": "address",
          "name": "",
          "type": "address"
        }
      ],
      "name": "tokensEnabled",
      "outputs": [
        {
          "internalType": "bool",
          "name": "",
          "type": "bool"
        }
      ],
      "stateMutability": "view",
      "type": "function"
    },
    {
      "inputs": [
        {
          "internalType": "address",
          "name": "newImplementation",
          "type": "address"
        }
      ],
      "name": "upgradeTo",
      "outputs": [],
      "stateMutability": "nonpayable",
      "type": "function"
    },
    {
      "inputs": [
        {
          "internalType": "address",
          "name": "newImplementation",
          "type": "address"
        },
        {
          "internalType": "bytes",
          "name": "data",
          "type": "bytes"
        }
      ],
      "name": "upgradeToAndCall",
      "outputs": [],
      "stateMutability": "payable",
      "type": "function"
    },
    {
      "inputs": [
        {
          "internalType": "address",
          "name": "recipient",
          "type": "address"
        },
        {
          "internalType": "address",
          "name": "token",
          "type": "address"
        },
        {
          "internalType": "uint256",
          "name": "amount",
          "type": "uint256"
        },
        {
          "internalType": "uint256",
          "name": "nonce",
          "type": "uint256"
        },
        {
          "internalType": "uint256",
          "name": "fromId",
          "type": "uint256"
        },
        {
          "internalType": "bytes",
          "name": "signature",
          "type": "bytes"
        }
      ],
      "name": "withdraw",
      "outputs": [],
      "stateMutability": "nonpayable",
      "type": "function"
    },
    {
      "inputs": [
        {
          "internalType": "address",
          "name": "",
          "type": "address"
        },
        {
          "internalType": "uint256",
          "name": "",
          "type": "uint256"
        }
      ],
      "name": "withdrawNonce",
      "outputs": [
        {
          "internalType": "uint256",
          "name": "",
          "type": "uint256"
        }
      ],
      "stateMutability": "view",
      "type": "function"
    }
  ],
  "bytecode": "0x608060405234801561001057600080fd5b50612171806100206000396000f3fe60806040526004361061014b5760003560e01c806375b238fc116100b6578063b25c53921161006f578063b25c5392146103da578063ced81edc14610412578063d547741f14610432578063da35a26f14610452578063f5b541a614610472578063feaef9bd146104a65761014b565b806375b238fc1461032057806387e306f51461034257806391d148541461036f578063a217fddf1461038f578063af640d0f146103a4578063b1014cbb146103ba5761014b565b80632f2ff15d116101085780632f2ff15d1461026d57806336568abe1461028d5780633659cfe6146102ad5780634f1ef286146102cd5780636c19e783146102e05780637143cc9a146103005761014b565b806301ffc9a7146101505780630efe6a8b1461018557806313ea0593146101a7578063171cb376146101d5578063238ac93314610205578063248a9ca31461023d575b600080fd5b34801561015c57600080fd5b5061017061016b366004611e5f565b6104c6565b60405190151581526020015b60405180910390f35b34801561019157600080fd5b506101a56101a0366004611dce565b6104ff565b005b3480156101b357600080fd5b506101c76101c2366004611e1c565b610819565b60405190815260200161017c565b3480156101e157600080fd5b506101706101f0366004611c3d565b60fd6020526000908152604090205460ff1681565b34801561021157600080fd5b5060fc54610225906001600160a01b031681565b6040516001600160a01b03909116815260200161017c565b34801561024957600080fd5b506101c7610258366004611e1c565b600090815260c9602052604090206001015490565b34801561027957600080fd5b506101a5610288366004611e34565b61088c565b34801561029957600080fd5b506101a56102a8366004611e34565b6108b8565b3480156102b957600080fd5b506101a56102c8366004611c3d565b610936565b6101a56102db366004611d59565b61095d565b3480156102ec57600080fd5b506101a56102fb366004611c3d565b610972565b34801561030c57600080fd5b506101c761031b366004611ccf565b6109c8565b34801561032c57600080fd5b506101c760008051602061211c83398151915281565b34801561034e57600080fd5b506101c761035d366004611c3d565b60fe6020526000908152604090205481565b34801561037b57600080fd5b5061017061038a366004611e34565b610a32565b34801561039b57600080fd5b506101c7600081565b3480156103b057600080fd5b506101c760fb5481565b3480156103c657600080fd5b506101a56103d5366004611da5565b610a5d565b3480156103e657600080fd5b506101c76103f5366004611da5565b60ff60209081526000928352604080842090915290825290205481565b34801561041e57600080fd5b506101a561042d366004611c57565b610aeb565b34801561043e57600080fd5b506101a561044d366004611e34565b610dbc565b34801561045e57600080fd5b506101a561046d366004611e34565b610de2565b34801561047e57600080fd5b506101c77f97667070c54ef182b0f5858b034beac1b6f3089aa2d3188bb1e8929f4fa9b92981565b3480156104b257600080fd5b506101a56104c1366004611d23565b610ee7565b60006001600160e01b03198216637965db0b60e01b14806104f757506301ffc9a760e01b6001600160e01b03198316145b90505b919050565b60fc546001600160a01b03166105515760405162461bcd60e51b8152602060048201526012602482015271109c9a5919d9481a5cc8191a5cd8589b195960721b60448201526064015b60405180910390fd5b828282600082116040518060400160405280600e81526020016d125b9d985b1a5908185b5bdd5b9d60921b8152509061059d5760405162461bcd60e51b81526004016105489190611f71565b506001600160a01b038316600090815260fd60209081526040918290205482518084019093526013835272151bdad95b881b9bdd081cdd5c1c1bdc9d1959606a1b9183019190915260ff166106055760405162461bcd60e51b81526004016105489190611f71565b5060fb5481141560405180604001604052806011815260200170125b9d985b1a5908189c9a5919d9481251607a1b815250906106545760405162461bcd60e51b81526004016105489190611f71565b506040516370a0823160e01b815233600482015282906001600160a01b038516906370a082319060240160206040518083038186803b15801561069657600080fd5b505afa1580156106aa573d6000803e3d6000fd5b505050506040513d601f19601f820116820180604052508101906106ce9190611e87565b10156107135760405162461bcd60e51b8152602060048201526014602482015273496e73756666696369656e742062616c616e636560601b6044820152606401610548565b6040516323b872dd60e01b8152336004820152306024820152604481018690526001600160a01b038716906323b872dd90606401602060405180830381600087803b15801561076157600080fd5b505af1158015610775573d6000803e3d6000fd5b505050506040513d601f19601f820116820180604052508101906107999190611e00565b5033600081815260fe6020526040812080546001600160a01b03871693927f5f971bd00bf3ffbca8a6d72cdd4fd92cfd4f62636161921d1e5a64f0b64ccb6d928792916107e58361209f565b9091555060fb54604080519384526020840192909252908201526060810185905260800160405180910390a3505050505050565b6000601960f81b604560f81b6040518060400160405280601a81526020017f7468657265756d205369676e6564204d6573736167653a0a33320000000000008152508460405160200161086f9493929190611e9f565b604051602081830303815290604052805190602001209050919050565b600082815260c960205260409020600101546108a981335b610f73565b6108b38383610fd7565b505050565b6001600160a01b03811633146109285760405162461bcd60e51b815260206004820152602f60248201527f416363657373436f6e74726f6c3a2063616e206f6e6c792072656e6f756e636560448201526e103937b632b9903337b91039b2b63360891b6064820152608401610548565b610932828261105d565b5050565b61093f816110c4565b61095a816040518060200160405280600081525060006110f8565b50565b610966826110c4565b610932828260016110f8565b61098a60008051602061211c83398151915233610a32565b6109a65760405162461bcd60e51b815260040161054890611ff2565b60fc80546001600160a01b0319166001600160a01b0392909216919091179055565b6040516bffffffffffffffffffffffff19606088811b8216602084015287901b16603482015260488101859052606881018490526088810183905260a8810182905260009060c8016040516020818303038152906040528051906020012090509695505050505050565b600091825260c9602090815260408084206001600160a01b0393909316845291905290205460ff1690565b610a7560008051602061211c83398151915233610a32565b610a915760405162461bcd60e51b815260040161054890611ff2565b6001600160a01b0382166000818152610100602052604090819020839055517f02aa4fb71886955455430795c6c7de28312d99a46f1723c61b82b6d9e77c568b90610adf9084815260200190565b60405180910390a25050565b60fc546001600160a01b0316610b385760405162461bcd60e51b8152602060048201526012602482015271109c9a5919d9481a5cc8191a5cd8589b195960721b6044820152606401610548565b858585858585600084116040518060400160405280600e81526020016d125b9d985b1a5908185b5bdd5b9d60921b81525090610b875760405162461bcd60e51b81526004016105489190611f71565b506001600160a01b038516600090815260fd60209081526040918290205482518084019093526013835272151bdad95b881b9bdd081cdd5c1c1bdc9d1959606a1b9183019190915260ff16610bef5760405162461bcd60e51b81526004016105489190611f71565b5060fb5482141560405180604001604052806011815260200170125b9d985b1a5908189c9a5919d9481251607a1b81525090610c3e5760405162461bcd60e51b81526004016105489190611f71565b506001600160a01b038616600090815260ff602090815260408083208584529091528120805491610c6e8361209f565b919050558314610cb05760405162461bcd60e51b815260206004820152600d60248201526c496e76616c6964206e6f6e636560981b6044820152606401610548565b6000610cc56101c2888888888860fb546109c8565b60fc549091506000906001600160a01b0316610ce18385611280565b6001600160a01b031614905080610d2e5760405162461bcd60e51b8152602060048201526011602482015270496e76616c6964207369676e617475726560781b6044820152606401610548565b610d388d8d611316565b610d438e8e8e61141c565b866001600160a01b0316886001600160a01b03167f7ff9a08662c21e17b8071f3aef03a9712ea9d3824dfb0139bba272915d59a91988888860fb54604051610da4949392919093845260208401929092526040830152606082015260800190565b60405180910390a35050505050505050505050505050565b600082815260c96020526040902060010154610dd881336108a4565b6108b3838361105d565b600054610100900460ff1680610dfb575060005460ff16155b610e175760405162461bcd60e51b815260040161054890611fa4565b600054610100900460ff16158015610e39576000805461ffff19166101011790555b610e41611580565b610e49611603565b610e6160008051602061211c83398151915233611661565b610e7960008051602061211c8339815191528061166b565b610eb17f97667070c54ef182b0f5858b034beac1b6f3089aa2d3188bb1e8929f4fa9b92960008051602061211c83398151915261166b565b60fb83905560fc80546001600160a01b0319166001600160a01b03841617905580156108b3576000805461ff0019169055505050565b610eff60008051602061211c83398151915233610a32565b610f1b5760405162461bcd60e51b815260040161054890611ff2565b6001600160a01b038216600081815260fd6020908152604091829020805460ff191685151590811790915591519182527faad71e6ad6bf35ad6b82ace76750518f2e629e64699d08fda2072e0fc8c48dc59101610adf565b610f7d8282610a32565b61093257610f95816001600160a01b031660146116b6565b610fa08360206116b6565b604051602001610fb1929190611efc565b60408051601f198184030181529082905262461bcd60e51b825261054891600401611f71565b610fe18282610a32565b61093257600082815260c9602090815260408083206001600160a01b03851684529091529020805460ff191660011790556110193390565b6001600160a01b0316816001600160a01b0316837f2f8788117e7eff1d82e926ec794901d17c78024a50270940304540a733656f0d60405160405180910390a45050565b6110678282610a32565b1561093257600082815260c9602090815260408083206001600160a01b0385168085529252808320805460ff1916905551339285917ff6391f5c32d9c69d2a47ea670b442974b53935d1edc7fd64eb21e047a839171b9190a45050565b6110dc60008051602061211c83398151915233610a32565b61095a5760405162461bcd60e51b815260040161054890611ff2565b600061112b7f360894a13ba1a3210667c828492db98dca3e2076cc3735a920a3ca505d382bbc546001600160a01b031690565b90506111368461189f565b6000835111806111435750815b15611154576111528484611944565b505b7f4910fdfa16fed3260ed0e7147f7cc6da11a60208b5b9406d12a635614ffd9143805460ff1661127957805460ff191660011781556040516001600160a01b03831660248201526111d390869060440160408051601f198184030181529190526020810180516001600160e01b0316631b2ce7f360e11b179052611944565b50805460ff191681557f360894a13ba1a3210667c828492db98dca3e2076cc3735a920a3ca505d382bbc546001600160a01b038381169116146112705760405162461bcd60e51b815260206004820152602f60248201527f45524331393637557067726164653a207570677261646520627265616b73206660448201526e75727468657220757067726164657360881b6064820152608401610548565b61127985611a2f565b5050505050565b600081516041146112a157634e487b7160e01b600052600160045260246000fd5b602082810151604080850151606080870151835160008082529681018086528a9052951a928501839052840183905260808401819052909260019060a0016020604051602081039080840390855afa158015611301573d6000803e3d6000fd5b5050604051601f190151979650505050505050565b6040516370a0823160e01b81523060048201819052906000906001600160a01b038516906370a082319060240160206040518083038186803b15801561135b57600080fd5b505afa15801561136f573d6000803e3d6000fd5b505050506040513d601f19601f820116820180604052508101906113939190611e87565b905082811015611416576001600160a01b0384166340c10f19836113b78487612045565b6040516001600160e01b031960e085901b1681526001600160a01b0390921660048301526024820152604401600060405180830381600087803b1580156113fd57600080fd5b505af1158015611411573d6000803e3d6000fd5b505050505b50505050565b6000611429848484611a6f565b905060006114378284612045565b905080156114f65760405163a9059cbb60e01b8152336004820152602481018290526001600160a01b0385169063a9059cbb90604401602060405180830381600087803b15801561148757600080fd5b505af115801561149b573d6000803e3d6000fd5b505050506040513d601f19601f820116820180604052508101906114bf9190611e00565b5060405181815233907f88b171bb78d3ac5e1caa8e729dddce4e1322e84c80c093ebbe52507b62c77d989060200160405180910390a25b60405163a9059cbb60e01b81526001600160a01b0386811660048301526024820184905285169063a9059cbb90604401602060405180830381600087803b15801561154057600080fd5b505af1158015611554573d6000803e3d6000fd5b505050506040513d601f19601f820116820180604052508101906115789190611e00565b505050505050565b600054610100900460ff1680611599575060005460ff16155b6115b55760405162461bcd60e51b815260040161054890611fa4565b600054610100900460ff161580156115d7576000805461ffff19166101011790555b6115df611afc565b6115e7611afc565b6115ef611afc565b801561095a576000805461ff001916905550565b600054610100900460ff168061161c575060005460ff16155b6116385760405162461bcd60e51b815260040161054890611fa4565b600054610100900460ff161580156115df576000805461ffff19166101011790556115e7611afc565b6109328282610fd7565b600082815260c96020526040808220600101805490849055905190918391839186917fbd79b86ffe0ab8e8776151514217cd7cacd52c909f66475c3af44e129f0b00ff9190a4505050565b606060006116c5836002612026565b6116d090600261200e565b67ffffffffffffffff8111156116f657634e487b7160e01b600052604160045260246000fd5b6040519080825280601f01601f191660200182016040528015611720576020820181803683370190505b509050600360fc1b8160008151811061174957634e487b7160e01b600052603260045260246000fd5b60200101906001600160f81b031916908160001a905350600f60fb1b8160018151811061178657634e487b7160e01b600052603260045260246000fd5b60200101906001600160f81b031916908160001a90535060006117aa846002612026565b6117b590600161200e565b90505b6001811115611849576f181899199a1a9b1b9c1cb0b131b232b360811b85600f16601081106117f757634e487b7160e01b600052603260045260246000fd5b1a60f81b82828151811061181b57634e487b7160e01b600052603260045260246000fd5b60200101906001600160f81b031916908160001a90535060049490941c9361184281612088565b90506117b8565b5083156118985760405162461bcd60e51b815260206004820181905260248201527f537472696e67733a20686578206c656e67746820696e73756666696369656e746044820152606401610548565b9392505050565b803b6119035760405162461bcd60e51b815260206004820152602d60248201527f455243313936373a206e657720696d706c656d656e746174696f6e206973206e60448201526c1bdd08184818dbdb9d1c9858dd609a1b6064820152608401610548565b7f360894a13ba1a3210667c828492db98dca3e2076cc3735a920a3ca505d382bbc80546001600160a01b0319166001600160a01b0392909216919091179055565b6060823b6119a35760405162461bcd60e51b815260206004820152602660248201527f416464726573733a2064656c65676174652063616c6c20746f206e6f6e2d636f6044820152651b9d1c9858dd60d21b6064820152608401610548565b600080846001600160a01b0316846040516119be9190611ee0565b600060405180830381855af49150503d80600081146119f9576040519150601f19603f3d011682016040523d82523d6000602084013e6119fe565b606091505b5091509150611a2682826040518060600160405280602781526020016120f560279139611b66565b95945050505050565b611a388161189f565b6040516001600160a01b038216907fbc7cd75a20ee27fd9adebab32041f755214dbc6bffa90cc0225b39da2e5c2d3b90600090a250565b60006001600160a01b038416331415611a89575080611898565b6001600160a01b03831660009081526101006020526040902054808311611af25760405162461bcd60e51b815260206004820152601860248201527f416d6f756e7420746f6f20736d616c6c20666f722066656500000000000000006044820152606401610548565b611a268184612045565b600054610100900460ff1680611b15575060005460ff16155b611b315760405162461bcd60e51b815260040161054890611fa4565b600054610100900460ff161580156115ef576000805461ffff1916610101179055801561095a576000805461ff001916905550565b60608315611b75575081611898565b825115611b855782518084602001fd5b8160405162461bcd60e51b81526004016105489190611f71565b80356001600160a01b03811681146104fa57600080fd5b600082601f830112611bc6578081fd5b813567ffffffffffffffff80821115611be157611be16120d0565b604051601f8301601f19908116603f01168101908282118183101715611c0957611c096120d0565b81604052838152866020858801011115611c21578485fd5b8360208701602083013792830160200193909352509392505050565b600060208284031215611c4e578081fd5b61189882611b9f565b60008060008060008060c08789031215611c6f578182fd5b611c7887611b9f565b9550611c8660208801611b9f565b945060408701359350606087013592506080870135915060a087013567ffffffffffffffff811115611cb6578182fd5b611cc289828a01611bb6565b9150509295509295509295565b60008060008060008060c08789031215611ce7578182fd5b611cf087611b9f565b9550611cfe60208801611b9f565b95989597505050506040840135936060810135936080820135935060a0909101359150565b60008060408385031215611d35578182fd5b611d3e83611b9f565b91506020830135611d4e816120e6565b809150509250929050565b60008060408385031215611d6b578182fd5b611d7483611b9f565b9150602083013567ffffffffffffffff811115611d8f578182fd5b611d9b85828601611bb6565b9150509250929050565b60008060408385031215611db7578182fd5b611dc083611b9f565b946020939093013593505050565b600080600060608486031215611de2578283fd5b611deb84611b9f565b95602085013595506040909401359392505050565b600060208284031215611e11578081fd5b8151611898816120e6565b600060208284031215611e2d578081fd5b5035919050565b60008060408385031215611e46578182fd5b82359150611e5660208401611b9f565b90509250929050565b600060208284031215611e70578081fd5b81356001600160e01b031981168114611898578182fd5b600060208284031215611e98578081fd5b5051919050565b6001600160f81b03198581168252841660018201528251600090611eca81600285016020880161205c565b6002920191820192909252602201949350505050565b60008251611ef281846020870161205c565b9190910192915050565b60007f416363657373436f6e74726f6c3a206163636f756e742000000000000000000082528351611f3481601785016020880161205c565b7001034b99036b4b9b9b4b733903937b6329607d1b6017918401918201528351611f6581602884016020880161205c565b01602801949350505050565b6000602082528251806020840152611f9081604085016020870161205c565b601f01601f19169190910160400192915050565b6020808252602e908201527f496e697469616c697a61626c653a20636f6e747261637420697320616c72656160408201526d191e481a5b9a5d1a585b1a5e995960921b606082015260800190565b6020808252600290820152614e4160f01b604082015260600190565b60008219821115612021576120216120ba565b500190565b6000816000190483118215151615612040576120406120ba565b500290565b600082821015612057576120576120ba565b500390565b60005b8381101561207757818101518382015260200161205f565b838111156114165750506000910152565b600081612097576120976120ba565b506000190190565b60006000198214156120b3576120b36120ba565b5060010190565b634e487b7160e01b600052601160045260246000fd5b634e487b7160e01b600052604160045260246000fd5b801515811461095a57600080fdfe416464726573733a206c6f772d6c6576656c2064656c65676174652063616c6c206661696c6564a49807205ce4d355092ef5a8a18f56e8913cf4a201fbe287825b095693c21775a26469706673582212205d5e9184eaee82e8240e53f655ab33e95eb6a419a65b26d8ac48908590718f8764736f6c63430008030033",
  "linkReferences": {},
  "deployedLinkReferences": {}
}