{
  "_format": "hh-sol-artifact-1",
  "contractName": "HlpManager",
  "sourceName": "contracts/core/HlpManager.sol",
  "abi": [
    {
      "anonymous": false,
      "inputs": [
        {
          "indexed": false,
          "internalType": "address",
          "name": "account",
          "type": "address"
        },
        {
          "indexed": false,
          "internalType": "address",
          "name": "token",
          "type": "address"
        },
        {
          "indexed": false,
          "internalType": "uint256",
          "name": "amount",
          "type": "uint256"
        },
        {
          "indexed": false,
          "internalType": "uint256",
          "name": "aumInUsdg",
          "type": "uint256"
        },
        {
          "indexed": false,
          "internalType": "uint256",
          "name": "glpSupply",
          "type": "uint256"
        },
        {
          "indexed": false,
          "internalType": "uint256",
          "name": "usdgAmount",
          "type": "uint256"
        },
        {
          "indexed": false,
          "internalType": "uint256",
          "name": "mintAmount",
          "type": "uint256"
        }
      ],
      "name": "AddLiquidity",
      "type": "event"
    },
    {
      "anonymous": false,
      "inputs": [
        {
          "indexed": false,
          "internalType": "address",
          "name": "account",
          "type": "address"
        },
        {
          "indexed": false,
          "internalType": "address",
          "name": "token",
          "type": "address"
        },
        {
          "indexed": false,
          "internalType": "uint256",
          "name": "glpAmount",
          "type": "uint256"
        },
        {
          "indexed": false,
          "internalType": "uint256",
          "name": "aumInUsdg",
          "type": "uint256"
        },
        {
          "indexed": false,
          "internalType": "uint256",
          "name": "glpSupply",
          "type": "uint256"
        },
        {
          "indexed": false,
          "internalType": "uint256",
          "name": "usdgAmount",
          "type": "uint256"
        },
        {
          "indexed": false,
          "internalType": "uint256",
          "name": "amountOut",
          "type": "uint256"
        }
      ],
      "name": "RemoveLiquidity",
      "type": "event"
    },
    {
      "inputs": [],
      "name": "MAX_COOLDOWN_DURATION",
      "outputs": [
        {
          "internalType": "uint256",
          "name": "",
          "type": "uint256"
        }
      ],
      "stateMutability": "view",
      "type": "function"
    },
    {
      "inputs": [],
      "name": "PRICE_PRECISION",
      "outputs": [
        {
          "internalType": "uint256",
          "name": "",
          "type": "uint256"
        }
      ],
      "stateMutability": "view",
      "type": "function"
    },
    {
      "inputs": [],
      "name": "USDG_DECIMALS",
      "outputs": [
        {
          "internalType": "uint256",
          "name": "",
          "type": "uint256"
        }
      ],
      "stateMutability": "view",
      "type": "function"
    },
    {
      "inputs": [
        {
          "internalType": "address",
          "name": "_token",
          "type": "address"
        },
        {
          "internalType": "uint256",
          "name": "_amount",
          "type": "uint256"
        },
        {
          "internalType": "uint256",
          "name": "_minUsdg",
          "type": "uint256"
        },
        {
          "internalType": "uint256",
          "name": "_minGlp",
          "type": "uint256"
        },
        {
          "internalType": "bytes",
          "name": "signedQuoteData",
          "type": "bytes"
        }
      ],
      "name": "addLiquidity",
      "outputs": [
        {
          "internalType": "uint256",
          "name": "",
          "type": "uint256"
        }
      ],
      "stateMutability": "nonpayable",
      "type": "function"
    },
    {
      "inputs": [
        {
          "internalType": "address",
          "name": "_fundingAccount",
          "type": "address"
        },
        {
          "internalType": "address",
          "name": "_account",
          "type": "address"
        },
        {
          "internalType": "address",
          "name": "_token",
          "type": "address"
        },
        {
          "internalType": "uint256",
          "name": "_amount",
          "type": "uint256"
        },
        {
          "internalType": "uint256",
          "name": "_minUsdg",
          "type": "uint256"
        },
        {
          "internalType": "uint256",
          "name": "_minGlp",
          "type": "uint256"
        },
        {
          "internalType": "bytes",
          "name": "signedQuoteData",
          "type": "bytes"
        }
      ],
      "name": "addLiquidityForAccount",
      "outputs": [
        {
          "internalType": "uint256",
          "name": "",
          "type": "uint256"
        }
      ],
      "stateMutability": "nonpayable",
      "type": "function"
    },
    {
      "inputs": [],
      "name": "aumAddition",
      "outputs": [
        {
          "internalType": "uint256",
          "name": "",
          "type": "uint256"
        }
      ],
      "stateMutability": "view",
      "type": "function"
    },
    {
      "inputs": [],
      "name": "aumDeduction",
      "outputs": [
        {
          "internalType": "uint256",
          "name": "",
          "type": "uint256"
        }
      ],
      "stateMutability": "view",
      "type": "function"
    },
    {
      "inputs": [],
      "name": "cooldownDuration",
      "outputs": [
        {
          "internalType": "uint256",
          "name": "",
          "type": "uint256"
        }
      ],
      "stateMutability": "view",
      "type": "function"
    },
    {
      "inputs": [
        {
          "internalType": "bool",
          "name": "maximise",
          "type": "bool"
        }
      ],
      "name": "getAum",
      "outputs": [
        {
          "internalType": "uint256",
          "name": "",
          "type": "uint256"
        }
      ],
      "stateMutability": "view",
      "type": "function"
    },
    {
      "inputs": [
        {
          "internalType": "bool",
          "name": "maximise",
          "type": "bool"
        }
      ],
      "name": "getAumInUsdg",
      "outputs": [
        {
          "internalType": "uint256",
          "name": "",
          "type": "uint256"
        }
      ],
      "stateMutability": "view",
      "type": "function"
    },
    {
      "inputs": [],
      "name": "getAums",
      "outputs": [
        {
          "internalType": "uint256[]",
          "name": "",
          "type": "uint256[]"
        }
      ],
      "stateMutability": "view",
      "type": "function"
    },
    {
      "inputs": [],
      "name": "glp",
      "outputs": [
        {
          "internalType": "address",
          "name": "",
          "type": "address"
        }
      ],
      "stateMutability": "view",
      "type": "function"
    },
    {
      "inputs": [],
      "name": "gov",
      "outputs": [
        {
          "internalType": "address",
          "name": "",
          "type": "address"
        }
      ],
      "stateMutability": "view",
      "type": "function"
    },
    {
      "inputs": [],
      "name": "inPrivateMode",
      "outputs": [
        {
          "internalType": "bool",
          "name": "",
          "type": "bool"
        }
      ],
      "stateMutability": "view",
      "type": "function"
    },
    {
      "inputs": [
        {
          "internalType": "address",
          "name": "_vault",
          "type": "address"
        },
        {
          "internalType": "address",
          "name": "_usdg",
          "type": "address"
        },
        {
          "internalType": "address",
          "name": "_glp",
          "type": "address"
        },
        {
          "internalType": "uint256",
          "name": "_cooldownDuration",
          "type": "uint256"
        }
      ],
      "name": "initialize",
      "outputs": [],
      "stateMutability": "nonpayable",
      "type": "function"
    },
    {
      "inputs": [
        {
          "internalType": "address",
          "name": "",
          "type": "address"
        }
      ],
      "name": "isHandler",
      "outputs": [
        {
          "internalType": "bool",
          "name": "",
          "type": "bool"
        }
      ],
      "stateMutability": "view",
      "type": "function"
    },
    {
      "inputs": [
        {
          "internalType": "address",
          "name": "",
          "type": "address"
        }
      ],
      "name": "lastAddedAt",
      "outputs": [
        {
          "internalType": "uint256",
          "name": "",
          "type": "uint256"
        }
      ],
      "stateMutability": "view",
      "type": "function"
    },
    {
      "inputs": [
        {
          "internalType": "address",
          "name": "_tokenOut",
          "type": "address"
        },
        {
          "internalType": "uint256",
          "name": "_glpAmount",
          "type": "uint256"
        },
        {
          "internalType": "uint256",
          "name": "_minOut",
          "type": "uint256"
        },
        {
          "internalType": "address",
          "name": "_receiver",
          "type": "address"
        },
        {
          "internalType": "bytes",
          "name": "signedQuoteData",
          "type": "bytes"
        }
      ],
      "name": "removeLiquidity",
      "outputs": [
        {
          "internalType": "uint256",
          "name": "",
          "type": "uint256"
        }
      ],
      "stateMutability": "nonpayable",
      "type": "function"
    },
    {
      "inputs": [
        {
          "internalType": "address",
          "name": "_account",
          "type": "address"
        },
        {
          "internalType": "address",
          "name": "_tokenOut",
          "type": "address"
        },
        {
          "internalType": "uint256",
          "name": "_glpAmount",
          "type": "uint256"
        },
        {
          "internalType": "uint256",
          "name": "_minOut",
          "type": "uint256"
        },
        {
          "internalType": "address",
          "name": "_receiver",
          "type": "address"
        },
        {
          "internalType": "bytes",
          "name": "signedQuoteData",
          "type": "bytes"
        }
      ],
      "name": "removeLiquidityForAccount",
      "outputs": [
        {
          "internalType": "uint256",
          "name": "",
          "type": "uint256"
        }
      ],
      "stateMutability": "nonpayable",
      "type": "function"
    },
    {
      "inputs": [
        {
          "internalType": "uint256",
          "name": "_aumAddition",
          "type": "uint256"
        },
        {
          "internalType": "uint256",
          "name": "_aumDeduction",
          "type": "uint256"
        }
      ],
      "name": "setAumAdjustment",
      "outputs": [],
      "stateMutability": "nonpayable",
      "type": "function"
    },
    {
      "inputs": [
        {
          "internalType": "uint256",
          "name": "_cooldownDuration",
          "type": "uint256"
        }
      ],
      "name": "setCooldownDuration",
      "outputs": [],
      "stateMutability": "nonpayable",
      "type": "function"
    },
    {
      "inputs": [
        {
          "internalType": "address",
          "name": "_gov",
          "type": "address"
        }
      ],
      "name": "setGov",
      "outputs": [],
      "stateMutability": "nonpayable",
      "type": "function"
    },
    {
      "inputs": [
        {
          "internalType": "address",
          "name": "_handler",
          "type": "address"
        },
        {
          "internalType": "bool",
          "name": "_isActive",
          "type": "bool"
        }
      ],
      "name": "setHandler",
      "outputs": [],
      "stateMutability": "nonpayable",
      "type": "function"
    },
    {
      "inputs": [
        {
          "internalType": "bool",
          "name": "_inPrivateMode",
          "type": "bool"
        }
      ],
      "name": "setInPrivateMode",
      "outputs": [],
      "stateMutability": "nonpayable",
      "type": "function"
    },
    {
      "inputs": [],
      "name": "usdg",
      "outputs": [
        {
          "internalType": "address",
          "name": "",
          "type": "address"
        }
      ],
      "stateMutability": "view",
      "type": "function"
    },
    {
      "inputs": [],
      "name": "vault",
      "outputs": [
        {
          "internalType": "contract IVault",
          "name": "",
          "type": "address"
        }
      ],
      "stateMutability": "view",
      "type": "function"
    }
  ],
  "bytecode": "0x608060405234801561001057600080fd5b5061281e806100206000396000f3fe608060405234801561001057600080fd5b506004361061018e5760003560e01c80638b770e11116100de578063cf756fdf11610097578063eece61c911610071578063eece61c914610524578063f3b39b6c146105bf578063f5b91b7b1461064e578063fbfa77cf146106565761018e565b8063cf756fdf1461046a578063cfad57a2146104a6578063ed0d1c04146104cc5761018e565b80638b770e11146103c65780639116c4ae146103ec57806395082d251461040f578063966be075146104175780639cb7de4b14610434578063b172bb0c146104625761018e565b8063352693151161014b5780636a86da19116101255780636a86da191461030357806378a207ee146103245780637ae535001461032c578063870d917c146103be5761018e565b806335269315146102b657806346ea87af146102be57806368a0a3e0146102e45761018e565b80630339147614610193578063070eacee146101c457806312d43a51146101e0578063196b68cb146102045780631e9049cf1461020c5780632f4b339914610214575b600080fd5b6101b2600480360360208110156101a957600080fd5b5035151561065e565b60408051918252519081900360200190f35b6101cc610d7f565b604080519115158252519081900360200190f35b6101e8610d88565b604080516001600160a01b039092168252519081900360200190f35b6101b2610d97565b6101b2610d9d565b6101b2600480360360e081101561022a57600080fd5b6001600160a01b038235811692602081013582169260408201359092169160608201359160808101359160a0820135919081019060e0810160c0820135600160201b81111561027857600080fd5b82018360208201111561028a57600080fd5b803590602001918460018302840111600160201b831117156102ab57600080fd5b509092509050610da4565b6101b2610e1a565b6101cc600480360360208110156102d457600080fd5b50356001600160a01b0316610e20565b6101b2600480360360208110156102fa57600080fd5b50351515610e35565b6103226004803603602081101561031957600080fd5b50351515610e6d565b005b6101e8610ed7565b6101b2600480360360a081101561034257600080fd5b6001600160a01b038235811692602081013592604082013592606083013516919081019060a081016080820135600160201b81111561038057600080fd5b82018360208201111561039257600080fd5b803590602001918460018302840111600160201b831117156103b357600080fd5b509092509050610ee6565b6101b2610fa9565b6101b2600480360360208110156103dc57600080fd5b50356001600160a01b0316610fae565b6103226004803603604081101561040257600080fd5b5080359060200135610fc0565b6101b2611022565b6103226004803603602081101561042d57600080fd5b5035611033565b6103226004803603604081101561044a57600080fd5b506001600160a01b03813516906020013515156110d1565b6101b2611153565b6103226004803603608081101561048057600080fd5b506001600160a01b03813581169160208101358216916040820135169060600135611159565b610322600480360360208110156104bc57600080fd5b50356001600160a01b031661125b565b6104d46112d4565b60408051602080825283518183015283519192839290830191858101910280838360005b838110156105105781810151838201526020016104f8565b505050509050019250505060405180910390f35b6101b2600480360360c081101561053a57600080fd5b6001600160a01b038235811692602081013582169260408201359260608301359260808101359091169181019060c0810160a0820135600160201b81111561058157600080fd5b82018360208201111561059357600080fd5b803590602001918460018302840111600160201b831117156105b457600080fd5b509092509050611342565b6101b2600480360360a08110156105d557600080fd5b6001600160a01b038235169160208101359160408201359160608101359181019060a081016080820135600160201b81111561061057600080fd5b82018360208201111561062257600080fd5b803590602001918460018302840111600160201b8311171561064357600080fd5b5090925090506113b6565b6101e861146b565b6101e861147a565b600080603460009054906101000a90046001600160a01b03166001600160a01b0316630842b0766040518163ffffffff1660e01b815260040160206040518083038186803b1580156106af57600080fd5b505afa1580156106c3573d6000803e3d6000fd5b505050506040513d60208110156106d957600080fd5b50516039549091506000805b83811015610d3b5760345460408051630e468baf60e41b81526004810184905290516000926001600160a01b03169163e468baf0916024808301926020929190829003018186803b15801561073957600080fd5b505afa15801561074d573d6000803e3d6000fd5b505050506040513d602081101561076357600080fd5b505160345460408051630daf9c2160e41b81526001600160a01b0380851660048301529151939450600093919092169163daf9c210916024808301926020929190829003018186803b1580156107b857600080fd5b505afa1580156107cc573d6000803e3d6000fd5b505050506040513d60208110156107e257600080fd5b50519050806107f2575050610d33565b60008861087757603454604080516340d3096b60e11b81526001600160a01b038681166004830152915191909216916381a612d6916024808301926020929190829003018186803b15801561084657600080fd5b505afa15801561085a573d6000803e3d6000fd5b505050506040513d602081101561087057600080fd5b50516108f1565b60345460408051637092736960e11b81526001600160a01b0386811660048301529151919092169163e124e6d2916024808301926020929190829003018186803b1580156108c457600080fd5b505afa1580156108d8573d6000803e3d6000fd5b505050506040513d60208110156108ee57600080fd5b50515b603454604080516352f55eed60e01b81526001600160a01b038781166004830152915193945060009391909216916352f55eed916024808301926020929190829003018186803b15801561094457600080fd5b505afa158015610958573d6000803e3d6000fd5b505050506040513d602081101561096e57600080fd5b5051603454604080516323b95ceb60e21b81526001600160a01b03888116600483015291519394506000939190921691638ee573ac916024808301926020929190829003018186803b1580156109c357600080fd5b505afa1580156109d7573d6000803e3d6000fd5b505050506040513d60208110156109ed57600080fd5b5051603454604080516342b60b0360e01b81526001600160a01b03898116600483015291519394509116916342b60b0391602480820192602092909190829003018186803b158015610a3e57600080fd5b505afa158015610a52573d6000803e3d6000fd5b505050506040513d6020811015610a6857600080fd5b505115610a9857610a91610a8a600a83900a610a848587611489565b906114eb565b899061152d565b9750610d2d565b6034546040805163114f1b5560e31b81526001600160a01b03888116600483015291516000939290921691638a78daa891602480820192602092909190829003018186803b158015610ae957600080fd5b505afa158015610afd573d6000803e3d6000fd5b505050506040513d6020811015610b1357600080fd5b505190508015610bfc5760345460408051636274980360e01b81526001600160a01b03898116600483015291516000939290921691636274980391602480820192602092909190829003018186803b158015610b6e57600080fd5b505afa158015610b82573d6000803e3d6000fd5b505050506040513d6020811015610b9857600080fd5b505190506000858211610bb457610baf8683611587565b610bbe565b610bbe8287611587565b90506000610bd083610a848685611489565b905082871115610beb57610be48c8261152d565b9b50610bf8565b610bf58b8261152d565b9a505b5050505b6034546040805163783a2b6760e11b81526001600160a01b0389811660048301529151610c8193929092169163f07456ce91602480820192602092909190829003018186803b158015610c4e57600080fd5b505afa158015610c62573d6000803e3d6000fd5b505050506040513d6020811015610c7857600080fd5b50518a9061152d565b6034546040805163c3c7b9e960e01b81526001600160a01b038a811660048301529151939c50600093919092169163c3c7b9e9916024808301926020929190829003018186803b158015610cd457600080fd5b505afa158015610ce8573d6000803e3d6000fd5b505050506040513d6020811015610cfe57600080fd5b50519050610d28610d21600a85900a610a8488610d1b8987611587565b90611489565b8b9061152d565b995050505b50505050505b6001016106e5565b50818111610d5257610d4d8282611587565b610d55565b60005b915081603a5411610d7357603a54610d6e908390611587565b610d76565b60005b95945050505050565b603b5460ff1681565b6033546001600160a01b031681565b60395481565b6202a30081565b600060026001541415610dec576040805162461bcd60e51b815260206004820152601f6024820152600080516020612690833981519152604482015290519081900360640190fd5b6002600155610df96115c9565b610e098989898989898989611627565b600180559998505050505050505050565b60375481565b603c6020526000908152604090205460ff1681565b600080610e418361065e565b9050610e666c0c9f2c9cd04674edea40000000610a8483670de0b6b3a7640000611489565b9392505050565b6033546001600160a01b03163314610ec4576040805162461bcd60e51b815260206004820152601560248201527423b7bb32b93730b136329d103337b93134b23232b760591b604482015290519081900360640190fd5b603b805460ff1916911515919091179055565b6036546001600160a01b031681565b600060026001541415610f2e576040805162461bcd60e51b815260206004820152601f6024820152600080516020612690833981519152604482015290519081900360640190fd5b6002600155603b5460ff1615610f8b576040805162461bcd60e51b815260206004820152601e60248201527f486c704d616e616765723a20616374696f6e206e6f7420656e61626c65640000604482015290519081900360640190fd5b610f9a33888888888888611a4a565b60018055979650505050505050565b601281565b60386020526000908152604090205481565b6033546001600160a01b03163314611017576040805162461bcd60e51b815260206004820152601560248201527423b7bb32b93730b136329d103337b93134b23232b760591b604482015290519081900360640190fd5b603991909155603a55565b6c0c9f2c9cd04674edea4000000081565b6033546001600160a01b0316331461108a576040805162461bcd60e51b815260206004820152601560248201527423b7bb32b93730b136329d103337b93134b23232b760591b604482015290519081900360640190fd5b6202a3008111156110cc5760405162461bcd60e51b81526004018080602001828103825260258152602001806126b06025913960400191505060405180910390fd5b603755565b6033546001600160a01b03163314611128576040805162461bcd60e51b815260206004820152601560248201527423b7bb32b93730b136329d103337b93134b23232b760591b604482015290519081900360640190fd5b6001600160a01b03919091166000908152603c60205260409020805460ff1916911515919091179055565b603a5481565b600054610100900460ff16806111725750611172612001565b80611180575060005460ff16155b6111bb5760405162461bcd60e51b815260040180806020018281038252602e815260200180612721602e913960400191505060405180910390fd5b600054610100900460ff161580156111e6576000805460ff1961ff0019909116610100171660011790555b6111ee612007565b6111f66120b1565b603480546001600160a01b038088166001600160a01b03199283161790925560358054878416908316179055603680548684169216919091179055603783905560335416331461124257fe5b8015611254576000805461ff00191690555b5050505050565b6033546001600160a01b031633146112b2576040805162461bcd60e51b815260206004820152601560248201527423b7bb32b93730b136329d103337b93134b23232b760591b604482015290519081900360640190fd5b603380546001600160a01b0319166001600160a01b0392909216919091179055565b604080516002808252606080830184529283929190602083019080368337019050509050611302600161065e565b8160008151811061130f57fe5b602002602001018181525050611325600061065e565b8160018151811061133257fe5b6020908102919091010152905090565b60006002600154141561138a576040805162461bcd60e51b815260206004820152601f6024820152600080516020612690833981519152604482015290519081900360640190fd5b60026001556113976115c9565b6113a688888888888888611a4a565b6001805598975050505050505050565b6000600260015414156113fe576040805162461bcd60e51b815260206004820152601f6024820152600080516020612690833981519152604482015290519081900360640190fd5b6002600155603b5460ff161561145b576040805162461bcd60e51b815260206004820152601e60248201527f486c704d616e616765723a20616374696f6e206e6f7420656e61626c65640000604482015290519081900360640190fd5b610f9a3333898989898989611627565b6035546001600160a01b031681565b6034546001600160a01b031681565b600082611498575060006114e5565b828202828482816114a557fe5b04146114e25760405162461bcd60e51b815260040180806020018281038252602181526020018061274f6021913960400191505060405180910390fd5b90505b92915050565b60006114e283836040518060400160405280601a81526020017f536166654d6174683a206469766973696f6e206279207a65726f000000000000815250612146565b6000828201838110156114e2576040805162461bcd60e51b815260206004820152601b60248201527f536166654d6174683a206164646974696f6e206f766572666c6f770000000000604482015290519081900360640190fd5b60006114e283836040518060400160405280601e81526020017f536166654d6174683a207375627472616374696f6e206f766572666c6f7700008152506121e8565b336000908152603c602052604090205460ff16611625576040805162461bcd60e51b815260206004820152601560248201527424363826b0b730b3b2b91d103337b93134b23232b760591b604482015290519081900360640190fd5b565b600080861161167d576040805162461bcd60e51b815260206004820152601b60248201527f486c704d616e616765723a20696e76616c6964205f616d6f756e740000000000604482015290519081900360640190fd5b603460009054906101000a90046001600160a01b03166001600160a01b031663741bef1a6040518163ffffffff1660e01b815260040160206040518083038186803b1580156116cb57600080fd5b505afa1580156116df573d6000803e3d6000fd5b505050506040513d60208110156116f557600080fd5b50516040516314d6fc5d60e11b8152602060048201908152602482018590526001600160a01b03909216916329adf8ba91869186918190604401848480828437600081840152601f19601f8201169050808301925050509350505050600060405180830381600087803b15801561176b57600080fd5b505af115801561177f573d6000803e3d6000fd5b50505050600061178f6001610e35565b90506000603660009054906101000a90046001600160a01b03166001600160a01b03166318160ddd6040518163ffffffff1660e01b815260040160206040518083038186803b1580156117e157600080fd5b505afa1580156117f5573d6000803e3d6000fd5b505050506040513d602081101561180b57600080fd5b505160345490915061182c906001600160a01b038b8116918e91168b612242565b6034546040805163817bb85760e01b81526001600160a01b038c811660048301523060248301529151600093929092169163817bb8579160448082019260209290919082900301818787803b15801561188457600080fd5b505af1158015611898573d6000803e3d6000fd5b505050506040513d60208110156118ae57600080fd5b50519050878110156118f15760405162461bcd60e51b81526004018080602001828103825260268152602001806126d56026913960400191505060405180910390fd5b6000831561190c5761190784610a848486611489565b61190e565b815b90508781101561194f5760405162461bcd60e51b81526004018080602001828103825260238152602001806127706023913960400191505060405180910390fd5b603654604080516340c10f1960e01b81526001600160a01b038f8116600483015260248201859052915191909216916340c10f1991604480830192600092919082900301818387803b1580156119a457600080fd5b505af11580156119b8573d6000803e3d6000fd5b5050506001600160a01b03808e166000818152603860209081526040918290204290558151928352928f16928201929092528082018d9052606081018790526080810186905260a0810185905260c0810184905290517f38dc38b96482be64113daffd8d464ebda93e856b70ccfc605e69ccf892ab981e92509081900360e00190a19c9b505050505050505050505050565b6000808611611aa0576040805162461bcd60e51b815260206004820152601e60248201527f486c704d616e616765723a20696e76616c6964205f676c70416d6f756e740000604482015290519081900360640190fd5b6037546001600160a01b0389166000908152603860205260409020544291611ac8919061152d565b1115611b055760405162461bcd60e51b815260040180806020018281038252602c8152602001806127bd602c913960400191505060405180910390fd5b603460009054906101000a90046001600160a01b03166001600160a01b031663741bef1a6040518163ffffffff1660e01b815260040160206040518083038186803b158015611b5357600080fd5b505afa158015611b67573d6000803e3d6000fd5b505050506040513d6020811015611b7d57600080fd5b50516040516314d6fc5d60e11b8152602060048201908152602482018590526001600160a01b03909216916329adf8ba91869186918190604401848480828437600081840152601f19601f8201169050808301925050509350505050600060405180830381600087803b158015611bf357600080fd5b505af1158015611c07573d6000803e3d6000fd5b505050506000611c176000610e35565b90506000603660009054906101000a90046001600160a01b03166001600160a01b03166318160ddd6040518163ffffffff1660e01b815260040160206040518083038186803b158015611c6957600080fd5b505afa158015611c7d573d6000803e3d6000fd5b505050506040513d6020811015611c9357600080fd5b505190506000611ca782610a848b86611489565b603554604080516370a0823160e01b815230600482015290519293506000926001600160a01b03909216916370a0823191602480820192602092909190829003018186803b158015611cf857600080fd5b505afa158015611d0c573d6000803e3d6000fd5b505050506040513d6020811015611d2257600080fd5b5051905080821115611da9576035546001600160a01b03166340c10f1930611d4a8585611587565b6040518363ffffffff1660e01b815260040180836001600160a01b0316815260200182815260200192505050600060405180830381600087803b158015611d9057600080fd5b505af1158015611da4573d6000803e3d6000fd5b505050505b60365460408051632770a7eb60e21b81526001600160a01b038f81166004830152602482018e905291519190921691639dc29fac91604480830192600092919082900301818387803b158015611dfe57600080fd5b505af1158015611e12573d6000803e3d6000fd5b50506035546034546040805163a9059cbb60e01b81526001600160a01b03928316600482015260248101889052905191909216935063a9059cbb925060448083019260209291908290030181600087803b158015611e6f57600080fd5b505af1158015611e83573d6000803e3d6000fd5b505050506040513d6020811015611e9957600080fd5b505060345460408051630711e61960e41b81526001600160a01b038e811660048301528b811660248301529151600093929092169163711e61909160448082019260209290919082900301818787803b158015611ef557600080fd5b505af1158015611f09573d6000803e3d6000fd5b505050506040513d6020811015611f1f57600080fd5b5051905089811015611f78576040805162461bcd60e51b815260206004820152601f60248201527f486c704d616e616765723a20696e73756666696369656e74206f757470757400604482015290519081900360640190fd5b7f87b9679bb9a4944bafa98c267e7cd4a00ab29fed48afdefae25f0fca5da279408d8d8d8888888760405180886001600160a01b03168152602001876001600160a01b0316815260200186815260200185815260200184815260200183815260200182815260200197505050505050505060405180910390a19c9b505050505050505050505050565b303b1590565b600054610100900460ff16806120205750612020612001565b8061202e575060005460ff16155b6120695760405162461bcd60e51b815260040180806020018281038252602e815260200180612721602e913960400191505060405180910390fd5b600054610100900460ff16158015612094576000805460ff1961ff0019909116610100171660011790555b61209c6122a2565b80156120ae576000805461ff00191690555b50565b600054610100900460ff16806120ca57506120ca612001565b806120d8575060005460ff16155b6121135760405162461bcd60e51b815260040180806020018281038252602e815260200180612721602e913960400191505060405180910390fd5b600054610100900460ff1615801561213e576000805460ff1961ff0019909116610100171660011790555b61209c612347565b600081836121d25760405162461bcd60e51b81526004018080602001828103825283818151815260200191508051906020019080838360005b8381101561219757818101518382015260200161217f565b50505050905090810190601f1680156121c45780820380516001836020036101000a031916815260200191505b509250505060405180910390fd5b5060008385816121de57fe5b0495945050505050565b6000818484111561223a5760405162461bcd60e51b815260206004820181815283516024840152835190928392604490910191908501908083836000831561219757818101518382015260200161217f565b505050900390565b604080516001600160a01b0380861660248301528416604482015260648082018490528251808303909101815260849091019091526020810180516001600160e01b03166323b872dd60e01b17905261229c9085906123fa565b50505050565b600054610100900460ff16806122bb57506122bb612001565b806122c9575060005460ff16155b6123045760405162461bcd60e51b815260040180806020018281038252602e815260200180612721602e913960400191505060405180910390fd5b600054610100900460ff1615801561232f576000805460ff1961ff0019909116610100171660011790555b6001805580156120ae576000805461ff001916905550565b600054610100900460ff16806123605750612360612001565b8061236e575060005460ff16155b6123a95760405162461bcd60e51b815260040180806020018281038252602e815260200180612721602e913960400191505060405180910390fd5b600054610100900460ff161580156123d4576000805460ff1961ff0019909116610100171660011790555b603380546001600160a01b0319163317905580156120ae576000805461ff001916905550565b606061244f826040518060400160405280602081526020017f5361666545524332303a206c6f772d6c6576656c2063616c6c206661696c6564815250856001600160a01b03166124b09092919063ffffffff16565b8051909150156124ab5780806020019051602081101561246e57600080fd5b50516124ab5760405162461bcd60e51b815260040180806020018281038252602a815260200180612793602a913960400191505060405180910390fd5b505050565b60606124bf84846000856124c7565b949350505050565b6060824710156125085760405162461bcd60e51b81526004018080602001828103825260268152602001806126fb6026913960400191505060405180910390fd5b61251185612623565b612562576040805162461bcd60e51b815260206004820152601d60248201527f416464726573733a2063616c6c20746f206e6f6e2d636f6e7472616374000000604482015290519081900360640190fd5b60006060866001600160a01b031685876040518082805190602001908083835b602083106125a15780518252601f199092019160209182019101612582565b6001836020036101000a03801982511681845116808217855250505050505090500191505060006040518083038185875af1925050503d8060008114612603576040519150601f19603f3d011682016040523d82523d6000602084013e612608565b606091505b5091509150612618828286612629565b979650505050505050565b3b151590565b60608315612638575081610e66565b8251156126485782518084602001fd5b60405162461bcd60e51b815260206004820181815284516024840152845185939192839260440191908501908083836000831561219757818101518382015260200161217f56fe5265656e7472616e637947756172643a207265656e7472616e742063616c6c00486c704d616e616765723a20696e76616c6964205f636f6f6c646f776e4475726174696f6e486c704d616e616765723a20696e73756666696369656e7420555344684c50206f7574707574416464726573733a20696e73756666696369656e742062616c616e636520666f722063616c6c496e697469616c697a61626c653a20636f6e747261637420697320616c726561647920696e697469616c697a6564536166654d6174683a206d756c7469706c69636174696f6e206f766572666c6f77486c704d616e616765723a20696e73756666696369656e7420684c50206f75747075745361666545524332303a204552433230206f7065726174696f6e20646964206e6f742073756363656564486c704d616e616765723a20636f6f6c646f776e206475726174696f6e206e6f742079657420706173736564a264697066735822122050106d276b82d2e06de425d68fbc2c647e894959546c4af3412c5bb0fb1c91f364736f6c634300060c0033",
  "linkReferences": {},
  "deployedLinkReferences": {}
}