{
  "_format": "hh-sol-artifact-1",
  "contractName": "HlpManager",
  "sourceName": "contracts/core/HlpManager.sol",
  "abi": [
    {
      "anonymous": false,
      "inputs": [
        {
          "indexed": false,
          "internalType": "address",
          "name": "account",
          "type": "address"
        },
        {
          "indexed": false,
          "internalType": "address",
          "name": "token",
          "type": "address"
        },
        {
          "indexed": false,
          "internalType": "uint256",
          "name": "amount",
          "type": "uint256"
        },
        {
          "indexed": false,
          "internalType": "uint256",
          "name": "aumInUsdg",
          "type": "uint256"
        },
        {
          "indexed": false,
          "internalType": "uint256",
          "name": "glpSupply",
          "type": "uint256"
        },
        {
          "indexed": false,
          "internalType": "uint256",
          "name": "usdgAmount",
          "type": "uint256"
        },
        {
          "indexed": false,
          "internalType": "uint256",
          "name": "mintAmount",
          "type": "uint256"
        }
      ],
      "name": "AddLiquidity",
      "type": "event"
    },
    {
      "anonymous": false,
      "inputs": [
        {
          "indexed": false,
          "internalType": "address",
          "name": "account",
          "type": "address"
        },
        {
          "indexed": false,
          "internalType": "address",
          "name": "token",
          "type": "address"
        },
        {
          "indexed": false,
          "internalType": "uint256",
          "name": "glpAmount",
          "type": "uint256"
        },
        {
          "indexed": false,
          "internalType": "uint256",
          "name": "aumInUsdg",
          "type": "uint256"
        },
        {
          "indexed": false,
          "internalType": "uint256",
          "name": "glpSupply",
          "type": "uint256"
        },
        {
          "indexed": false,
          "internalType": "uint256",
          "name": "usdgAmount",
          "type": "uint256"
        },
        {
          "indexed": false,
          "internalType": "uint256",
          "name": "amountOut",
          "type": "uint256"
        }
      ],
      "name": "RemoveLiquidity",
      "type": "event"
    },
    {
      "inputs": [],
      "name": "MAX_COOLDOWN_DURATION",
      "outputs": [
        {
          "internalType": "uint256",
          "name": "",
          "type": "uint256"
        }
      ],
      "stateMutability": "view",
      "type": "function"
    },
    {
      "inputs": [],
      "name": "PRICE_PRECISION",
      "outputs": [
        {
          "internalType": "uint256",
          "name": "",
          "type": "uint256"
        }
      ],
      "stateMutability": "view",
      "type": "function"
    },
    {
      "inputs": [],
      "name": "USDG_DECIMALS",
      "outputs": [
        {
          "internalType": "uint256",
          "name": "",
          "type": "uint256"
        }
      ],
      "stateMutability": "view",
      "type": "function"
    },
    {
      "inputs": [
        {
          "internalType": "address",
          "name": "_token",
          "type": "address"
        },
        {
          "internalType": "uint256",
          "name": "_amount",
          "type": "uint256"
        },
        {
          "internalType": "uint256",
          "name": "_minUsdg",
          "type": "uint256"
        },
        {
          "internalType": "uint256",
          "name": "_minGlp",
          "type": "uint256"
        }
      ],
      "name": "addLiquidity",
      "outputs": [
        {
          "internalType": "uint256",
          "name": "",
          "type": "uint256"
        }
      ],
      "stateMutability": "nonpayable",
      "type": "function"
    },
    {
      "inputs": [
        {
          "internalType": "address",
          "name": "_fundingAccount",
          "type": "address"
        },
        {
          "internalType": "address",
          "name": "_account",
          "type": "address"
        },
        {
          "internalType": "address",
          "name": "_token",
          "type": "address"
        },
        {
          "internalType": "uint256",
          "name": "_amount",
          "type": "uint256"
        },
        {
          "internalType": "uint256",
          "name": "_minUsdg",
          "type": "uint256"
        },
        {
          "internalType": "uint256",
          "name": "_minGlp",
          "type": "uint256"
        }
      ],
      "name": "addLiquidityForAccount",
      "outputs": [
        {
          "internalType": "uint256",
          "name": "",
          "type": "uint256"
        }
      ],
      "stateMutability": "nonpayable",
      "type": "function"
    },
    {
      "inputs": [],
      "name": "aumAddition",
      "outputs": [
        {
          "internalType": "uint256",
          "name": "",
          "type": "uint256"
        }
      ],
      "stateMutability": "view",
      "type": "function"
    },
    {
      "inputs": [],
      "name": "aumDeduction",
      "outputs": [
        {
          "internalType": "uint256",
          "name": "",
          "type": "uint256"
        }
      ],
      "stateMutability": "view",
      "type": "function"
    },
    {
      "inputs": [],
      "name": "cooldownDuration",
      "outputs": [
        {
          "internalType": "uint256",
          "name": "",
          "type": "uint256"
        }
      ],
      "stateMutability": "view",
      "type": "function"
    },
    {
      "inputs": [
        {
          "internalType": "bool",
          "name": "maximise",
          "type": "bool"
        }
      ],
      "name": "getAum",
      "outputs": [
        {
          "internalType": "uint256",
          "name": "",
          "type": "uint256"
        }
      ],
      "stateMutability": "view",
      "type": "function"
    },
    {
      "inputs": [
        {
          "internalType": "bool",
          "name": "maximise",
          "type": "bool"
        }
      ],
      "name": "getAumInUsdg",
      "outputs": [
        {
          "internalType": "uint256",
          "name": "",
          "type": "uint256"
        }
      ],
      "stateMutability": "view",
      "type": "function"
    },
    {
      "inputs": [],
      "name": "getAums",
      "outputs": [
        {
          "internalType": "uint256[]",
          "name": "",
          "type": "uint256[]"
        }
      ],
      "stateMutability": "view",
      "type": "function"
    },
    {
      "inputs": [],
      "name": "glp",
      "outputs": [
        {
          "internalType": "address",
          "name": "",
          "type": "address"
        }
      ],
      "stateMutability": "view",
      "type": "function"
    },
    {
      "inputs": [],
      "name": "gov",
      "outputs": [
        {
          "internalType": "address",
          "name": "",
          "type": "address"
        }
      ],
      "stateMutability": "view",
      "type": "function"
    },
    {
      "inputs": [],
      "name": "inPrivateMode",
      "outputs": [
        {
          "internalType": "bool",
          "name": "",
          "type": "bool"
        }
      ],
      "stateMutability": "view",
      "type": "function"
    },
    {
      "inputs": [
        {
          "internalType": "address",
          "name": "_vault",
          "type": "address"
        },
        {
          "internalType": "address",
          "name": "_usdg",
          "type": "address"
        },
        {
          "internalType": "address",
          "name": "_glp",
          "type": "address"
        },
        {
          "internalType": "uint256",
          "name": "_cooldownDuration",
          "type": "uint256"
        }
      ],
      "name": "initialize",
      "outputs": [],
      "stateMutability": "nonpayable",
      "type": "function"
    },
    {
      "inputs": [
        {
          "internalType": "address",
          "name": "",
          "type": "address"
        }
      ],
      "name": "isHandler",
      "outputs": [
        {
          "internalType": "bool",
          "name": "",
          "type": "bool"
        }
      ],
      "stateMutability": "view",
      "type": "function"
    },
    {
      "inputs": [
        {
          "internalType": "address",
          "name": "",
          "type": "address"
        }
      ],
      "name": "lastAddedAt",
      "outputs": [
        {
          "internalType": "uint256",
          "name": "",
          "type": "uint256"
        }
      ],
      "stateMutability": "view",
      "type": "function"
    },
    {
      "inputs": [
        {
          "internalType": "address",
          "name": "_tokenOut",
          "type": "address"
        },
        {
          "internalType": "uint256",
          "name": "_glpAmount",
          "type": "uint256"
        },
        {
          "internalType": "uint256",
          "name": "_minOut",
          "type": "uint256"
        },
        {
          "internalType": "address",
          "name": "_receiver",
          "type": "address"
        }
      ],
      "name": "removeLiquidity",
      "outputs": [
        {
          "internalType": "uint256",
          "name": "",
          "type": "uint256"
        }
      ],
      "stateMutability": "nonpayable",
      "type": "function"
    },
    {
      "inputs": [
        {
          "internalType": "address",
          "name": "_account",
          "type": "address"
        },
        {
          "internalType": "address",
          "name": "_tokenOut",
          "type": "address"
        },
        {
          "internalType": "uint256",
          "name": "_glpAmount",
          "type": "uint256"
        },
        {
          "internalType": "uint256",
          "name": "_minOut",
          "type": "uint256"
        },
        {
          "internalType": "address",
          "name": "_receiver",
          "type": "address"
        }
      ],
      "name": "removeLiquidityForAccount",
      "outputs": [
        {
          "internalType": "uint256",
          "name": "",
          "type": "uint256"
        }
      ],
      "stateMutability": "nonpayable",
      "type": "function"
    },
    {
      "inputs": [
        {
          "internalType": "uint256",
          "name": "_aumAddition",
          "type": "uint256"
        },
        {
          "internalType": "uint256",
          "name": "_aumDeduction",
          "type": "uint256"
        }
      ],
      "name": "setAumAdjustment",
      "outputs": [],
      "stateMutability": "nonpayable",
      "type": "function"
    },
    {
      "inputs": [
        {
          "internalType": "uint256",
          "name": "_cooldownDuration",
          "type": "uint256"
        }
      ],
      "name": "setCooldownDuration",
      "outputs": [],
      "stateMutability": "nonpayable",
      "type": "function"
    },
    {
      "inputs": [
        {
          "internalType": "address",
          "name": "_gov",
          "type": "address"
        }
      ],
      "name": "setGov",
      "outputs": [],
      "stateMutability": "nonpayable",
      "type": "function"
    },
    {
      "inputs": [
        {
          "internalType": "address",
          "name": "_handler",
          "type": "address"
        },
        {
          "internalType": "bool",
          "name": "_isActive",
          "type": "bool"
        }
      ],
      "name": "setHandler",
      "outputs": [],
      "stateMutability": "nonpayable",
      "type": "function"
    },
    {
      "inputs": [
        {
          "internalType": "bool",
          "name": "_inPrivateMode",
          "type": "bool"
        }
      ],
      "name": "setInPrivateMode",
      "outputs": [],
      "stateMutability": "nonpayable",
      "type": "function"
    },
    {
      "inputs": [],
      "name": "usdg",
      "outputs": [
        {
          "internalType": "address",
          "name": "",
          "type": "address"
        }
      ],
      "stateMutability": "view",
      "type": "function"
    },
    {
      "inputs": [],
      "name": "vault",
      "outputs": [
        {
          "internalType": "contract IVault",
          "name": "",
          "type": "address"
        }
      ],
      "stateMutability": "view",
      "type": "function"
    }
  ],
  "bytecode": "0x608060405234801561001057600080fd5b5061248d806100206000396000f3fe608060405234801561001057600080fd5b506004361061018e5760003560e01c8063870d917c116100de5780639cb7de4b11610097578063cfad57a211610071578063cfad57a214610470578063ed0d1c0414610496578063f5b91b7b146104ee578063fbfa77cf146104f65761018e565b80639cb7de4b146103fe578063b172bb0c1461042c578063cf756fdf146104345761018e565b8063870d917c1461034e5780638b770e11146103565780638fed0b2c1461037c5780639116c4ae146103b657806395082d25146103d9578063966be075146103e15761018e565b80631ece366a1161014b57806368a0a3e01161012557806368a0a3e0146102c25780636a86da19146102e157806371d597ad1461030257806378a207ee146103465761018e565b80631ece366a1461025c578063352693151461029457806346ea87af1461029c5761018e565b80630339147614610193578063070eacee146101c457806312d43a51146101e057806317eb2a1514610204578063196b68cb1461024c5780631e9049cf14610254575b600080fd5b6101b2600480360360208110156101a957600080fd5b503515156104fe565b60408051918252519081900360200190f35b6101cc610c1f565b604080519115158252519081900360200190f35b6101e8610c28565b604080516001600160a01b039092168252519081900360200190f35b6101b2600480360360c081101561021a57600080fd5b506001600160a01b03813581169160208101358216916040820135169060608101359060808101359060a00135610c37565b6101b2610ca9565b6101b2610caf565b6101b26004803603608081101561027257600080fd5b506001600160a01b038135169060208101359060408101359060600135610cb6565b6101b2610d76565b6101cc600480360360208110156102b257600080fd5b50356001600160a01b0316610d7c565b6101b2600480360360208110156102d857600080fd5b50351515610d91565b610300600480360360208110156102f757600080fd5b50351515610dc9565b005b6101b2600480360360a081101561031857600080fd5b506001600160a01b038135811691602081013582169160408201359160608101359160809091013516610e33565b6101e8610ea3565b6101b2610eb2565b6101b26004803603602081101561036c57600080fd5b50356001600160a01b0316610eb7565b6101b26004803603608081101561039257600080fd5b506001600160a01b0381358116916020810135916040820135916060013516610ec9565b610300600480360360408110156103cc57600080fd5b5080359060200135610f7b565b6101b2610fdd565b610300600480360360208110156103f757600080fd5b5035610fee565b6103006004803603604081101561041457600080fd5b506001600160a01b038135169060200135151561108c565b6101b261110e565b6103006004803603608081101561044a57600080fd5b506001600160a01b03813581169160208101358216916040820135169060600135611114565b6103006004803603602081101561048657600080fd5b50356001600160a01b0316611216565b61049e61128f565b60408051602080825283518183015283519192839290830191858101910280838360005b838110156104da5781810151838201526020016104c2565b505050509050019250505060405180910390f35b6101e86112fd565b6101e861130c565b600080603460009054906101000a90046001600160a01b03166001600160a01b0316630842b0766040518163ffffffff1660e01b815260040160206040518083038186803b15801561054f57600080fd5b505afa158015610563573d6000803e3d6000fd5b505050506040513d602081101561057957600080fd5b50516039549091506000805b83811015610bdb5760345460408051630e468baf60e41b81526004810184905290516000926001600160a01b03169163e468baf0916024808301926020929190829003018186803b1580156105d957600080fd5b505afa1580156105ed573d6000803e3d6000fd5b505050506040513d602081101561060357600080fd5b505160345460408051630daf9c2160e41b81526001600160a01b0380851660048301529151939450600093919092169163daf9c210916024808301926020929190829003018186803b15801561065857600080fd5b505afa15801561066c573d6000803e3d6000fd5b505050506040513d602081101561068257600080fd5b5051905080610692575050610bd3565b60008861071757603454604080516340d3096b60e11b81526001600160a01b038681166004830152915191909216916381a612d6916024808301926020929190829003018186803b1580156106e657600080fd5b505afa1580156106fa573d6000803e3d6000fd5b505050506040513d602081101561071057600080fd5b5051610791565b60345460408051637092736960e11b81526001600160a01b0386811660048301529151919092169163e124e6d2916024808301926020929190829003018186803b15801561076457600080fd5b505afa158015610778573d6000803e3d6000fd5b505050506040513d602081101561078e57600080fd5b50515b603454604080516352f55eed60e01b81526001600160a01b038781166004830152915193945060009391909216916352f55eed916024808301926020929190829003018186803b1580156107e457600080fd5b505afa1580156107f8573d6000803e3d6000fd5b505050506040513d602081101561080e57600080fd5b5051603454604080516323b95ceb60e21b81526001600160a01b03888116600483015291519394506000939190921691638ee573ac916024808301926020929190829003018186803b15801561086357600080fd5b505afa158015610877573d6000803e3d6000fd5b505050506040513d602081101561088d57600080fd5b5051603454604080516342b60b0360e01b81526001600160a01b03898116600483015291519394509116916342b60b0391602480820192602092909190829003018186803b1580156108de57600080fd5b505afa1580156108f2573d6000803e3d6000fd5b505050506040513d602081101561090857600080fd5b5051156109385761093161092a600a83900a610924858761131b565b9061137d565b89906113bf565b9750610bcd565b6034546040805163114f1b5560e31b81526001600160a01b03888116600483015291516000939290921691638a78daa891602480820192602092909190829003018186803b15801561098957600080fd5b505afa15801561099d573d6000803e3d6000fd5b505050506040513d60208110156109b357600080fd5b505190508015610a9c5760345460408051636274980360e01b81526001600160a01b03898116600483015291516000939290921691636274980391602480820192602092909190829003018186803b158015610a0e57600080fd5b505afa158015610a22573d6000803e3d6000fd5b505050506040513d6020811015610a3857600080fd5b505190506000858211610a5457610a4f8683611419565b610a5e565b610a5e8287611419565b90506000610a7083610924868561131b565b905082871115610a8b57610a848c826113bf565b9b50610a98565b610a958b826113bf565b9a505b5050505b6034546040805163783a2b6760e11b81526001600160a01b0389811660048301529151610b2193929092169163f07456ce91602480820192602092909190829003018186803b158015610aee57600080fd5b505afa158015610b02573d6000803e3d6000fd5b505050506040513d6020811015610b1857600080fd5b50518a906113bf565b6034546040805163c3c7b9e960e01b81526001600160a01b038a811660048301529151939c50600093919092169163c3c7b9e9916024808301926020929190829003018186803b158015610b7457600080fd5b505afa158015610b88573d6000803e3d6000fd5b505050506040513d6020811015610b9e57600080fd5b50519050610bc8610bc1600a85900a61092488610bbb8987611419565b9061131b565b8b906113bf565b995050505b50505050505b600101610585565b50818111610bf257610bed8282611419565b610bf5565b60005b915081603a5411610c1357603a54610c0e908390611419565b610c16565b60005b95945050505050565b603b5460ff1681565b6033546001600160a01b031681565b600060026001541415610c7f576040805162461bcd60e51b815260206004820152601f60248201526000805160206122ff833981519152604482015290519081900360640190fd5b6002600155610c8c61145b565b610c9a8787878787876114b9565b60018055979650505050505050565b60395481565b6202a30081565b600060026001541415610cfe576040805162461bcd60e51b815260206004820152601f60248201526000805160206122ff833981519152604482015290519081900360640190fd5b6002600155603b5460ff1615610d5b576040805162461bcd60e51b815260206004820152601e60248201527f486c704d616e616765723a20616374696f6e206e6f7420656e61626c65640000604482015290519081900360640190fd5b610d693333878787876114b9565b6001805595945050505050565b60375481565b603c6020526000908152604090205460ff1681565b600080610d9d836104fe565b9050610dc26c0c9f2c9cd04674edea4000000061092483670de0b6b3a764000061131b565b9392505050565b6033546001600160a01b03163314610e20576040805162461bcd60e51b815260206004820152601560248201527423b7bb32b93730b136329d103337b93134b23232b760591b604482015290519081900360640190fd5b603b805460ff1916911515919091179055565b600060026001541415610e7b576040805162461bcd60e51b815260206004820152601f60248201526000805160206122ff833981519152604482015290519081900360640190fd5b6002600155610e8861145b565b610e9586868686866117d4565b600180559695505050505050565b6036546001600160a01b031681565b601281565b60386020526000908152604090205481565b600060026001541415610f11576040805162461bcd60e51b815260206004820152601f60248201526000805160206122ff833981519152604482015290519081900360640190fd5b6002600155603b5460ff1615610f6e576040805162461bcd60e51b815260206004820152601e60248201527f486c704d616e616765723a20616374696f6e206e6f7420656e61626c65640000604482015290519081900360640190fd5b610d6933868686866117d4565b6033546001600160a01b03163314610fd2576040805162461bcd60e51b815260206004820152601560248201527423b7bb32b93730b136329d103337b93134b23232b760591b604482015290519081900360640190fd5b603991909155603a55565b6c0c9f2c9cd04674edea4000000081565b6033546001600160a01b03163314611045576040805162461bcd60e51b815260206004820152601560248201527423b7bb32b93730b136329d103337b93134b23232b760591b604482015290519081900360640190fd5b6202a3008111156110875760405162461bcd60e51b815260040180806020018281038252602581526020018061231f6025913960400191505060405180910390fd5b603755565b6033546001600160a01b031633146110e3576040805162461bcd60e51b815260206004820152601560248201527423b7bb32b93730b136329d103337b93134b23232b760591b604482015290519081900360640190fd5b6001600160a01b03919091166000908152603c60205260409020805460ff1916911515919091179055565b603a5481565b600054610100900460ff168061112d575061112d611c70565b8061113b575060005460ff16155b6111765760405162461bcd60e51b815260040180806020018281038252602e815260200180612390602e913960400191505060405180910390fd5b600054610100900460ff161580156111a1576000805460ff1961ff0019909116610100171660011790555b6111a9611c76565b6111b1611d20565b603480546001600160a01b038088166001600160a01b0319928316179092556035805487841690831617905560368054868416921691909117905560378390556033541633146111fd57fe5b801561120f576000805461ff00191690555b5050505050565b6033546001600160a01b0316331461126d576040805162461bcd60e51b815260206004820152601560248201527423b7bb32b93730b136329d103337b93134b23232b760591b604482015290519081900360640190fd5b603380546001600160a01b0319166001600160a01b0392909216919091179055565b6040805160028082526060808301845292839291906020830190803683370190505090506112bd60016104fe565b816000815181106112ca57fe5b6020026020010181815250506112e060006104fe565b816001815181106112ed57fe5b6020908102919091010152905090565b6035546001600160a01b031681565b6034546001600160a01b031681565b60008261132a57506000611377565b8282028284828161133757fe5b04146113745760405162461bcd60e51b81526004018080602001828103825260218152602001806123be6021913960400191505060405180910390fd5b90505b92915050565b600061137483836040518060400160405280601a81526020017f536166654d6174683a206469766973696f6e206279207a65726f000000000000815250611db5565b600082820183811015611374576040805162461bcd60e51b815260206004820152601b60248201527f536166654d6174683a206164646974696f6e206f766572666c6f770000000000604482015290519081900360640190fd5b600061137483836040518060400160405280601e81526020017f536166654d6174683a207375627472616374696f6e206f766572666c6f770000815250611e57565b336000908152603c602052604090205460ff166114b7576040805162461bcd60e51b815260206004820152601560248201527424363826b0b730b3b2b91d103337b93134b23232b760591b604482015290519081900360640190fd5b565b600080841161150f576040805162461bcd60e51b815260206004820152601b60248201527f486c704d616e616765723a20696e76616c6964205f616d6f756e740000000000604482015290519081900360640190fd5b600061151b6001610d91565b90506000603660009054906101000a90046001600160a01b03166001600160a01b03166318160ddd6040518163ffffffff1660e01b815260040160206040518083038186803b15801561156d57600080fd5b505afa158015611581573d6000803e3d6000fd5b505050506040513d602081101561159757600080fd5b50516034549091506115b8906001600160a01b03898116918c911689611eb1565b6034546040805163817bb85760e01b81526001600160a01b038a811660048301523060248301529151600093929092169163817bb8579160448082019260209290919082900301818787803b15801561161057600080fd5b505af1158015611624573d6000803e3d6000fd5b505050506040513d602081101561163a57600080fd5b505190508581101561167d5760405162461bcd60e51b81526004018080602001828103825260268152602001806123446026913960400191505060405180910390fd5b600083156116985761169384610924848661131b565b61169a565b815b9050858110156116db5760405162461bcd60e51b81526004018080602001828103825260238152602001806123df6023913960400191505060405180910390fd5b603654604080516340c10f1960e01b81526001600160a01b038d8116600483015260248201859052915191909216916340c10f1991604480830192600092919082900301818387803b15801561173057600080fd5b505af1158015611744573d6000803e3d6000fd5b5050506001600160a01b03808c166000818152603860209081526040918290204290558151928352928d16928201929092528082018b9052606081018790526080810186905260a0810185905260c0810184905290517f38dc38b96482be64113daffd8d464ebda93e856b70ccfc605e69ccf892ab981e92509081900360e00190a19a9950505050505050505050565b600080841161182a576040805162461bcd60e51b815260206004820152601e60248201527f486c704d616e616765723a20696e76616c6964205f676c70416d6f756e740000604482015290519081900360640190fd5b6037546001600160a01b038716600090815260386020526040902054429161185291906113bf565b111561188f5760405162461bcd60e51b815260040180806020018281038252602c81526020018061242c602c913960400191505060405180910390fd5b600061189b6000610d91565b90506000603660009054906101000a90046001600160a01b03166001600160a01b03166318160ddd6040518163ffffffff1660e01b815260040160206040518083038186803b1580156118ed57600080fd5b505afa158015611901573d6000803e3d6000fd5b505050506040513d602081101561191757600080fd5b50519050600061192b82610924898661131b565b603554604080516370a0823160e01b815230600482015290519293506000926001600160a01b03909216916370a0823191602480820192602092909190829003018186803b15801561197c57600080fd5b505afa158015611990573d6000803e3d6000fd5b505050506040513d60208110156119a657600080fd5b5051905080821115611a2d576035546001600160a01b03166340c10f19306119ce8585611419565b6040518363ffffffff1660e01b815260040180836001600160a01b0316815260200182815260200192505050600060405180830381600087803b158015611a1457600080fd5b505af1158015611a28573d6000803e3d6000fd5b505050505b60365460408051632770a7eb60e21b81526001600160a01b038d81166004830152602482018c905291519190921691639dc29fac91604480830192600092919082900301818387803b158015611a8257600080fd5b505af1158015611a96573d6000803e3d6000fd5b50506035546034546040805163a9059cbb60e01b81526001600160a01b03928316600482015260248101889052905191909216935063a9059cbb925060448083019260209291908290030181600087803b158015611af357600080fd5b505af1158015611b07573d6000803e3d6000fd5b505050506040513d6020811015611b1d57600080fd5b505060345460408051630711e61960e41b81526001600160a01b038c8116600483015289811660248301529151600093929092169163711e61909160448082019260209290919082900301818787803b158015611b7957600080fd5b505af1158015611b8d573d6000803e3d6000fd5b505050506040513d6020811015611ba357600080fd5b5051905087811015611bfc576040805162461bcd60e51b815260206004820152601f60248201527f486c704d616e616765723a20696e73756666696369656e74206f757470757400604482015290519081900360640190fd5b604080516001600160a01b03808e1682528c1660208201528082018b9052606081018790526080810186905260a0810185905260c0810183905290517f87b9679bb9a4944bafa98c267e7cd4a00ab29fed48afdefae25f0fca5da279409181900360e00190a19a9950505050505050505050565b303b1590565b600054610100900460ff1680611c8f5750611c8f611c70565b80611c9d575060005460ff16155b611cd85760405162461bcd60e51b815260040180806020018281038252602e815260200180612390602e913960400191505060405180910390fd5b600054610100900460ff16158015611d03576000805460ff1961ff0019909116610100171660011790555b611d0b611f11565b8015611d1d576000805461ff00191690555b50565b600054610100900460ff1680611d395750611d39611c70565b80611d47575060005460ff16155b611d825760405162461bcd60e51b815260040180806020018281038252602e815260200180612390602e913960400191505060405180910390fd5b600054610100900460ff16158015611dad576000805460ff1961ff0019909116610100171660011790555b611d0b611fb6565b60008183611e415760405162461bcd60e51b81526004018080602001828103825283818151815260200191508051906020019080838360005b83811015611e06578181015183820152602001611dee565b50505050905090810190601f168015611e335780820380516001836020036101000a031916815260200191505b509250505060405180910390fd5b506000838581611e4d57fe5b0495945050505050565b60008184841115611ea95760405162461bcd60e51b8152602060048201818152835160248401528351909283926044909101919085019080838360008315611e06578181015183820152602001611dee565b505050900390565b604080516001600160a01b0380861660248301528416604482015260648082018490528251808303909101815260849091019091526020810180516001600160e01b03166323b872dd60e01b179052611f0b908590612069565b50505050565b600054610100900460ff1680611f2a5750611f2a611c70565b80611f38575060005460ff16155b611f735760405162461bcd60e51b815260040180806020018281038252602e815260200180612390602e913960400191505060405180910390fd5b600054610100900460ff16158015611f9e576000805460ff1961ff0019909116610100171660011790555b600180558015611d1d576000805461ff001916905550565b600054610100900460ff1680611fcf5750611fcf611c70565b80611fdd575060005460ff16155b6120185760405162461bcd60e51b815260040180806020018281038252602e815260200180612390602e913960400191505060405180910390fd5b600054610100900460ff16158015612043576000805460ff1961ff0019909116610100171660011790555b603380546001600160a01b031916331790558015611d1d576000805461ff001916905550565b60606120be826040518060400160405280602081526020017f5361666545524332303a206c6f772d6c6576656c2063616c6c206661696c6564815250856001600160a01b031661211f9092919063ffffffff16565b80519091501561211a578080602001905160208110156120dd57600080fd5b505161211a5760405162461bcd60e51b815260040180806020018281038252602a815260200180612402602a913960400191505060405180910390fd5b505050565b606061212e8484600085612136565b949350505050565b6060824710156121775760405162461bcd60e51b815260040180806020018281038252602681526020018061236a6026913960400191505060405180910390fd5b61218085612292565b6121d1576040805162461bcd60e51b815260206004820152601d60248201527f416464726573733a2063616c6c20746f206e6f6e2d636f6e7472616374000000604482015290519081900360640190fd5b60006060866001600160a01b031685876040518082805190602001908083835b602083106122105780518252601f1990920191602091820191016121f1565b6001836020036101000a03801982511681845116808217855250505050505090500191505060006040518083038185875af1925050503d8060008114612272576040519150601f19603f3d011682016040523d82523d6000602084013e612277565b606091505b5091509150612287828286612298565b979650505050505050565b3b151590565b606083156122a7575081610dc2565b8251156122b75782518084602001fd5b60405162461bcd60e51b8152602060048201818152845160248401528451859391928392604401919085019080838360008315611e06578181015183820152602001611dee56fe5265656e7472616e637947756172643a207265656e7472616e742063616c6c00486c704d616e616765723a20696e76616c6964205f636f6f6c646f776e4475726174696f6e486c704d616e616765723a20696e73756666696369656e7420555344684c50206f7574707574416464726573733a20696e73756666696369656e742062616c616e636520666f722063616c6c496e697469616c697a61626c653a20636f6e747261637420697320616c726561647920696e697469616c697a6564536166654d6174683a206d756c7469706c69636174696f6e206f766572666c6f77486c704d616e616765723a20696e73756666696369656e7420684c50206f75747075745361666545524332303a204552433230206f7065726174696f6e20646964206e6f742073756363656564486c704d616e616765723a20636f6f6c646f776e206475726174696f6e206e6f742079657420706173736564a2646970667358221220271d420911f564bfb1c2151c9c8ae87cf26cf657113fc0981a0121c458b238c964736f6c634300060c0033",
  "linkReferences": {},
  "deployedLinkReferences": {}
}