{
  "_format": "hh-sol-artifact-1",
  "contractName": "HlpManagerRouter",
  "sourceName": "contracts/core/HlpManagerRouter.sol",
  "abi": [
    {
      "inputs": [
        {
          "internalType": "address",
          "name": "_weth",
          "type": "address"
        },
        {
          "internalType": "address",
          "name": "_hlpManager",
          "type": "address"
        }
      ],
      "stateMutability": "nonpayable",
      "type": "constructor"
    },
    {
      "inputs": [
        {
          "internalType": "uint256",
          "name": "_minUsdg",
          "type": "uint256"
        },
        {
          "internalType": "uint256",
          "name": "_minGlp",
          "type": "uint256"
        },
        {
          "internalType": "bytes",
          "name": "signedQuoteData",
          "type": "bytes"
        }
      ],
      "name": "addLiquidityETH",
      "outputs": [
        {
          "internalType": "uint256",
          "name": "",
          "type": "uint256"
        }
      ],
      "stateMutability": "payable",
      "type": "function"
    },
    {
      "inputs": [],
      "name": "hlpManager",
      "outputs": [
        {
          "internalType": "address",
          "name": "",
          "type": "address"
        }
      ],
      "stateMutability": "view",
      "type": "function"
    },
    {
      "inputs": [
        {
          "internalType": "uint256",
          "name": "_glpAmount",
          "type": "uint256"
        },
        {
          "internalType": "uint256",
          "name": "_minOut",
          "type": "uint256"
        },
        {
          "internalType": "address payable",
          "name": "_receiver",
          "type": "address"
        },
        {
          "internalType": "bytes",
          "name": "signedQuoteData",
          "type": "bytes"
        }
      ],
      "name": "removeLiquidityETH",
      "outputs": [
        {
          "internalType": "uint256",
          "name": "",
          "type": "uint256"
        }
      ],
      "stateMutability": "nonpayable",
      "type": "function"
    },
    {
      "inputs": [],
      "name": "weth",
      "outputs": [
        {
          "internalType": "address",
          "name": "",
          "type": "address"
        }
      ],
      "stateMutability": "view",
      "type": "function"
    },
    {
      "stateMutability": "payable",
      "type": "receive"
    }
  ],
  "bytecode": "0x608060405234801561001057600080fd5b506040516107903803806107908339818101604052604081101561003357600080fd5b5080516020918201516001600081815581546001600160a01b038086166001600160a01b0319928316179384905560028054828716931692909217918290556040805163095ea7b360e01b815292821660048401526000196024840152519596949593169363095ea7b39360448084019492939192918390030190829087803b1580156100bf57600080fd5b505af11580156100d3573d6000803e3d6000fd5b505050506040513d60208110156100e957600080fd5b50505050610694806100fc6000396000f3fe6080604052600436106100435760003560e01c80633fc8cef3146100a757806393bbf813146100d8578063b2cef6ae14610166578063b77a8d59146101ff576100a2565b366100a2576001546001600160a01b031633146100a0576040805162461bcd60e51b81526020600482015260166024820152752937baba32b91d1034b73b30b634b21039b2b73232b960511b604482015290519081900360640190fd5b005b600080fd5b3480156100b357600080fd5b506100bc610214565b604080516001600160a01b039092168252519081900360200190f35b610154600480360360608110156100ee57600080fd5b81359160208101359181019060608101604082013564010000000081111561011557600080fd5b82018360208201111561012757600080fd5b8035906020019184600183028401116401000000008311171561014957600080fd5b509092509050610223565b60408051918252519081900360200190f35b34801561017257600080fd5b506101546004803603608081101561018957600080fd5b8135916020810135916001600160a01b0360408301351691908101906080810160608201356401000000008111156101c057600080fd5b8201836020820111156101d257600080fd5b803590602001918460018302840111640100000000831117156101f457600080fd5b509092509050610387565b34801561020b57600080fd5b506100bc6104dd565b6001546001600160a01b031681565b60006002600054141561027d576040805162461bcd60e51b815260206004820152601f60248201527f5265656e7472616e637947756172643a207265656e7472616e742063616c6c00604482015290519081900360640190fd5b60026000553415610290576102906104ec565b600254600154604051632f4b339960e01b8152306004820181815233602484018190526001600160a01b03948516604485018190523460648601819052608486018d905260a486018c905260e060c4870190815260e487018b90529690971696632f4b33999694959294919390928d928d928d928d929061010401848480828437600081840152601f19601f8201169050808301925050509950505050505050505050602060405180830381600087803b15801561034d57600080fd5b505af1158015610361573d6000803e3d6000fd5b505050506040513d602081101561037757600080fd5b5051600160005595945050505050565b6000600260005414156103e1576040805162461bcd60e51b815260206004820152601f60248201527f5265656e7472616e637947756172643a207265656e7472616e742063616c6c00604482015290519081900360640190fd5b60026000818155905460015460405163eece61c960e01b815233600482018181526001600160a01b0393841660248401819052604484018d9052606484018c9052306084850181905260c060a4860190815260c486018b9052959096169563eece61c995939491938e938e938d928d929160e401848480828437600081840152601f19601f82011690508083019250505098505050505050505050602060405180830381600087803b15801561049657600080fd5b505af11580156104aa573d6000803e3d6000fd5b505050506040513d60208110156104c057600080fd5b505190506104ce8186610557565b60016000559695505050505050565b6002546001600160a01b031681565b600160009054906101000a90046001600160a01b03166001600160a01b031663d0e30db0346040518263ffffffff1660e01b81526004016000604051808303818588803b15801561053c57600080fd5b505af1158015610550573d6000803e3d6000fd5b5050505050565b60015460408051632e1a7d4d60e01b81526004810185905290516001600160a01b0390921691632e1a7d4d9160248082019260009290919082900301818387803b1580156105a457600080fd5b505af11580156105b8573d6000803e3d6000fd5b5050604051600092506001600160a01b038416915084908381818185875af1925050503d8060008114610607576040519150601f19603f3d011682016040523d82523d6000602084013e61060c565b606091505b5050905080610659576040805162461bcd60e51b81526020600482015260146024820152732330b4b632b2103a379039b2b7321022ba3432b960611b604482015290519081900360640190fd5b50505056fea2646970667358221220611878c55a308a32cabc6e3f59734d10242d9ae85b85332d3beab1b2834efa5e64736f6c634300060c0033",
  "linkReferences": {},
  "deployedLinkReferences": {}
}