{
  "_format": "hh-sol-artifact-1",
  "contractName": "hPSM",
  "sourceName": "contracts/hPSM.sol",
  "abi": [
    {
      "inputs": [
        {
          "internalType": "contract IHandle",
          "name": "_handle",
          "type": "address"
        }
      ],
      "stateMutability": "nonpayable",
      "type": "constructor"
    },
    {
      "anonymous": false,
      "inputs": [
        {
          "indexed": true,
          "internalType": "address",
          "name": "fxToken",
          "type": "address"
        },
        {
          "indexed": true,
          "internalType": "address",
          "name": "peggedToken",
          "type": "address"
        },
        {
          "indexed": true,
          "internalType": "address",
          "name": "account",
          "type": "address"
        },
        {
          "indexed": false,
          "internalType": "uint256",
          "name": "amountIn",
          "type": "uint256"
        },
        {
          "indexed": false,
          "internalType": "uint256",
          "name": "amountOut",
          "type": "uint256"
        }
      ],
      "name": "Deposit",
      "type": "event"
    },
    {
      "anonymous": false,
      "inputs": [
        {
          "indexed": true,
          "internalType": "address",
          "name": "previousOwner",
          "type": "address"
        },
        {
          "indexed": true,
          "internalType": "address",
          "name": "newOwner",
          "type": "address"
        }
      ],
      "name": "OwnershipTransferred",
      "type": "event"
    },
    {
      "anonymous": false,
      "inputs": [
        {
          "indexed": true,
          "internalType": "address",
          "name": "fxToken",
          "type": "address"
        },
        {
          "indexed": true,
          "internalType": "address",
          "name": "peggedToken",
          "type": "address"
        },
        {
          "indexed": false,
          "internalType": "bool",
          "name": "isPegged",
          "type": "bool"
        }
      ],
      "name": "SetFxTokenPeg",
      "type": "event"
    },
    {
      "anonymous": false,
      "inputs": [
        {
          "indexed": true,
          "internalType": "address",
          "name": "token",
          "type": "address"
        },
        {
          "indexed": false,
          "internalType": "uint256",
          "name": "amount",
          "type": "uint256"
        }
      ],
      "name": "SetMaximumTokenDeposit",
      "type": "event"
    },
    {
      "anonymous": false,
      "inputs": [
        {
          "indexed": false,
          "internalType": "bool",
          "name": "isPaused",
          "type": "bool"
        }
      ],
      "name": "SetPauseDeposits",
      "type": "event"
    },
    {
      "anonymous": false,
      "inputs": [
        {
          "indexed": false,
          "internalType": "uint256",
          "name": "fee",
          "type": "uint256"
        }
      ],
      "name": "SetTransactionFee",
      "type": "event"
    },
    {
      "anonymous": false,
      "inputs": [
        {
          "indexed": true,
          "internalType": "address",
          "name": "fxToken",
          "type": "address"
        },
        {
          "indexed": true,
          "internalType": "address",
          "name": "peggedToken",
          "type": "address"
        },
        {
          "indexed": true,
          "internalType": "address",
          "name": "account",
          "type": "address"
        },
        {
          "indexed": false,
          "internalType": "uint256",
          "name": "amountIn",
          "type": "uint256"
        },
        {
          "indexed": false,
          "internalType": "uint256",
          "name": "amountOut",
          "type": "uint256"
        }
      ],
      "name": "Withdraw",
      "type": "event"
    },
    {
      "inputs": [
        {
          "internalType": "address",
          "name": "",
          "type": "address"
        }
      ],
      "name": "accruedFees",
      "outputs": [
        {
          "internalType": "uint256",
          "name": "",
          "type": "uint256"
        }
      ],
      "stateMutability": "view",
      "type": "function"
    },
    {
      "inputs": [],
      "name": "areDepositsPaused",
      "outputs": [
        {
          "internalType": "bool",
          "name": "",
          "type": "bool"
        }
      ],
      "stateMutability": "view",
      "type": "function"
    },
    {
      "inputs": [
        {
          "internalType": "address",
          "name": "",
          "type": "address"
        }
      ],
      "name": "collateralCap",
      "outputs": [
        {
          "internalType": "uint256",
          "name": "",
          "type": "uint256"
        }
      ],
      "stateMutability": "view",
      "type": "function"
    },
    {
      "inputs": [
        {
          "internalType": "address",
          "name": "collateralToken",
          "type": "address"
        }
      ],
      "name": "collectAccruedFees",
      "outputs": [],
      "stateMutability": "nonpayable",
      "type": "function"
    },
    {
      "inputs": [
        {
          "internalType": "address",
          "name": "fxTokenAddress",
          "type": "address"
        },
        {
          "internalType": "address",
          "name": "peggedTokenAddress",
          "type": "address"
        },
        {
          "internalType": "uint256",
          "name": "amount",
          "type": "uint256"
        }
      ],
      "name": "deposit",
      "outputs": [],
      "stateMutability": "nonpayable",
      "type": "function"
    },
    {
      "inputs": [
        {
          "internalType": "address",
          "name": "",
          "type": "address"
        },
        {
          "internalType": "address",
          "name": "",
          "type": "address"
        }
      ],
      "name": "fxTokenDeposits",
      "outputs": [
        {
          "internalType": "uint256",
          "name": "",
          "type": "uint256"
        }
      ],
      "stateMutability": "view",
      "type": "function"
    },
    {
      "inputs": [],
      "name": "handle",
      "outputs": [
        {
          "internalType": "contract IHandle",
          "name": "",
          "type": "address"
        }
      ],
      "stateMutability": "view",
      "type": "function"
    },
    {
      "inputs": [
        {
          "internalType": "address",
          "name": "",
          "type": "address"
        },
        {
          "internalType": "address",
          "name": "",
          "type": "address"
        }
      ],
      "name": "isFxTokenPegged",
      "outputs": [
        {
          "internalType": "bool",
          "name": "",
          "type": "bool"
        }
      ],
      "stateMutability": "view",
      "type": "function"
    },
    {
      "inputs": [],
      "name": "owner",
      "outputs": [
        {
          "internalType": "address",
          "name": "",
          "type": "address"
        }
      ],
      "stateMutability": "view",
      "type": "function"
    },
    {
      "inputs": [],
      "name": "renounceOwnership",
      "outputs": [],
      "stateMutability": "nonpayable",
      "type": "function"
    },
    {
      "inputs": [
        {
          "internalType": "address",
          "name": "peggedToken",
          "type": "address"
        },
        {
          "internalType": "uint256",
          "name": "capWithPeggedTokenDecimals",
          "type": "uint256"
        }
      ],
      "name": "setCollateralCap",
      "outputs": [],
      "stateMutability": "nonpayable",
      "type": "function"
    },
    {
      "inputs": [
        {
          "internalType": "address",
          "name": "fxTokenAddress",
          "type": "address"
        },
        {
          "internalType": "address",
          "name": "peggedTokenAddress",
          "type": "address"
        },
        {
          "internalType": "bool",
          "name": "isPegged",
          "type": "bool"
        }
      ],
      "name": "setFxTokenPeg",
      "outputs": [],
      "stateMutability": "nonpayable",
      "type": "function"
    },
    {
      "inputs": [
        {
          "internalType": "bool",
          "name": "isPaused",
          "type": "bool"
        }
      ],
      "name": "setPausedDeposits",
      "outputs": [],
      "stateMutability": "nonpayable",
      "type": "function"
    },
    {
      "inputs": [
        {
          "internalType": "uint256",
          "name": "fee",
          "type": "uint256"
        }
      ],
      "name": "setTransactionFee",
      "outputs": [],
      "stateMutability": "nonpayable",
      "type": "function"
    },
    {
      "inputs": [],
      "name": "transactionFee",
      "outputs": [
        {
          "internalType": "uint256",
          "name": "",
          "type": "uint256"
        }
      ],
      "stateMutability": "view",
      "type": "function"
    },
    {
      "inputs": [
        {
          "internalType": "address",
          "name": "newOwner",
          "type": "address"
        }
      ],
      "name": "transferOwnership",
      "outputs": [],
      "stateMutability": "nonpayable",
      "type": "function"
    },
    {
      "inputs": [
        {
          "internalType": "address",
          "name": "fxTokenAddress",
          "type": "address"
        },
        {
          "internalType": "address",
          "name": "peggedTokenAddress",
          "type": "address"
        },
        {
          "internalType": "uint256",
          "name": "amount",
          "type": "uint256"
        }
      ],
      "name": "withdraw",
      "outputs": [],
      "stateMutability": "nonpayable",
      "type": "function"
    }
  ],
  "bytecode": "0x60a06040523480156200001157600080fd5b5060405162001dd538038062001dd5833981016040819052620000349162000117565b6200003f33620000c7565b6001600160a01b0381166200009a5760405162461bcd60e51b815260206004820152601a60248201527f50534d3a2068616e646c652063616e6e6f74206265206e756c6c000000000000604482015260640160405180910390fd5b3060601b608052600180546001600160a01b0319166001600160a01b039290921691909117905562000147565b600080546001600160a01b038381166001600160a01b0319831681178455604051919092169283917f8be0079c531659141344cd1fd0a4f28419497f9722a3daafe3b4186f6b6457e09190a35050565b60006020828403121562000129578081fd5b81516001600160a01b038116811462000140578182fd5b9392505050565b60805160601c611c5362000182600039600081816105570152818161064401528181610b6b01528181610d570152610f020152611c536000f3fe608060405234801561001057600080fd5b506004361061010b5760003560e01c80638da5cb5b116100a2578063c8c70fa411610071578063c8c70fa414610263578063d9caed1214610276578063f209761114610289578063f2fde38b14610296578063fd0da099146102a95761010b565b80638da5cb5b1461020f5780639ed3edf014610234578063b682bcf81461023d578063c8799236146102505761010b565b8063451e8739116100de578063451e8739146101c1578063715018a6146101e157806379b04ee6146101e95780638340f549146101fc5761010b565b80630731128314610110578063096a8ab7146101435780631c8ad6b3146101585780633185115514610196575b600080fd5b61013061011e366004611802565b60046020526000908152604090205481565b6040519081526020015b60405180910390f35b610156610151366004611948565b6102bc565b005b61018661016636600461181c565b600560209081526000928352604080842090915290825290205460ff1681565b604051901515815260200161013a565b6101306101a436600461181c565b600660209081526000928352604080842090915290825290205481565b6101306101cf366004611802565b60036020526000908152604090205481565b610156610382565b6101566101f73660046118f8565b6103b8565b61015661020a366004611894565b610423565b6000546001600160a01b03165b6040516001600160a01b03909116815260200161013a565b61013060025481565b61015661024b3660046118cf565b6107d6565b61015661025e366004611802565b610859565b61015661027136600461184e565b610991565b610156610284366004611894565b610e12565b6007546101869060ff1681565b6101566102a4366004611802565b61120b565b60015461021c906001600160a01b031681565b6000546001600160a01b031633146102ef5760405162461bcd60e51b81526004016102e6906119d0565b60405180910390fd5b670de0b6b3a764000081106103465760405162461bcd60e51b815260206004820152601760248201527f50534d3a20666565206d757374206265203c203130302500000000000000000060448201526064016102e6565b60028190556040518181527fd8b4383ece9fe3771d3a68939ee19091d4f39f7b3f24c0c74e6af38fc564ca9d906020015b60405180910390a150565b6000546001600160a01b031633146103ac5760405162461bcd60e51b81526004016102e6906119d0565b6103b660006112a6565b565b6000546001600160a01b031633146103e25760405162461bcd60e51b81526004016102e6906119d0565b6007805460ff19168215159081179091556040519081527f5801dab134033ee018ad008b05754b8cc6d890ae5a4a523da2bf7e9e00dba43390602001610377565b60075460ff16156104765760405162461bcd60e51b815260206004820152601860248201527f50534d3a206465706f736974732061726520706175736564000000000000000060448201526064016102e6565b6001600160a01b0380841660009081526005602090815260408083209386168352929052205460ff166104bb5760405162461bcd60e51b81526004016102e690611a05565b6000811161050b5760405162461bcd60e51b815260206004820152601760248201527f50534d3a20616d6f756e74206d757374206265203e203000000000000000000060448201526064016102e6565b6001600160a01b038216600090815260036020526040902054829015806105e857506001600160a01b03838116600090815260036020526040908190205490516370a0823160e01b81527f00000000000000000000000000000000000000000000000000000000000000008316600482015290918316906370a082319060240160206040518083038186803b1580156105a357600080fd5b505afa1580156105b7573d6000803e3d6000fd5b505050506040513d601f19601f820116820180604052508101906105db9190611930565b6105e59084611a4b565b11155b6106345760405162461bcd60e51b815260206004820152601c60248201527f50534d3a20636f6c6c61746572616c206361702065786365656465640000000060448201526064016102e6565b6106696001600160a01b038216337f0000000000000000000000000000000000000000000000000000000000000000856112f6565b6000610676848685611367565b90506000610683826114cd565b9050600081116106d55760405162461bcd60e51b815260206004820152601b60248201527f50534d3a2070726576656e746564206e696c207472616e73666572000000000060448201526064016102e6565b6106e885856106e3876114cd565b61150a565b6001600160a01b0380871660009081526006602090815260408083209389168352929052908120805486929061071f908490611a4b565b90915550506040516340c10f1960e01b8152336004820152602481018290526001600160a01b038716906340c10f1990604401600060405180830381600087803b15801561076c57600080fd5b505af1158015610780573d6000803e3d6000fd5b505060408051878152602081018590523393506001600160a01b0389811693508a16917f5fe47ed6d4225326d3303476197d782ded5a4e9c14f479dc9ec4992af4e85d59910160405180910390a4505050505050565b6000546001600160a01b031633146108005760405162461bcd60e51b81526004016102e6906119d0565b6001600160a01b03821660008181526003602052604090819020839055517fbb1a4e1e40f82a148aeeb3564f9fb2640f76a1bc64fa6406534871a3c62e64d89061084d9084815260200190565b60405180910390a25050565b6000546001600160a01b031633146108835760405162461bcd60e51b81526004016102e6906119d0565b6001600160a01b038116600090815260046020526040902054806108df5760405162461bcd60e51b81526020600482015260136024820152721414d34e881b9bc8199959481858d8dc9d585b606a1b60448201526064016102e6565b60405163a9059cbb60e01b8152336004820152602481018290526001600160a01b0383169063a9059cbb90604401602060405180830381600087803b15801561092757600080fd5b505af115801561093b573d6000803e3d6000fd5b505050506040513d601f19601f8201168201806040525081019061095f9190611914565b506001600160a01b03821660009081526004602052604081208054839290610988908490611bb6565b90915550505050565b6000546001600160a01b031633146109bb5760405162461bcd60e51b81526004016102e6906119d0565b6001600160a01b03808416600090815260056020908152604080832093861683529290522054839060ff1615158215151415610a0757634e487b7160e01b600052600160045260246000fd5b60015460405163a0f026ff60e01b81526001600160a01b0386811660048301529091169063a0f026ff9060240160206040518083038186803b158015610a4c57600080fd5b505afa158015610a60573d6000803e3d6000fd5b505050506040513d601f19601f82011682018060405250810190610a849190611914565b610ad05760405162461bcd60e51b815260206004820152601860248201527f50534d3a206e6f7420612076616c6964206678546f6b656e000000000000000060448201526064016102e6565b6000816001600160a01b031663f5b541a66040518163ffffffff1660e01b815260040160206040518083038186803b158015610b0b57600080fd5b505afa158015610b1f573d6000803e3d6000fd5b505050506040513d601f19601f82011682018060405250810190610b439190611930565b9050821580610bed5750604051632474521560e21b8152600481018290526001600160a01b037f0000000000000000000000000000000000000000000000000000000000000000811660248301528316906391d148549060440160206040518083038186803b158015610bb557600080fd5b505afa158015610bc9573d6000803e3d6000fd5b505050506040513d601f19601f82011682018060405250810190610bed9190611914565b610c395760405162461bcd60e51b815260206004820152601c60248201527f50534d3a206e6f7420616e206678546f6b656e206f70657261746f720000000060448201526064016102e6565b60015460405163a0f026ff60e01b81526001600160a01b0386811660048301529091169063a0f026ff9060240160206040518083038186803b158015610c7e57600080fd5b505afa158015610c92573d6000803e3d6000fd5b505050506040513d601f19601f82011682018060405250810190610cb69190611914565b15610d035760405162461bcd60e51b815260206004820152601a60248201527f50534d3a206e6f7420612076616c69642070656720746f6b656e00000000000060448201526064016102e6565b6001600160a01b038581166000908152600560209081526040808320938816835292905220805460ff191684151517905582610dbc57604051631b2b455f60e11b8152600481018290526001600160a01b037f0000000000000000000000000000000000000000000000000000000000000000811660248301528316906336568abe90604401600060405180830381600087803b158015610da357600080fd5b505af1158015610db7573d6000803e3d6000fd5b505050505b836001600160a01b0316856001600160a01b03167ff7cfc2fda8a02c03265c5c51b78defac81b3f308d8e5e1fcc51ff69feb1eab5b85604051610e03911515815260200190565b60405180910390a35050505050565b6001600160a01b0380841660009081526005602090815260408083209386168352929052205460ff16610e575760405162461bcd60e51b81526004016102e690611a05565b816000610e65858385611367565b60075490915060ff161580610e9f57506001600160a01b038086166000908152600660209081526040808320938816835292905220548111155b610eeb5760405162461bcd60e51b815260206004820152601a60248201527f50534d3a20706175736564202b206e6f206c697175696469747900000000000060448201526064016102e6565b6040516370a0823160e01b81526001600160a01b037f0000000000000000000000000000000000000000000000000000000000000000811660048301528291908416906370a082319060240160206040518083038186803b158015610f4f57600080fd5b505afa158015610f63573d6000803e3d6000fd5b505050506040513d601f19601f82011682018060405250810190610f879190611930565b1015610fd55760405162461bcd60e51b815260206004820152601d60248201527f50534d3a20636f6e7472616374206c61636b73206c697175696469747900000060448201526064016102e6565b6040516370a0823160e01b8152336004820152859084906001600160a01b038316906370a082319060240160206040518083038186803b15801561101857600080fd5b505afa15801561102c573d6000803e3d6000fd5b505050506040513d601f19601f820116820180604052508101906110509190611930565b101561109e5760405162461bcd60e51b815260206004820152601c60248201527f50534d3a20696e73756666696369656e742066782062616c616e63650000000060448201526064016102e6565b604051632770a7eb60e21b8152336004820152602481018590526001600160a01b03821690639dc29fac90604401600060405180830381600087803b1580156110e657600080fd5b505af11580156110fa573d6000803e3d6000fd5b505050506000611109836114cd565b90506000811161115b5760405162461bcd60e51b815260206004820152601b60248201527f50534d3a2070726576656e746564206e696c207472616e73666572000000000060448201526064016102e6565b61116686848361150a565b6001600160a01b038088166000908152600660209081526040808320938a168352929052908120805485929061119d908490611bb6565b909155506111b790506001600160a01b0385163383611571565b604080518681526020810183905233916001600160a01b0389811692908b16917ffbde797d201c681b91056529119e0b02407c7bb96a4a2c75c01fc9667232c8db910160405180910390a450505050505050565b6000546001600160a01b031633146112355760405162461bcd60e51b81526004016102e6906119d0565b6001600160a01b03811661129a5760405162461bcd60e51b815260206004820152602660248201527f4f776e61626c653a206e6577206f776e657220697320746865207a65726f206160448201526564647265737360d01b60648201526084016102e6565b6112a3816112a6565b50565b600080546001600160a01b038381166001600160a01b0319831681178455604051919092169283917f8be0079c531659141344cd1fd0a4f28419497f9722a3daafe3b4186f6b6457e09190a35050565b6040516001600160a01b03808516602483015283166044820152606481018290526113619085906323b872dd60e01b906084015b60408051601f198184030181529190526020810180516001600160e01b03166001600160e01b0319909316929092179091526115a1565b50505050565b600080846001600160a01b031663313ce5676040518163ffffffff1660e01b815260040160206040518083038186803b1580156113a357600080fd5b505afa1580156113b7573d6000803e3d6000fd5b505050506040513d601f19601f820116820180604052508101906113db9190611960565b60ff1690506000846001600160a01b031663313ce5676040518163ffffffff1660e01b815260040160206040518083038186803b15801561141b57600080fd5b505afa15801561142f573d6000803e3d6000fd5b505050506040513d601f19601f820116820180604052508101906114539190611960565b60ff1690508082141561146a5783925050506114c6565b60008183111561149f5761147e8284611bb6565b905061148b81600a611ac9565b6114959086611a63565b93505050506114c6565b6114a98383611bb6565b90506114b681600a611ac9565b6114c09086611b97565b93505050505b9392505050565b6000670de0b6b3a7640000600254670de0b6b3a76400006114ee9190611bb6565b6114f89084611b97565b6115029190611a63565b90505b919050565b818114156115175761156c565b81811061153457634e487b7160e01b600052600160045260246000fd5b61153e8183611bb6565b6001600160a01b03841660009081526004602052604081208054909190611566908490611a4b565b90915550505b505050565b6040516001600160a01b03831660248201526044810182905261156c90849063a9059cbb60e01b9060640161132a565b60006115f6826040518060400160405280602081526020017f5361666545524332303a206c6f772d6c6576656c2063616c6c206661696c6564815250856001600160a01b03166116739092919063ffffffff16565b80519091501561156c57808060200190518101906116149190611914565b61156c5760405162461bcd60e51b815260206004820152602a60248201527f5361666545524332303a204552433230206f7065726174696f6e20646964206e6044820152691bdd081cdd58d8d9595960b21b60648201526084016102e6565b6060611682848460008561168a565b949350505050565b6060824710156116eb5760405162461bcd60e51b815260206004820152602660248201527f416464726573733a20696e73756666696369656e742062616c616e636520666f6044820152651c8818d85b1b60d21b60648201526084016102e6565b843b6117395760405162461bcd60e51b815260206004820152601d60248201527f416464726573733a2063616c6c20746f206e6f6e2d636f6e747261637400000060448201526064016102e6565b600080866001600160a01b031685876040516117559190611981565b60006040518083038185875af1925050503d8060008114611792576040519150601f19603f3d011682016040523d82523d6000602084013e611797565b606091505b50915091506117a78282866117b2565b979650505050505050565b606083156117c15750816114c6565b8251156117d15782518084602001fd5b8160405162461bcd60e51b81526004016102e6919061199d565b80356001600160a01b038116811461150557600080fd5b600060208284031215611813578081fd5b6114c6826117eb565b6000806040838503121561182e578081fd5b611837836117eb565b9150611845602084016117eb565b90509250929050565b600080600060608486031215611862578081fd5b61186b846117eb565b9250611879602085016117eb565b9150604084013561188981611c0f565b809150509250925092565b6000806000606084860312156118a8578283fd5b6118b1846117eb565b92506118bf602085016117eb565b9150604084013590509250925092565b600080604083850312156118e1578182fd5b6118ea836117eb565b946020939093013593505050565b600060208284031215611909578081fd5b81356114c681611c0f565b600060208284031215611925578081fd5b81516114c681611c0f565b600060208284031215611941578081fd5b5051919050565b600060208284031215611959578081fd5b5035919050565b600060208284031215611971578081fd5b815160ff811681146114c6578182fd5b60008251611993818460208701611bcd565b9190910192915050565b60006020825282518060208401526119bc816040850160208701611bcd565b601f01601f19169190910160400192915050565b6020808252818101527f4f776e61626c653a2063616c6c6572206973206e6f7420746865206f776e6572604082015260600190565b60208082526026908201527f50534d3a206678546f6b656e206e6f742070656767656420746f207065676765604082015265322a37b5b2b760d11b606082015260800190565b60008219821115611a5e57611a5e611bf9565b500190565b600082611a7e57634e487b7160e01b81526012600452602481fd5b500490565b80825b6001808611611a955750611ac0565b818704821115611aa757611aa7611bf9565b80861615611ab457918102915b9490941c938002611a86565b94509492505050565b60006114c66000198484600082611ae2575060016114c6565b81611aef575060006114c6565b8160018114611b055760028114611b0f57611b3c565b60019150506114c6565b60ff841115611b2057611b20611bf9565b6001841b915084821115611b3657611b36611bf9565b506114c6565b5060208310610133831016604e8410600b8410161715611b6f575081810a83811115611b6a57611b6a611bf9565b6114c6565b611b7c8484846001611a83565b808604821115611b8e57611b8e611bf9565b02949350505050565b6000816000190483118215151615611bb157611bb1611bf9565b500290565b600082821015611bc857611bc8611bf9565b500390565b60005b83811015611be8578181015183820152602001611bd0565b838111156113615750506000910152565b634e487b7160e01b600052601160045260246000fd5b80151581146112a357600080fdfea26469706673582212207151b06219e5d00226e541811bc7904ebc69b940a7a2bfc8caf3d60d00ea6e3d64736f6c63430008030033",
  "linkReferences": {},
  "deployedLinkReferences": {}
}