{
  "_format": "hh-sol-artifact-1",
  "contractName": "Router",
  "sourceName": "contracts/core/Router.sol",
  "abi": [
    {
      "inputs": [
        {
          "internalType": "address",
          "name": "_vault",
          "type": "address"
        },
        {
          "internalType": "address",
          "name": "_usdg",
          "type": "address"
        },
        {
          "internalType": "address",
          "name": "_weth",
          "type": "address"
        }
      ],
      "stateMutability": "nonpayable",
      "type": "constructor"
    },
    {
      "anonymous": false,
      "inputs": [
        {
          "indexed": false,
          "internalType": "address",
          "name": "account",
          "type": "address"
        },
        {
          "indexed": false,
          "internalType": "address",
          "name": "tokenIn",
          "type": "address"
        },
        {
          "indexed": false,
          "internalType": "address",
          "name": "tokenOut",
          "type": "address"
        },
        {
          "indexed": false,
          "internalType": "uint256",
          "name": "amountIn",
          "type": "uint256"
        },
        {
          "indexed": false,
          "internalType": "uint256",
          "name": "amountOut",
          "type": "uint256"
        }
      ],
      "name": "Swap",
      "type": "event"
    },
    {
      "inputs": [
        {
          "internalType": "address",
          "name": "_plugin",
          "type": "address"
        }
      ],
      "name": "addPlugin",
      "outputs": [],
      "stateMutability": "nonpayable",
      "type": "function"
    },
    {
      "inputs": [
        {
          "internalType": "address",
          "name": "_plugin",
          "type": "address"
        }
      ],
      "name": "approvePlugin",
      "outputs": [],
      "stateMutability": "nonpayable",
      "type": "function"
    },
    {
      "inputs": [
        {
          "internalType": "address",
          "name": "",
          "type": "address"
        },
        {
          "internalType": "address",
          "name": "",
          "type": "address"
        }
      ],
      "name": "approvedPlugins",
      "outputs": [
        {
          "internalType": "bool",
          "name": "",
          "type": "bool"
        }
      ],
      "stateMutability": "view",
      "type": "function"
    },
    {
      "inputs": [
        {
          "internalType": "address",
          "name": "_collateralToken",
          "type": "address"
        },
        {
          "internalType": "address",
          "name": "_indexToken",
          "type": "address"
        },
        {
          "internalType": "uint256",
          "name": "_collateralDelta",
          "type": "uint256"
        },
        {
          "internalType": "uint256",
          "name": "_sizeDelta",
          "type": "uint256"
        },
        {
          "internalType": "bool",
          "name": "_isLong",
          "type": "bool"
        },
        {
          "internalType": "address",
          "name": "_receiver",
          "type": "address"
        },
        {
          "internalType": "uint256",
          "name": "_price",
          "type": "uint256"
        },
        {
          "internalType": "bytes",
          "name": "signedQuoteData",
          "type": "bytes"
        }
      ],
      "name": "decreasePosition",
      "outputs": [],
      "stateMutability": "nonpayable",
      "type": "function"
    },
    {
      "inputs": [
        {
          "internalType": "address[]",
          "name": "_path",
          "type": "address[]"
        },
        {
          "internalType": "address",
          "name": "_indexToken",
          "type": "address"
        },
        {
          "internalType": "uint256",
          "name": "_collateralDelta",
          "type": "uint256"
        },
        {
          "internalType": "uint256",
          "name": "_sizeDelta",
          "type": "uint256"
        },
        {
          "internalType": "bool",
          "name": "_isLong",
          "type": "bool"
        },
        {
          "internalType": "address",
          "name": "_receiver",
          "type": "address"
        },
        {
          "internalType": "uint256",
          "name": "_price",
          "type": "uint256"
        },
        {
          "internalType": "uint256",
          "name": "_minOut",
          "type": "uint256"
        },
        {
          "internalType": "bytes",
          "name": "signedQuoteData",
          "type": "bytes"
        }
      ],
      "name": "decreasePositionAndSwap",
      "outputs": [],
      "stateMutability": "nonpayable",
      "type": "function"
    },
    {
      "inputs": [
        {
          "internalType": "address[]",
          "name": "_path",
          "type": "address[]"
        },
        {
          "internalType": "address",
          "name": "_indexToken",
          "type": "address"
        },
        {
          "internalType": "uint256",
          "name": "_collateralDelta",
          "type": "uint256"
        },
        {
          "internalType": "uint256",
          "name": "_sizeDelta",
          "type": "uint256"
        },
        {
          "internalType": "bool",
          "name": "_isLong",
          "type": "bool"
        },
        {
          "internalType": "address payable",
          "name": "_receiver",
          "type": "address"
        },
        {
          "internalType": "uint256",
          "name": "_price",
          "type": "uint256"
        },
        {
          "internalType": "uint256",
          "name": "_minOut",
          "type": "uint256"
        },
        {
          "internalType": "bytes",
          "name": "signedQuoteData",
          "type": "bytes"
        }
      ],
      "name": "decreasePositionAndSwapETH",
      "outputs": [],
      "stateMutability": "nonpayable",
      "type": "function"
    },
    {
      "inputs": [
        {
          "internalType": "address",
          "name": "_collateralToken",
          "type": "address"
        },
        {
          "internalType": "address",
          "name": "_indexToken",
          "type": "address"
        },
        {
          "internalType": "uint256",
          "name": "_collateralDelta",
          "type": "uint256"
        },
        {
          "internalType": "uint256",
          "name": "_sizeDelta",
          "type": "uint256"
        },
        {
          "internalType": "bool",
          "name": "_isLong",
          "type": "bool"
        },
        {
          "internalType": "address payable",
          "name": "_receiver",
          "type": "address"
        },
        {
          "internalType": "uint256",
          "name": "_price",
          "type": "uint256"
        },
        {
          "internalType": "bytes",
          "name": "signedQuoteData",
          "type": "bytes"
        }
      ],
      "name": "decreasePositionETH",
      "outputs": [],
      "stateMutability": "nonpayable",
      "type": "function"
    },
    {
      "inputs": [
        {
          "internalType": "address",
          "name": "_plugin",
          "type": "address"
        }
      ],
      "name": "denyPlugin",
      "outputs": [],
      "stateMutability": "nonpayable",
      "type": "function"
    },
    {
      "inputs": [
        {
          "internalType": "address",
          "name": "_token",
          "type": "address"
        },
        {
          "internalType": "uint256",
          "name": "_amount",
          "type": "uint256"
        }
      ],
      "name": "directPoolDeposit",
      "outputs": [],
      "stateMutability": "nonpayable",
      "type": "function"
    },
    {
      "inputs": [],
      "name": "gov",
      "outputs": [
        {
          "internalType": "address",
          "name": "",
          "type": "address"
        }
      ],
      "stateMutability": "view",
      "type": "function"
    },
    {
      "inputs": [
        {
          "internalType": "address[]",
          "name": "_path",
          "type": "address[]"
        },
        {
          "internalType": "address",
          "name": "_indexToken",
          "type": "address"
        },
        {
          "internalType": "uint256",
          "name": "_amountIn",
          "type": "uint256"
        },
        {
          "internalType": "uint256",
          "name": "_minOut",
          "type": "uint256"
        },
        {
          "internalType": "uint256",
          "name": "_sizeDelta",
          "type": "uint256"
        },
        {
          "internalType": "bool",
          "name": "_isLong",
          "type": "bool"
        },
        {
          "internalType": "uint256",
          "name": "_price",
          "type": "uint256"
        },
        {
          "internalType": "bytes",
          "name": "signedQuoteData",
          "type": "bytes"
        }
      ],
      "name": "increasePosition",
      "outputs": [],
      "stateMutability": "nonpayable",
      "type": "function"
    },
    {
      "inputs": [
        {
          "internalType": "address[]",
          "name": "_path",
          "type": "address[]"
        },
        {
          "internalType": "address",
          "name": "_indexToken",
          "type": "address"
        },
        {
          "internalType": "uint256",
          "name": "_minOut",
          "type": "uint256"
        },
        {
          "internalType": "uint256",
          "name": "_sizeDelta",
          "type": "uint256"
        },
        {
          "internalType": "bool",
          "name": "_isLong",
          "type": "bool"
        },
        {
          "internalType": "uint256",
          "name": "_price",
          "type": "uint256"
        },
        {
          "internalType": "bytes",
          "name": "signedQuoteData",
          "type": "bytes"
        }
      ],
      "name": "increasePositionETH",
      "outputs": [],
      "stateMutability": "payable",
      "type": "function"
    },
    {
      "inputs": [
        {
          "internalType": "address",
          "name": "_account",
          "type": "address"
        },
        {
          "internalType": "address",
          "name": "_collateralToken",
          "type": "address"
        },
        {
          "internalType": "address",
          "name": "_indexToken",
          "type": "address"
        },
        {
          "internalType": "uint256",
          "name": "_collateralDelta",
          "type": "uint256"
        },
        {
          "internalType": "uint256",
          "name": "_sizeDelta",
          "type": "uint256"
        },
        {
          "internalType": "bool",
          "name": "_isLong",
          "type": "bool"
        },
        {
          "internalType": "address",
          "name": "_receiver",
          "type": "address"
        }
      ],
      "name": "pluginDecreasePosition",
      "outputs": [
        {
          "internalType": "uint256",
          "name": "",
          "type": "uint256"
        }
      ],
      "stateMutability": "nonpayable",
      "type": "function"
    },
    {
      "inputs": [
        {
          "internalType": "address",
          "name": "_account",
          "type": "address"
        },
        {
          "internalType": "address",
          "name": "_collateralToken",
          "type": "address"
        },
        {
          "internalType": "address",
          "name": "_indexToken",
          "type": "address"
        },
        {
          "internalType": "uint256",
          "name": "_sizeDelta",
          "type": "uint256"
        },
        {
          "internalType": "bool",
          "name": "_isLong",
          "type": "bool"
        }
      ],
      "name": "pluginIncreasePosition",
      "outputs": [],
      "stateMutability": "nonpayable",
      "type": "function"
    },
    {
      "inputs": [
        {
          "internalType": "address",
          "name": "_token",
          "type": "address"
        },
        {
          "internalType": "address",
          "name": "_account",
          "type": "address"
        },
        {
          "internalType": "address",
          "name": "_receiver",
          "type": "address"
        },
        {
          "internalType": "uint256",
          "name": "_amount",
          "type": "uint256"
        }
      ],
      "name": "pluginTransfer",
      "outputs": [],
      "stateMutability": "nonpayable",
      "type": "function"
    },
    {
      "inputs": [
        {
          "internalType": "address",
          "name": "",
          "type": "address"
        }
      ],
      "name": "plugins",
      "outputs": [
        {
          "internalType": "bool",
          "name": "",
          "type": "bool"
        }
      ],
      "stateMutability": "view",
      "type": "function"
    },
    {
      "inputs": [
        {
          "internalType": "address",
          "name": "_plugin",
          "type": "address"
        }
      ],
      "name": "removePlugin",
      "outputs": [],
      "stateMutability": "nonpayable",
      "type": "function"
    },
    {
      "inputs": [
        {
          "internalType": "address",
          "name": "_gov",
          "type": "address"
        }
      ],
      "name": "setGov",
      "outputs": [],
      "stateMutability": "nonpayable",
      "type": "function"
    },
    {
      "inputs": [
        {
          "internalType": "address[]",
          "name": "_path",
          "type": "address[]"
        },
        {
          "internalType": "uint256",
          "name": "_amountIn",
          "type": "uint256"
        },
        {
          "internalType": "uint256",
          "name": "_minOut",
          "type": "uint256"
        },
        {
          "internalType": "address",
          "name": "_receiver",
          "type": "address"
        },
        {
          "internalType": "bytes",
          "name": "signedQuoteData",
          "type": "bytes"
        }
      ],
      "name": "swap",
      "outputs": [],
      "stateMutability": "nonpayable",
      "type": "function"
    },
    {
      "inputs": [
        {
          "internalType": "address[]",
          "name": "_path",
          "type": "address[]"
        },
        {
          "internalType": "uint256",
          "name": "_minOut",
          "type": "uint256"
        },
        {
          "internalType": "address",
          "name": "_receiver",
          "type": "address"
        },
        {
          "internalType": "bytes",
          "name": "signedQuoteData",
          "type": "bytes"
        }
      ],
      "name": "swapETHToTokens",
      "outputs": [],
      "stateMutability": "payable",
      "type": "function"
    },
    {
      "inputs": [
        {
          "internalType": "address[]",
          "name": "_path",
          "type": "address[]"
        },
        {
          "internalType": "uint256",
          "name": "_amountIn",
          "type": "uint256"
        },
        {
          "internalType": "uint256",
          "name": "_minOut",
          "type": "uint256"
        },
        {
          "internalType": "address payable",
          "name": "_receiver",
          "type": "address"
        },
        {
          "internalType": "bytes",
          "name": "signedQuoteData",
          "type": "bytes"
        }
      ],
      "name": "swapTokensToETH",
      "outputs": [],
      "stateMutability": "nonpayable",
      "type": "function"
    },
    {
      "inputs": [],
      "name": "usdg",
      "outputs": [
        {
          "internalType": "address",
          "name": "",
          "type": "address"
        }
      ],
      "stateMutability": "view",
      "type": "function"
    },
    {
      "inputs": [],
      "name": "vault",
      "outputs": [
        {
          "internalType": "address",
          "name": "",
          "type": "address"
        }
      ],
      "stateMutability": "view",
      "type": "function"
    },
    {
      "inputs": [],
      "name": "weth",
      "outputs": [
        {
          "internalType": "address",
          "name": "",
          "type": "address"
        }
      ],
      "stateMutability": "view",
      "type": "function"
    },
    {
      "stateMutability": "payable",
      "type": "receive"
    }
  ],
  "bytecode": "0x60806040523480156200001157600080fd5b50604051620031aa380380620031aa833981810160405260608110156200003757600080fd5b50805160208201516040909201519091906001600160a01b038316158015906200006957506001600160a01b03821615155b80156200007e57506001600160a01b03811615155b620000d0576040805162461bcd60e51b815260206004820152601860248201527f4164647265737365732063616e6e6f74206265207a65726f0000000000000000604482015290519081900360640190fd5b600380546001600160a01b039485166001600160a01b03199182161790915560028054938516938216939093179092556001805491909316908216179091556000805490911633179055613080806200012a6000396000f3fe60806040526004361061014f5760003560e01c806390b64ad3116100b6578063d8867fc81161006f578063d8867fc814610abd578063daffc8ec14610af0578063e8d91a3a14610c28578063f060febd14610ce1578063f5b91b7b14610e19578063fbfa77cf14610e2e576101ae565b806390b64ad314610898578063956f285e146108d1578063a4d95b641461090c578063cccc6e051461093f578063cedd437514610a57578063cfad57a214610a8a576101ae565b80632662166b116101085780632662166b146105d857806338c74dd91461064b5780633fc8cef31461067e578063481e17e3146106935780634b12e643146107985780634f6970d9146107df576101ae565b80630dde87fd146101b357806310a52316146102cb57806312d43a51146103f75780631b827878146104285780631f1dd1761461047157806325ecda9a146104c2576101ae565b366101ae576001546001600160a01b031633146101ac576040805162461bcd60e51b81526020600482015260166024820152752937baba32b91d1034b73b30b634b21039b2b73232b960511b604482015290519081900360640190fd5b005b600080fd5b3480156101bf57600080fd5b506101ac600480360360a08110156101d657600080fd5b810190602081018135600160201b8111156101f057600080fd5b82018360208201111561020257600080fd5b803590602001918460208302840111600160201b8311171561022357600080fd5b91908080602002602001604051908101604052809392919081815260200183836020028082843760009201919091525092958435956020860135956001600160a01b0360408201351695509193509150608081019060600135600160201b81111561028d57600080fd5b82018360208201111561029f57600080fd5b803590602001918460018302840111600160201b831117156102c057600080fd5b509092509050610e43565b3480156102d757600080fd5b506101ac60048036036101008110156102ef57600080fd5b810190602081018135600160201b81111561030957600080fd5b82018360208201111561031b57600080fd5b803590602001918460208302840111600160201b8311171561033c57600080fd5b91908080602002602001604051908101604052809392919081815260200183836020028082843760009201919091525092956001600160a01b0385351695602086013595604081013595506060810135945060808101351515935060a081013592919060e081019060c00135600160201b8111156103b957600080fd5b8201836020820111156103cb57600080fd5b803590602001918460018302840111600160201b831117156103ec57600080fd5b509092509050611048565b34801561040357600080fd5b5061040c611220565b604080516001600160a01b039092168252519081900360200190f35b34801561043457600080fd5b506101ac6004803603608081101561044b57600080fd5b506001600160a01b0381358116916020810135821691604082013516906060013561122f565b34801561047d57600080fd5b506101ac600480360360a081101561049457600080fd5b506001600160a01b038135811691602081013582169160408201351690606081013590608001351515611253565b6101ac600480360360e08110156104d857600080fd5b810190602081018135600160201b8111156104f257600080fd5b82018360208201111561050457600080fd5b803590602001918460208302840111600160201b8311171561052557600080fd5b91908080602002602001604051908101604052809392919081815260200183836020028082843760009201919091525092956001600160a01b0385351695602086013595604081013595506060810135151594506080810135935060c081019060a00135600160201b81111561059a57600080fd5b8201836020820111156105ac57600080fd5b803590602001918460018302840111600160201b831117156105cd57600080fd5b5090925090506112dd565b3480156105e457600080fd5b50610639600480360360e08110156105fb57600080fd5b506001600160a01b0381358116916020810135821691604082013581169160608101359160808201359160a081013515159160c090910135166114ea565b60408051918252519081900360200190f35b34801561065757600080fd5b506101ac6004803603602081101561066e57600080fd5b50356001600160a01b03166115aa565b34801561068a57600080fd5b5061040c6115db565b6101ac600480360360808110156106a957600080fd5b810190602081018135600160201b8111156106c357600080fd5b8201836020820111156106d557600080fd5b803590602001918460208302840111600160201b831117156106f657600080fd5b91908080602002602001604051908101604052809392919081815260200183836020028082843760009201919091525092958435956001600160a01b0360208701351695919450925060608101915060400135600160201b81111561075a57600080fd5b82018360208201111561076c57600080fd5b803590602001918460018302840111600160201b8311171561078d57600080fd5b5090925090506115ea565b3480156107a457600080fd5b506107cb600480360360208110156107bb57600080fd5b50356001600160a01b0316611823565b604080519115158252519081900360200190f35b3480156107eb57600080fd5b506101ac600480360361010081101561080357600080fd5b6001600160a01b0382358116926020810135821692604082013592606083013592608081013515159260a08201359092169160c08201359190810190610100810160e0820135600160201b81111561085a57600080fd5b82018360208201111561086c57600080fd5b803590602001918460018302840111600160201b8311171561088d57600080fd5b509092509050611838565b3480156108a457600080fd5b506101ac600480360360408110156108bb57600080fd5b506001600160a01b038135169060200135611959565b3480156108dd57600080fd5b506107cb600480360360408110156108f457600080fd5b506001600160a01b03813581169160200135166119e5565b34801561091857600080fd5b506101ac6004803603602081101561092f57600080fd5b50356001600160a01b0316611a05565b34801561094b57600080fd5b506101ac600480360360a081101561096257600080fd5b810190602081018135600160201b81111561097c57600080fd5b82018360208201111561098e57600080fd5b803590602001918460208302840111600160201b831117156109af57600080fd5b91908080602002602001604051908101604052809392919081815260200183836020028082843760009201919091525092958435956020860135956001600160a01b0360408201351695509193509150608081019060600135600160201b811115610a1957600080fd5b820183602082011115610a2b57600080fd5b803590602001918460018302840111600160201b83111715610a4c57600080fd5b509092509050611a79565b348015610a6357600080fd5b506101ac60048036036020811015610a7a57600080fd5b50356001600160a01b0316611c4e565b348015610a9657600080fd5b506101ac60048036036020811015610aad57600080fd5b50356001600160a01b0316611c7c565b348015610ac957600080fd5b506101ac60048036036020811015610ae057600080fd5b50356001600160a01b0316611cf1565b348015610afc57600080fd5b506101ac6004803603610120811015610b1457600080fd5b810190602081018135600160201b811115610b2e57600080fd5b820183602082011115610b4057600080fd5b803590602001918460208302840111600160201b83111715610b6157600080fd5b91908080602002602001604051908101604052809392919081815260200183836020028082843760009201919091525092956001600160a01b038535811696602087013596604081013596506060810135151595506080810135909216935060a08201359260c08301359290919061010081019060e00135600160201b811115610bea57600080fd5b820183602082011115610bfc57600080fd5b803590602001918460018302840111600160201b83111715610c1d57600080fd5b509092509050611d68565b348015610c3457600080fd5b506101ac6004803603610100811015610c4c57600080fd5b6001600160a01b0382358116926020810135821692604082013592606083013592608081013515159260a08201359092169160c08201359190810190610100810160e0820135600160201b811115610ca357600080fd5b820183602082011115610cb557600080fd5b803590602001918460018302840111600160201b83111715610cd657600080fd5b509092509050611f5f565b348015610ced57600080fd5b506101ac6004803603610120811015610d0557600080fd5b810190602081018135600160201b811115610d1f57600080fd5b820183602082011115610d3157600080fd5b803590602001918460208302840111600160201b83111715610d5257600080fd5b91908080602002602001604051908101604052809392919081815260200183836020028082843760009201919091525092956001600160a01b038535811696602087013596604081013596506060810135151595506080810135909216935060a08201359260c08301359290919061010081019060e00135600160201b811115610ddb57600080fd5b820183602082011115610ded57600080fd5b803590602001918460018302840111600160201b83111715610e0e57600080fd5b509092509050612082565b348015610e2557600080fd5b5061040c6121ce565b348015610e3a57600080fd5b5061040c6121dd565b600360009054906101000a90046001600160a01b03166001600160a01b031663741bef1a6040518163ffffffff1660e01b815260040160206040518083038186803b158015610e9157600080fd5b505afa158015610ea5573d6000803e3d6000fd5b505050506040513d6020811015610ebb57600080fd5b50516040516314d6fc5d60e11b8152602060048201908152602482018490526001600160a01b03909216916329adf8ba91859185918190604401848480828437600081840152601f19601f8201169050808301925050509350505050600060405180830381600087803b158015610f3157600080fd5b505af1158015610f45573d6000803e3d6000fd5b50505050610f93610f546121ec565b60035488516001600160a01b039091169088908a90600090610f7257fe5b60200260200101516001600160a01b03166121f0909392919063ffffffff16565b6000610fa087868661224a565b90507fcd3829a3813dc3cdd188fd3d01dcf3268c16be2fdd2dd21d0665418816e460623388600081518110610fd157fe5b60200260200101518960018b510381518110610fe957fe5b6020026020010151898560405180866001600160a01b03168152602001856001600160a01b03168152602001846001600160a01b031681526020018381526020018281526020019550505050505060405180910390a150505050505050565b600360009054906101000a90046001600160a01b03166001600160a01b031663741bef1a6040518163ffffffff1660e01b815260040160206040518083038186803b15801561109657600080fd5b505afa1580156110aa573d6000803e3d6000fd5b505050506040513d60208110156110c057600080fd5b50516040516314d6fc5d60e11b8152602060048201908152602482018490526001600160a01b03909216916329adf8ba91859185918190604401848480828437600081840152601f19601f8201169050808301925050509350505050600060405180830381600087803b15801561113657600080fd5b505af115801561114a573d6000803e3d6000fd5b505050506000871115611180576111806111626121ec565b6003548b516001600160a01b03909116908a908d90600090610f7257fe5b600189511180156111915750600087115b156111f15760006111a38a883061224a565b90506111ef600360009054906101000a90046001600160a01b0316828c60018e5103815181106111cf57fe5b60200260200101516001600160a01b031661238b9092919063ffffffff16565b505b6112158960018b51038151811061120457fe5b6020026020010151898787876123e2565b505050505050505050565b6000546001600160a01b031681565b611238836125dd565b61124d6001600160a01b0385168484846121f0565b50505050565b61125c856125dd565b600354604080516348d91abf60e01b81526001600160a01b03888116600483015287811660248301528681166044830152606482018690528415156084830152915191909216916348d91abf9160a480830192600092919082900301818387803b1580156112c957600080fd5b505af1158015611215573d6000803e3d6000fd5b60015488516001600160a01b039091169089906000906112f957fe5b60200260200101516001600160a01b031614611354576040805162461bcd60e51b81526020600482015260156024820152740a4deeae8cae47440d2dcecc2d8d2c840bee0c2e8d605b1b604482015290519081900360640190fd5b600360009054906101000a90046001600160a01b03166001600160a01b031663741bef1a6040518163ffffffff1660e01b815260040160206040518083038186803b1580156113a257600080fd5b505afa1580156113b6573d6000803e3d6000fd5b505050506040513d60208110156113cc57600080fd5b50516040516314d6fc5d60e11b8152602060048201908152602482018490526001600160a01b03909216916329adf8ba91859185918190604401848480828437600081840152601f19601f8201169050808301925050509350505050600060405180830381600087803b15801561144257600080fd5b505af1158015611456573d6000803e3d6000fd5b50505050600034111561146b5761146b6126b5565b6001885111801561147c5750600034115b156114bc57600061148e89883061224a565b90506114ba600360009054906101000a90046001600160a01b0316828b60018d5103815181106111cf57fe5b505b6114e08860018a5103815181106114cf57fe5b6020026020010151888787876123e2565b5050505050505050565b60006114f5886125dd565b6003546040805163082a084960e41b81526001600160a01b038b811660048301528a811660248301528981166044830152606482018990526084820188905286151560a483015285811660c4830152915191909216916382a084909160e48083019260209291908290030181600087803b15801561157257600080fd5b505af1158015611586573d6000803e3d6000fd5b505050506040513d602081101561159c57600080fd5b505198975050505050505050565b3360009081526005602090815260408083206001600160a01b0394909416835292905220805460ff19166001179055565b6001546001600160a01b031681565b60015485516001600160a01b0390911690869060009061160657fe5b60200260200101516001600160a01b031614611661576040805162461bcd60e51b81526020600482015260156024820152740a4deeae8cae47440d2dcecc2d8d2c840bee0c2e8d605b1b604482015290519081900360640190fd5b600360009054906101000a90046001600160a01b03166001600160a01b031663741bef1a6040518163ffffffff1660e01b815260040160206040518083038186803b1580156116af57600080fd5b505afa1580156116c3573d6000803e3d6000fd5b505050506040513d60208110156116d957600080fd5b50516040516314d6fc5d60e11b8152602060048201908152602482018490526001600160a01b03909216916329adf8ba91859185918190604401848480828437600081840152601f19601f8201169050808301925050509350505050600060405180830381600087803b15801561174f57600080fd5b505af1158015611763573d6000803e3d6000fd5b5050505061176f6126b5565b600061177c86868661224a565b90507fcd3829a3813dc3cdd188fd3d01dcf3268c16be2fdd2dd21d0665418816e4606233876000815181106117ad57fe5b60200260200101518860018a5103815181106117c557fe5b6020026020010151348560405180866001600160a01b03168152602001856001600160a01b03168152602001846001600160a01b031681526020018381526020018281526020019550505050505060405180910390a1505050505050565b60046020526000908152604090205460ff1681565b600360009054906101000a90046001600160a01b03166001600160a01b031663741bef1a6040518163ffffffff1660e01b815260040160206040518083038186803b15801561188657600080fd5b505afa15801561189a573d6000803e3d6000fd5b505050506040513d60208110156118b057600080fd5b50516040516314d6fc5d60e11b8152602060048201908152602482018490526001600160a01b03909216916329adf8ba91859185918190604401848480828437600081840152601f19601f8201169050808301925050509350505050600060405180830381600087803b15801561192657600080fd5b505af115801561193a573d6000803e3d6000fd5b5050505061194d8989898989898961273e565b50505050505050505050565b61197b6119646121ec565b6003546001600160a01b03858116929116846121f0565b60035460408051635f7bc11960e01b81526001600160a01b03858116600483015291519190921691635f7bc11991602480830192600092919082900301818387803b1580156119c957600080fd5b505af11580156119dd573d6000803e3d6000fd5b505050505050565b600560209081526000928352604080842090915290825290205460ff1681565b6000546001600160a01b03163314611a58576040805162461bcd60e51b81526020600482015260116024820152702937baba32b91d103337b93134b23232b760791b604482015290519081900360640190fd5b6001600160a01b03166000908152600460205260409020805460ff19169055565b60015486516001600160a01b039091169087906000198101908110611a9a57fe5b60200260200101516001600160a01b031614611af5576040805162461bcd60e51b81526020600482015260156024820152740a4deeae8cae47440d2dcecc2d8d2c840bee0c2e8d605b1b604482015290519081900360640190fd5b600360009054906101000a90046001600160a01b03166001600160a01b031663741bef1a6040518163ffffffff1660e01b815260040160206040518083038186803b158015611b4357600080fd5b505afa158015611b57573d6000803e3d6000fd5b505050506040513d6020811015611b6d57600080fd5b50516040516314d6fc5d60e11b8152602060048201908152602482018490526001600160a01b03909216916329adf8ba91859185918190604401848480828437600081840152601f19601f8201169050808301925050509350505050600060405180830381600087803b158015611be357600080fd5b505af1158015611bf7573d6000803e3d6000fd5b50505050611c06610f546121ec565b6000611c1387863061224a565b9050611c1f818561294b565b7fcd3829a3813dc3cdd188fd3d01dcf3268c16be2fdd2dd21d0665418816e460623388600081518110610fd157fe5b3360009081526005602090815260408083206001600160a01b0394909416835292905220805460ff19169055565b6000546001600160a01b03163314611ccf576040805162461bcd60e51b81526020600482015260116024820152702937baba32b91d103337b93134b23232b760791b604482015290519081900360640190fd5b600080546001600160a01b0319166001600160a01b0392909216919091179055565b6000546001600160a01b03163314611d44576040805162461bcd60e51b81526020600482015260116024820152702937baba32b91d103337b93134b23232b760791b604482015290519081900360640190fd5b6001600160a01b03166000908152600460205260409020805460ff19166001179055565b6001548a516001600160a01b03909116908b906000198101908110611d8957fe5b60200260200101516001600160a01b031614611de4576040805162461bcd60e51b81526020600482015260156024820152740a4deeae8cae47440d2dcecc2d8d2c840bee0c2e8d605b1b604482015290519081900360640190fd5b600360009054906101000a90046001600160a01b03166001600160a01b031663741bef1a6040518163ffffffff1660e01b815260040160206040518083038186803b158015611e3257600080fd5b505afa158015611e46573d6000803e3d6000fd5b505050506040513d6020811015611e5c57600080fd5b50516040516314d6fc5d60e11b8152602060048201908152602482018490526001600160a01b03909216916329adf8ba91859185918190604401848480828437600081840152601f19601f8201169050808301925050509350505050600060405180830381600087803b158015611ed257600080fd5b505af1158015611ee6573d6000803e3d6000fd5b505050506000611f0f8b600081518110611efc57fe5b60200260200101518b8b8b8b308b61273e565b9050611f38600360009054906101000a90046001600160a01b0316828d6000815181106111cf57fe5b6000611f458c863061224a565b9050611f51818861294b565b505050505050505050505050565b600360009054906101000a90046001600160a01b03166001600160a01b031663741bef1a6040518163ffffffff1660e01b815260040160206040518083038186803b158015611fad57600080fd5b505afa158015611fc1573d6000803e3d6000fd5b505050506040513d6020811015611fd757600080fd5b50516040516314d6fc5d60e11b8152602060048201908152602482018490526001600160a01b03909216916329adf8ba91859185918190604401848480828437600081840152601f19601f8201169050808301925050509350505050600060405180830381600087803b15801561204d57600080fd5b505af1158015612061573d6000803e3d6000fd5b5050505060006120768a8a8a8a8a308a61273e565b905061194d818661294b565b600360009054906101000a90046001600160a01b03166001600160a01b031663741bef1a6040518163ffffffff1660e01b815260040160206040518083038186803b1580156120d057600080fd5b505afa1580156120e4573d6000803e3d6000fd5b505050506040513d60208110156120fa57600080fd5b50516040516314d6fc5d60e11b8152602060048201908152602482018490526001600160a01b03909216916329adf8ba91859185918190604401848480828437600081840152601f19601f8201169050808301925050509350505050600060405180830381600087803b15801561217057600080fd5b505af1158015612184573d6000803e3d6000fd5b50505050600061219a8b600081518110611efc57fe5b90506121c3600360009054906101000a90046001600160a01b0316828d6000815181106111cf57fe5b611f518b858861224a565b6002546001600160a01b031681565b6003546001600160a01b031681565b3390565b604080516001600160a01b0380861660248301528416604482015260648082018490528251808303909101815260849091019091526020810180516001600160e01b03166323b872dd60e01b17905261124d9085906129c8565b60008351600214156122915761228a8460008151811061226657fe5b60200260200101518560018151811061227b57fe5b60200260200101518585612a79565b9050612384565b8351600314156123375760006122d2856000815181106122ad57fe5b6020026020010151866001815181106122c257fe5b6020026020010151600030612a79565b90506122fb600360009054906101000a90046001600160a01b031682876001815181106111cf57fe5b61232f8560018151811061230b57fe5b60200260200101518660028151811061232057fe5b60200260200101518686612a79565b915050612384565b6040805162461bcd60e51b815260206004820152601c60248201527f526f757465723a20696e76616c6964205f706174682e6c656e67746800000000604482015290519081900360640190fd5b9392505050565b604080516001600160a01b038416602482015260448082018490528251808303909101815260649091019091526020810180516001600160e01b031663a9059cbb60e01b1790526123dd9084906129c8565b505050565b81156124a65760035460408051637092736960e11b81526001600160a01b03878116600483015291518493929092169163e124e6d291602480820192602092909190829003018186803b15801561243857600080fd5b505afa15801561244c573d6000803e3d6000fd5b505050506040513d602081101561246257600080fd5b505111156124a15760405162461bcd60e51b81526004018080602001828103825260248152602001806130276024913960400191505060405180910390fd5b61255f565b600354604080516340d3096b60e11b81526001600160a01b0387811660048301529151849392909216916381a612d691602480820192602092909190829003018186803b1580156124f657600080fd5b505afa15801561250a573d6000803e3d6000fd5b505050506040513d602081101561252057600080fd5b5051101561255f5760405162461bcd60e51b8152600401808060200182810382526023815260200180612fda6023913960400191505060405180910390fd5b6003546001600160a01b03166348d91abf6125786121ec565b604080516001600160e01b031960e085901b1681526001600160a01b039283166004820152828a16602482015291881660448301526064820187905285151560848301525160a480830192600092919082900301818387803b1580156112c957600080fd5b3360009081526004602052604090205460ff1661263a576040805162461bcd60e51b81526020600482015260166024820152752937baba32b91d1034b73b30b634b21038363ab3b4b760511b604482015290519081900360640190fd5b6001600160a01b038116600090815260056020908152604080832033845290915290205460ff166126b2576040805162461bcd60e51b815260206004820152601b60248201527f526f757465723a20706c7567696e206e6f7420617070726f7665640000000000604482015290519081900360640190fd5b50565b600160009054906101000a90046001600160a01b03166001600160a01b031663d0e30db0346040518263ffffffff1660e01b81526004016000604051808303818588803b15801561270557600080fd5b505af1158015612719573d6000803e3d6000fd5b505060035460015461273c94506001600160a01b0390811693501690503461238b565b565b6000831561280457600354604080516340d3096b60e11b81526001600160a01b038a811660048301529151859392909216916381a612d691602480820192602092909190829003018186803b15801561279657600080fd5b505afa1580156127aa573d6000803e3d6000fd5b505050506040513d60208110156127c057600080fd5b505110156127ff5760405162461bcd60e51b8152600401808060200182810382526023815260200180612fda6023913960400191505060405180910390fd5b6128bd565b60035460408051637092736960e11b81526001600160a01b038a8116600483015291518593929092169163e124e6d291602480820192602092909190829003018186803b15801561285457600080fd5b505afa158015612868573d6000803e3d6000fd5b505050506040513d602081101561287e57600080fd5b505111156128bd5760405162461bcd60e51b81526004018080602001828103825260248152602001806130276024913960400191505060405180910390fd5b6003546001600160a01b03166382a084906128d66121ec565b604080516001600160e01b031960e085901b1681526001600160a01b039283166004820152828d166024820152828c166044820152606481018b9052608481018a905288151560a482015291871660c48301525160e48083019260209291908290030181600087803b15801561157257600080fd5b60015460408051632e1a7d4d60e01b81526004810185905290516001600160a01b0390921691632e1a7d4d9160248082019260009290919082900301818387803b15801561299857600080fd5b505af11580156129ac573d6000803e3d6000fd5b506129c4925050506001600160a01b03821683612c77565b5050565b6060612a1d826040518060400160405280602081526020017f5361666545524332303a206c6f772d6c6576656c2063616c6c206661696c6564815250856001600160a01b0316612d5c9092919063ffffffff16565b8051909150156123dd57808060200190516020811015612a3c57600080fd5b50516123dd5760405162461bcd60e51b815260040180806020018281038252602a815260200180612ffd602a913960400191505060405180910390fd5b60025460009081906001600160a01b0386811691161415612b1e576003546040805163817bb85760e01b81526001600160a01b03898116600483015286811660248301529151919092169163817bb8579160448083019260209291908290030181600087803b158015612aeb57600080fd5b505af1158015612aff573d6000803e3d6000fd5b505050506040513d6020811015612b1557600080fd5b50519050612c19565b6002546001600160a01b0387811691161415612b8b5760035460408051630711e61960e41b81526001600160a01b03888116600483015286811660248301529151919092169163711e61909160448083019260209291908290030181600087803b158015612aeb57600080fd5b60035460408051634998b10960e11b81526001600160a01b038981166004830152888116602483015286811660448301529151919092169163933162129160648083019260209291908290030181600087803b158015612bea57600080fd5b505af1158015612bfe573d6000803e3d6000fd5b505050506040513d6020811015612c1457600080fd5b505190505b83811015612c6e576040805162461bcd60e51b815260206004820152601e60248201527f526f757465723a20696e73756666696369656e7420616d6f756e744f75740000604482015290519081900360640190fd5b95945050505050565b80471015612ccc576040805162461bcd60e51b815260206004820152601d60248201527f416464726573733a20696e73756666696369656e742062616c616e6365000000604482015290519081900360640190fd5b6040516000906001600160a01b0384169083908381818185875af1925050503d8060008114612d17576040519150601f19603f3d011682016040523d82523d6000602084013e612d1c565b606091505b50509050806123dd5760405162461bcd60e51b815260040180806020018281038252603a815260200180612f7a603a913960400191505060405180910390fd5b6060612d6b8484600085612d73565b949350505050565b606082471015612db45760405162461bcd60e51b8152600401808060200182810382526026815260200180612fb46026913960400191505060405180910390fd5b612dbd85612ecf565b612e0e576040805162461bcd60e51b815260206004820152601d60248201527f416464726573733a2063616c6c20746f206e6f6e2d636f6e7472616374000000604482015290519081900360640190fd5b60006060866001600160a01b031685876040518082805190602001908083835b60208310612e4d5780518252601f199092019160209182019101612e2e565b6001836020036101000a03801982511681845116808217855250505050505090500191505060006040518083038185875af1925050503d8060008114612eaf576040519150601f19603f3d011682016040523d82523d6000602084013e612eb4565b606091505b5091509150612ec4828286612ed5565b979650505050505050565b3b151590565b60608315612ee4575081612384565b825115612ef45782518084602001fd5b8160405162461bcd60e51b81526004018080602001828103825283818151815260200191508051906020019080838360005b83811015612f3e578181015183820152602001612f26565b50505050905090810190601f168015612f6b5780820380516001836020036101000a031916815260200191505b509250505060405180910390fdfe416464726573733a20756e61626c6520746f2073656e642076616c75652c20726563697069656e74206d61792068617665207265766572746564416464726573733a20696e73756666696369656e742062616c616e636520666f722063616c6c526f757465723a206d61726b207072696365206c6f776572207468616e206c696d69745361666545524332303a204552433230206f7065726174696f6e20646964206e6f742073756363656564526f757465723a206d61726b20707269636520686967686572207468616e206c696d6974a2646970667358221220560b449050415294ed147e19af0cae93fed39b1a6e416c42c2cd28fb61b5277364736f6c634300060c0033",
  "linkReferences": {},
  "deployedLinkReferences": {}
}