{
  "_format": "hh-sol-artifact-1",
  "contractName": "RouterHpsmHlp",
  "sourceName": "contracts/RouterHpsmHlp.sol",
  "abi": [
    {
      "inputs": [
        {
          "internalType": "address",
          "name": "_hpsm",
          "type": "address"
        },
        {
          "internalType": "address",
          "name": "_hlpRouter",
          "type": "address"
        }
      ],
      "stateMutability": "nonpayable",
      "type": "constructor"
    },
    {
      "anonymous": false,
      "inputs": [
        {
          "indexed": false,
          "internalType": "address",
          "name": "newHlpRouter",
          "type": "address"
        }
      ],
      "name": "ChangeHlpRouter",
      "type": "event"
    },
    {
      "anonymous": false,
      "inputs": [
        {
          "indexed": false,
          "internalType": "address",
          "name": "newPsm",
          "type": "address"
        }
      ],
      "name": "ChangeHpsm",
      "type": "event"
    },
    {
      "anonymous": false,
      "inputs": [
        {
          "indexed": true,
          "internalType": "address",
          "name": "previousOwner",
          "type": "address"
        },
        {
          "indexed": true,
          "internalType": "address",
          "name": "newOwner",
          "type": "address"
        }
      ],
      "name": "OwnershipTransferred",
      "type": "event"
    },
    {
      "inputs": [],
      "name": "hlpRouter",
      "outputs": [
        {
          "internalType": "address",
          "name": "",
          "type": "address"
        }
      ],
      "stateMutability": "view",
      "type": "function"
    },
    {
      "inputs": [],
      "name": "hpsm",
      "outputs": [
        {
          "internalType": "address",
          "name": "",
          "type": "address"
        }
      ],
      "stateMutability": "view",
      "type": "function"
    },
    {
      "inputs": [],
      "name": "owner",
      "outputs": [
        {
          "internalType": "address",
          "name": "",
          "type": "address"
        }
      ],
      "stateMutability": "view",
      "type": "function"
    },
    {
      "inputs": [],
      "name": "renounceOwnership",
      "outputs": [],
      "stateMutability": "nonpayable",
      "type": "function"
    },
    {
      "inputs": [
        {
          "internalType": "address",
          "name": "_hlpRouter",
          "type": "address"
        }
      ],
      "name": "setHlpRouter",
      "outputs": [],
      "stateMutability": "nonpayable",
      "type": "function"
    },
    {
      "inputs": [
        {
          "internalType": "address",
          "name": "_hpsm",
          "type": "address"
        }
      ],
      "name": "setHpsm",
      "outputs": [],
      "stateMutability": "nonpayable",
      "type": "function"
    },
    {
      "inputs": [
        {
          "internalType": "address",
          "name": "fxToken",
          "type": "address"
        },
        {
          "internalType": "address",
          "name": "tokenOut",
          "type": "address"
        },
        {
          "internalType": "uint256",
          "name": "minOut",
          "type": "uint256"
        },
        {
          "internalType": "address",
          "name": "receiver",
          "type": "address"
        },
        {
          "internalType": "bytes",
          "name": "signedQuoteData",
          "type": "bytes"
        }
      ],
      "name": "swapEthToPeggedToken",
      "outputs": [],
      "stateMutability": "payable",
      "type": "function"
    },
    {
      "inputs": [
        {
          "internalType": "address",
          "name": "hlpToken",
          "type": "address"
        },
        {
          "internalType": "address",
          "name": "fxToken",
          "type": "address"
        },
        {
          "internalType": "address",
          "name": "tokenOut",
          "type": "address"
        },
        {
          "internalType": "uint256",
          "name": "amountIn",
          "type": "uint256"
        },
        {
          "internalType": "uint256",
          "name": "minOut",
          "type": "uint256"
        },
        {
          "internalType": "address",
          "name": "receiver",
          "type": "address"
        },
        {
          "internalType": "bytes",
          "name": "signedQuoteData",
          "type": "bytes"
        }
      ],
      "name": "swapHlpTokenToPeggedToken",
      "outputs": [],
      "stateMutability": "nonpayable",
      "type": "function"
    },
    {
      "inputs": [
        {
          "internalType": "address",
          "name": "peggedToken",
          "type": "address"
        },
        {
          "internalType": "address",
          "name": "fxToken",
          "type": "address"
        },
        {
          "internalType": "uint256",
          "name": "amountIn",
          "type": "uint256"
        },
        {
          "internalType": "uint256",
          "name": "minOut",
          "type": "uint256"
        },
        {
          "internalType": "address payable",
          "name": "receiver",
          "type": "address"
        },
        {
          "internalType": "bytes",
          "name": "signedQuoteData",
          "type": "bytes"
        }
      ],
      "name": "swapPeggedTokenToEth",
      "outputs": [],
      "stateMutability": "nonpayable",
      "type": "function"
    },
    {
      "inputs": [
        {
          "internalType": "address",
          "name": "peggedToken",
          "type": "address"
        },
        {
          "internalType": "address",
          "name": "fxToken",
          "type": "address"
        },
        {
          "internalType": "address",
          "name": "tokenOut",
          "type": "address"
        },
        {
          "internalType": "uint256",
          "name": "amountIn",
          "type": "uint256"
        },
        {
          "internalType": "uint256",
          "name": "minOut",
          "type": "uint256"
        },
        {
          "internalType": "address",
          "name": "receiver",
          "type": "address"
        },
        {
          "internalType": "bytes",
          "name": "signedQuoteData",
          "type": "bytes"
        }
      ],
      "name": "swapPeggedTokenToHlpToken",
      "outputs": [],
      "stateMutability": "nonpayable",
      "type": "function"
    },
    {
      "inputs": [
        {
          "internalType": "address",
          "name": "newOwner",
          "type": "address"
        }
      ],
      "name": "transferOwnership",
      "outputs": [],
      "stateMutability": "nonpayable",
      "type": "function"
    }
  ],
  "bytecode": "0x60a06040523480156200001157600080fd5b50604051620017533803806200175383398101604081905262000034916200015c565b6200003f33620000ef565b600180546001600160a01b038481166001600160a01b0319928316811790935560028054918516919092161790553060601b6080526040519081527fa42db62e6a6fb46d8d03431106cca836fa4c9e4d41105d56dcd444dc85d340279060200160405180910390a16002546040516001600160a01b0390911681527f5925f04423116cdea53e5558436f8d05707fad7bd8206910ad09925cd5fec19a9060200160405180910390a1505062000194565b600080546001600160a01b038381166001600160a01b0319831681178455604051919092169283917f8be0079c531659141344cd1fd0a4f28419497f9722a3daafe3b4186f6b6457e09190a35050565b80516001600160a01b03811681146200015757600080fd5b919050565b600080604083850312156200017057600080fd5b6200017b836200013f565b91506200018b602084016200013f565b90509250929050565b60805160601c61158b620001c86000396000818161038e015281816106d401528181610e610152610f28015261158b6000f3fe60806040526004361061009c5760003560e01c80638da5cb5b116100645780638da5cb5b14610147578063b7207e1414610165578063ba40e98b14610185578063d890a33c146101a5578063f12b70d3146101c5578063f2fde38b146101e557600080fd5b80632a8e2b3b146100a15780633d2ac218146100b65780635b41435b146100f25780635e58a81b14610112578063715018a614610132575b600080fd5b6100b46100af3660046112d6565b610205565b005b3480156100c257600080fd5b506001546100d6906001600160a01b031681565b6040516001600160a01b03909116815260200160405180910390f35b3480156100fe57600080fd5b506100b461010d366004611235565b6104da565b34801561011e57600080fd5b506100b461012d36600461135b565b61081d565b34801561013e57600080fd5b506100b4610a17565b34801561015357600080fd5b506000546001600160a01b03166100d6565b34801561017157600080fd5b506100b46101803660046111f4565b610a2b565b34801561019157600080fd5b506100b46101a03660046111f4565b610adc565b3480156101b157600080fd5b506002546100d6906001600160a01b031681565b3480156101d157600080fd5b506100b46101e0366004611235565b610b86565b3480156101f157600080fd5b506100b46102003660046111f4565b610dd1565b846001600160a01b0316866001600160a01b0316141561026c5760405162461bcd60e51b815260206004820152601b60248201527f4d7573742075736520486c70526f75746572206469726563746c79000000000060448201526064015b60405180910390fd5b604080516002808252606082018352600092602083019080368337505060025460408051633fc8cef360e01b815290519394506001600160a01b0390911692633fc8cef3925060048083019260209291908290030181600087803b1580156102d357600080fd5b505af11580156102e7573d6000803e3d6000fd5b505050506040513d601f19601f8201168201806040525081019061030b9190611218565b8160008151811061031e5761031e61152a565b60200260200101906001600160a01b031690816001600160a01b03168152505086816001815181106103525761035261152a565b6001600160a01b03928316602091820292909201015260025460405163481e17e360e01b815291169063481e17e39034906103ba9085906000907f0000000000000000000000000000000000000000000000000000000000000000908a908a90600401611492565b6000604051808303818588803b1580156103d357600080fd5b505af11580156103e7573d6000803e3d6000fd5b5050505050600061040188886103fc8b610e4a565b610eed565b90508581101561044d5760405162461bcd60e51b8152602060048201526017602482015276125b9cdd59999a58da595b9d08185b5bdd5b9d081bdd5d604a1b6044820152606401610263565b60405163a9059cbb60e01b81526001600160a01b0386811660048301526024820183905288169063a9059cbb90604401602060405180830381600087803b15801561049757600080fd5b505af11580156104ab573d6000803e3d6000fd5b505050506040513d601f19601f820116820180604052508101906104cf91906113ea565b505050505050505050565b856001600160a01b0316886001600160a01b0316141561053c5760405162461bcd60e51b815260206004820152601c60248201527f43616e6e6f7420636f6e7665727420746f2073616d6520746f6b656e000000006044820152606401610263565b856001600160a01b0316876001600160a01b0316141561059e5760405162461bcd60e51b815260206004820152601b60248201527f4d7573742075736520486c70526f75746572206469726563746c7900000000006044820152606401610263565b6105a88886610f0b565b60025460405163095ea7b360e01b81526001600160a01b039182166004820152602481018790529089169063095ea7b390604401602060405180830381600087803b1580156105f657600080fd5b505af115801561060a573d6000803e3d6000fd5b505050506040513d601f19601f8201168201806040525081019061062e91906113ea565b5060408051600280825260608201835260009260208301908036833701905050905088816000815181106106645761066461152a565b60200260200101906001600160a01b031690816001600160a01b03168152505087816001815181106106985761069861152a565b6001600160a01b039283166020918202929092010152600254604051630dde87fd60e01b8152911690630dde87fd906107009084908a906000907f0000000000000000000000000000000000000000000000000000000000000000908a908a906004016114da565b600060405180830381600087803b15801561071a57600080fd5b505af115801561072e573d6000803e3d6000fd5b50505050600061074289896103fc8c610e4a565b90508581101561078e5760405162461bcd60e51b8152602060048201526017602482015276125b9cdd59999a58da595b9d08185b5bdd5b9d081bdd5d604a1b6044820152606401610263565b60405163a9059cbb60e01b81526001600160a01b0386811660048301526024820183905289169063a9059cbb90604401602060405180830381600087803b1580156107d857600080fd5b505af11580156107ec573d6000803e3d6000fd5b505050506040513d601f19601f8201168201806040525081019061081091906113ea565b5050505050505050505050565b6108278786610f0b565b6000610834888888610fb8565b60025460405163095ea7b360e01b81526001600160a01b0391821660048201526024810183905291925088169063095ea7b390604401602060405180830381600087803b15801561088457600080fd5b505af1158015610898573d6000803e3d6000fd5b505050506040513d601f19601f820116820180604052508101906108bc91906113ea565b5060408051600280825260608201835260009260208301908036833701905050905087816000815181106108f2576108f261152a565b6001600160a01b0392831660209182029290920181019190915260025460408051633fc8cef360e01b815290519190931692633fc8cef39260048083019391928290030181600087803b15801561094857600080fd5b505af115801561095c573d6000803e3d6000fd5b505050506040513d601f19601f820116820180604052508101906109809190611218565b816001815181106109935761099361152a565b6001600160a01b03928316602091820292909201015260025460405163cccc6e0560e01b815291169063cccc6e05906109da90849086908b908b908b908b906004016114da565b600060405180830381600087803b1580156109f457600080fd5b505af1158015610a08573d6000803e3d6000fd5b50505050505050505050505050565b610a1f610fc5565b610a29600061101f565b565b610a33610fc5565b6002546001600160a01b0382811691161415610a875760405162461bcd60e51b81526020600482015260136024820152721059191c995cdcc8185b1c9958591e481cd95d606a1b6044820152606401610263565b600280546001600160a01b0319166001600160a01b0383169081179091556040519081527f5925f04423116cdea53e5558436f8d05707fad7bd8206910ad09925cd5fec19a906020015b60405180910390a150565b610ae4610fc5565b6001546001600160a01b0382811691161415610b385760405162461bcd60e51b81526020600482015260136024820152721059191c995cdcc8185b1c9958591e481cd95d606a1b6044820152606401610263565b600180546001600160a01b0319166001600160a01b0383169081179091556040519081527fa42db62e6a6fb46d8d03431106cca836fa4c9e4d41105d56dcd444dc85d3402790602001610ad1565b856001600160a01b0316886001600160a01b03161415610be85760405162461bcd60e51b815260206004820152601c60248201527f43616e6e6f7420636f6e7665727420746f2073616d6520746f6b656e000000006044820152606401610263565b856001600160a01b0316876001600160a01b03161415610c435760405162461bcd60e51b81526020600482015260166024820152754d75737420757365206850534d206469726563746c7960501b6044820152606401610263565b610c4d8886610f0b565b6000610c5a898988610fb8565b60025460405163095ea7b360e01b81526001600160a01b0391821660048201526024810183905291925089169063095ea7b390604401602060405180830381600087803b158015610caa57600080fd5b505af1158015610cbe573d6000803e3d6000fd5b505050506040513d601f19601f82011682018060405250810190610ce291906113ea565b506040805160028082526060820183526000926020830190803683370190505090508881600081518110610d1857610d1861152a565b60200260200101906001600160a01b031690816001600160a01b0316815250508781600181518110610d4c57610d4c61152a565b6001600160a01b039283166020918202929092010152600254604051630dde87fd60e01b8152911690630dde87fd90610d9390849086908b908b908b908b906004016114da565b600060405180830381600087803b158015610dad57600080fd5b505af1158015610dc1573d6000803e3d6000fd5b5050505050505050505050505050565b610dd9610fc5565b6001600160a01b038116610e3e5760405162461bcd60e51b815260206004820152602660248201527f4f776e61626c653a206e6577206f776e657220697320746865207a65726f206160448201526564647265737360d01b6064820152608401610263565b610e478161101f565b50565b6040516370a0823160e01b81526001600160a01b037f000000000000000000000000000000000000000000000000000000000000000081166004830152600091908316906370a082319060240160206040518083038186803b158015610eaf57600080fd5b505afa158015610ec3573d6000803e3d6000fd5b505050506040513d601f19601f82011682018060405250810190610ee7919061140c565b92915050565b6000610efa84848461106f565b610f0383610e4a565b949350505050565b6040516323b872dd60e01b81523360048201526001600160a01b037f000000000000000000000000000000000000000000000000000000000000000081166024830152604482018390528316906323b872dd90606401602060405180830381600087803b158015610f7b57600080fd5b505af1158015610f8f573d6000803e3d6000fd5b505050506040513d601f19601f82011682018060405250810190610fb391906113ea565b505050565b6000610efa8484846110e3565b6000546001600160a01b03163314610a295760405162461bcd60e51b815260206004820181905260248201527f4f776e61626c653a2063616c6c6572206973206e6f7420746865206f776e65726044820152606401610263565b600080546001600160a01b038381166001600160a01b0319831681178455604051919092169283917f8be0079c531659141344cd1fd0a4f28419497f9722a3daafe3b4186f6b6457e09190a35050565b600154604051636ce5768960e11b81526001600160a01b0385811660048301528481166024830152604482018490529091169063d9caed12906064015b600060405180830381600087803b1580156110c657600080fd5b505af11580156110da573d6000803e3d6000fd5b50505050505050565b60015460405163095ea7b360e01b81526001600160a01b039182166004820152602481018390529084169063095ea7b390604401602060405180830381600087803b15801561113157600080fd5b505af1158015611145573d6000803e3d6000fd5b505050506040513d601f19601f8201168201806040525081019061116991906113ea565b50600154604051638340f54960e01b81526001600160a01b03848116600483015285811660248301526044820184905290911690638340f549906064016110ac565b60008083601f8401126111bd57600080fd5b50813567ffffffffffffffff8111156111d557600080fd5b6020830191508360208285010111156111ed57600080fd5b9250929050565b60006020828403121561120657600080fd5b813561121181611540565b9392505050565b60006020828403121561122a57600080fd5b815161121181611540565b60008060008060008060008060e0898b03121561125157600080fd5b883561125c81611540565b9750602089013561126c81611540565b9650604089013561127c81611540565b9550606089013594506080890135935060a089013561129a81611540565b925060c089013567ffffffffffffffff8111156112b657600080fd5b6112c28b828c016111ab565b999c989b5096995094979396929594505050565b60008060008060008060a087890312156112ef57600080fd5b86356112fa81611540565b9550602087013561130a81611540565b945060408701359350606087013561132181611540565b9250608087013567ffffffffffffffff81111561133d57600080fd5b61134989828a016111ab565b979a9699509497509295939492505050565b600080600080600080600060c0888a03121561137657600080fd5b873561138181611540565b9650602088013561139181611540565b9550604088013594506060880135935060808801356113af81611540565b925060a088013567ffffffffffffffff8111156113cb57600080fd5b6113d78a828b016111ab565b989b979a50959850939692959293505050565b6000602082840312156113fc57600080fd5b8151801515811461121157600080fd5b60006020828403121561141e57600080fd5b5051919050565b600081518084526020808501945080840160005b8381101561145e5781516001600160a01b031687529582019590820190600101611439565b509495945050505050565b81835281816020850137506000828201602090810191909152601f909101601f19169091010190565b6080815260006114a56080830188611425565b602083018790526001600160a01b038616604084015282810360608401526114ce818587611469565b98975050505050505050565b60a0815260006114ed60a0830189611425565b60208301889052604083018790526001600160a01b0386166060840152828103608084015261151d818587611469565b9998505050505050505050565b634e487b7160e01b600052603260045260246000fd5b6001600160a01b0381168114610e4757600080fdfea26469706673582212203cb1f0141c9dbea43b9acb1a3cc270761a2b224586d85d7ce3a3e34658a043b964736f6c63430008070033",
  "linkReferences": {},
  "deployedLinkReferences": {}
}