{
  "_format": "hh-sol-artifact-1",
  "contractName": "VaultPriceFeed",
  "sourceName": "contracts/core/VaultPriceFeed.sol",
  "abi": [
    {
      "inputs": [],
      "stateMutability": "nonpayable",
      "type": "constructor"
    },
    {
      "inputs": [],
      "name": "BASIS_POINTS_DIVISOR",
      "outputs": [
        {
          "internalType": "uint256",
          "name": "",
          "type": "uint256"
        }
      ],
      "stateMutability": "view",
      "type": "function"
    },
    {
      "inputs": [],
      "name": "MAX_ADJUSTMENT_BASIS_POINTS",
      "outputs": [
        {
          "internalType": "uint256",
          "name": "",
          "type": "uint256"
        }
      ],
      "stateMutability": "view",
      "type": "function"
    },
    {
      "inputs": [],
      "name": "MAX_ADJUSTMENT_INTERVAL",
      "outputs": [
        {
          "internalType": "uint256",
          "name": "",
          "type": "uint256"
        }
      ],
      "stateMutability": "view",
      "type": "function"
    },
    {
      "inputs": [],
      "name": "MAX_SPREAD_BASIS_POINTS",
      "outputs": [
        {
          "internalType": "uint256",
          "name": "",
          "type": "uint256"
        }
      ],
      "stateMutability": "view",
      "type": "function"
    },
    {
      "inputs": [],
      "name": "ONE_USD",
      "outputs": [
        {
          "internalType": "uint256",
          "name": "",
          "type": "uint256"
        }
      ],
      "stateMutability": "view",
      "type": "function"
    },
    {
      "inputs": [],
      "name": "PRICE_PRECISION",
      "outputs": [
        {
          "internalType": "uint256",
          "name": "",
          "type": "uint256"
        }
      ],
      "stateMutability": "view",
      "type": "function"
    },
    {
      "inputs": [
        {
          "internalType": "address",
          "name": "",
          "type": "address"
        }
      ],
      "name": "adjustmentBasisPoints",
      "outputs": [
        {
          "internalType": "uint256",
          "name": "",
          "type": "uint256"
        }
      ],
      "stateMutability": "view",
      "type": "function"
    },
    {
      "inputs": [],
      "name": "bnb",
      "outputs": [
        {
          "internalType": "address",
          "name": "",
          "type": "address"
        }
      ],
      "stateMutability": "view",
      "type": "function"
    },
    {
      "inputs": [],
      "name": "bnbBusd",
      "outputs": [
        {
          "internalType": "address",
          "name": "",
          "type": "address"
        }
      ],
      "stateMutability": "view",
      "type": "function"
    },
    {
      "inputs": [],
      "name": "btc",
      "outputs": [
        {
          "internalType": "address",
          "name": "",
          "type": "address"
        }
      ],
      "stateMutability": "view",
      "type": "function"
    },
    {
      "inputs": [],
      "name": "btcBnb",
      "outputs": [
        {
          "internalType": "address",
          "name": "",
          "type": "address"
        }
      ],
      "stateMutability": "view",
      "type": "function"
    },
    {
      "inputs": [],
      "name": "chainlinkFlags",
      "outputs": [
        {
          "internalType": "address",
          "name": "",
          "type": "address"
        }
      ],
      "stateMutability": "view",
      "type": "function"
    },
    {
      "inputs": [],
      "name": "eth",
      "outputs": [
        {
          "internalType": "address",
          "name": "",
          "type": "address"
        }
      ],
      "stateMutability": "view",
      "type": "function"
    },
    {
      "inputs": [],
      "name": "ethBnb",
      "outputs": [
        {
          "internalType": "address",
          "name": "",
          "type": "address"
        }
      ],
      "stateMutability": "view",
      "type": "function"
    },
    {
      "inputs": [],
      "name": "favorPrimaryPrice",
      "outputs": [
        {
          "internalType": "bool",
          "name": "",
          "type": "bool"
        }
      ],
      "stateMutability": "view",
      "type": "function"
    },
    {
      "inputs": [
        {
          "internalType": "address",
          "name": "_token",
          "type": "address"
        }
      ],
      "name": "getAmmPrice",
      "outputs": [
        {
          "internalType": "uint256",
          "name": "",
          "type": "uint256"
        }
      ],
      "stateMutability": "view",
      "type": "function"
    },
    {
      "inputs": [
        {
          "internalType": "address",
          "name": "_token",
          "type": "address"
        },
        {
          "internalType": "bool",
          "name": "_maximise",
          "type": "bool"
        },
        {
          "internalType": "uint256",
          "name": "_primaryPrice",
          "type": "uint256"
        }
      ],
      "name": "getAmmPriceV2",
      "outputs": [
        {
          "internalType": "uint256",
          "name": "",
          "type": "uint256"
        }
      ],
      "stateMutability": "view",
      "type": "function"
    },
    {
      "inputs": [
        {
          "internalType": "address",
          "name": "_pair",
          "type": "address"
        },
        {
          "internalType": "bool",
          "name": "_divByReserve0",
          "type": "bool"
        }
      ],
      "name": "getPairPrice",
      "outputs": [
        {
          "internalType": "uint256",
          "name": "",
          "type": "uint256"
        }
      ],
      "stateMutability": "view",
      "type": "function"
    },
    {
      "inputs": [
        {
          "internalType": "address",
          "name": "_token",
          "type": "address"
        },
        {
          "internalType": "bool",
          "name": "_maximise",
          "type": "bool"
        },
        {
          "internalType": "bool",
          "name": "_includeAmmPrice",
          "type": "bool"
        },
        {
          "internalType": "bool",
          "name": "",
          "type": "bool"
        }
      ],
      "name": "getPrice",
      "outputs": [
        {
          "internalType": "uint256",
          "name": "",
          "type": "uint256"
        }
      ],
      "stateMutability": "view",
      "type": "function"
    },
    {
      "inputs": [
        {
          "internalType": "address",
          "name": "_token",
          "type": "address"
        },
        {
          "internalType": "bool",
          "name": "_maximise",
          "type": "bool"
        },
        {
          "internalType": "bool",
          "name": "_includeAmmPrice",
          "type": "bool"
        }
      ],
      "name": "getPriceV1",
      "outputs": [
        {
          "internalType": "uint256",
          "name": "",
          "type": "uint256"
        }
      ],
      "stateMutability": "view",
      "type": "function"
    },
    {
      "inputs": [
        {
          "internalType": "address",
          "name": "_token",
          "type": "address"
        },
        {
          "internalType": "bool",
          "name": "_maximise",
          "type": "bool"
        },
        {
          "internalType": "bool",
          "name": "_includeAmmPrice",
          "type": "bool"
        }
      ],
      "name": "getPriceV2",
      "outputs": [
        {
          "internalType": "uint256",
          "name": "",
          "type": "uint256"
        }
      ],
      "stateMutability": "view",
      "type": "function"
    },
    {
      "inputs": [
        {
          "internalType": "address",
          "name": "_token",
          "type": "address"
        },
        {
          "internalType": "bool",
          "name": "_maximise",
          "type": "bool"
        }
      ],
      "name": "getPrimaryPrice",
      "outputs": [
        {
          "internalType": "uint256",
          "name": "",
          "type": "uint256"
        }
      ],
      "stateMutability": "view",
      "type": "function"
    },
    {
      "inputs": [
        {
          "internalType": "address",
          "name": "_token",
          "type": "address"
        },
        {
          "internalType": "uint256",
          "name": "_referencePrice",
          "type": "uint256"
        },
        {
          "internalType": "bool",
          "name": "_maximise",
          "type": "bool"
        }
      ],
      "name": "getSecondaryPrice",
      "outputs": [
        {
          "internalType": "uint256",
          "name": "",
          "type": "uint256"
        }
      ],
      "stateMutability": "view",
      "type": "function"
    },
    {
      "inputs": [],
      "name": "gov",
      "outputs": [
        {
          "internalType": "address",
          "name": "",
          "type": "address"
        }
      ],
      "stateMutability": "view",
      "type": "function"
    },
    {
      "inputs": [],
      "name": "h2soQuoteLifetimeSeconds",
      "outputs": [
        {
          "internalType": "uint256",
          "name": "",
          "type": "uint256"
        }
      ],
      "stateMutability": "view",
      "type": "function"
    },
    {
      "inputs": [
        {
          "internalType": "bytes",
          "name": "signedQuoteData",
          "type": "bytes"
        }
      ],
      "name": "h2sofaApplySignedQuote",
      "outputs": [],
      "stateMutability": "nonpayable",
      "type": "function"
    },
    {
      "inputs": [
        {
          "internalType": "address",
          "name": "",
          "type": "address"
        }
      ],
      "name": "isAdjustmentAdditive",
      "outputs": [
        {
          "internalType": "bool",
          "name": "",
          "type": "bool"
        }
      ],
      "stateMutability": "view",
      "type": "function"
    },
    {
      "inputs": [],
      "name": "isAmmEnabled",
      "outputs": [
        {
          "internalType": "bool",
          "name": "",
          "type": "bool"
        }
      ],
      "stateMutability": "view",
      "type": "function"
    },
    {
      "inputs": [],
      "name": "isSecondaryPriceEnabled",
      "outputs": [
        {
          "internalType": "bool",
          "name": "",
          "type": "bool"
        }
      ],
      "stateMutability": "view",
      "type": "function"
    },
    {
      "inputs": [
        {
          "internalType": "address",
          "name": "",
          "type": "address"
        }
      ],
      "name": "lastAdjustmentTimings",
      "outputs": [
        {
          "internalType": "uint256",
          "name": "",
          "type": "uint256"
        }
      ],
      "stateMutability": "view",
      "type": "function"
    },
    {
      "inputs": [],
      "name": "maxStrictPriceDeviation",
      "outputs": [
        {
          "internalType": "uint256",
          "name": "",
          "type": "uint256"
        }
      ],
      "stateMutability": "view",
      "type": "function"
    },
    {
      "inputs": [
        {
          "internalType": "address",
          "name": "",
          "type": "address"
        }
      ],
      "name": "priceDecimals",
      "outputs": [
        {
          "internalType": "uint256",
          "name": "",
          "type": "uint256"
        }
      ],
      "stateMutability": "view",
      "type": "function"
    },
    {
      "inputs": [
        {
          "internalType": "address",
          "name": "",
          "type": "address"
        }
      ],
      "name": "priceFeeds",
      "outputs": [
        {
          "internalType": "address",
          "name": "",
          "type": "address"
        }
      ],
      "stateMutability": "view",
      "type": "function"
    },
    {
      "inputs": [],
      "name": "priceSampleSpace",
      "outputs": [
        {
          "internalType": "uint256",
          "name": "",
          "type": "uint256"
        }
      ],
      "stateMutability": "view",
      "type": "function"
    },
    {
      "inputs": [],
      "name": "secondaryPriceFeed",
      "outputs": [
        {
          "internalType": "address",
          "name": "",
          "type": "address"
        }
      ],
      "stateMutability": "view",
      "type": "function"
    },
    {
      "inputs": [
        {
          "internalType": "address",
          "name": "_token",
          "type": "address"
        },
        {
          "internalType": "bool",
          "name": "_isAdditive",
          "type": "bool"
        },
        {
          "internalType": "uint256",
          "name": "_adjustmentBps",
          "type": "uint256"
        }
      ],
      "name": "setAdjustment",
      "outputs": [],
      "stateMutability": "nonpayable",
      "type": "function"
    },
    {
      "inputs": [
        {
          "internalType": "address",
          "name": "_chainlinkFlags",
          "type": "address"
        }
      ],
      "name": "setChainlinkFlags",
      "outputs": [],
      "stateMutability": "nonpayable",
      "type": "function"
    },
    {
      "inputs": [
        {
          "internalType": "bool",
          "name": "_favorPrimaryPrice",
          "type": "bool"
        }
      ],
      "name": "setFavorPrimaryPrice",
      "outputs": [],
      "stateMutability": "nonpayable",
      "type": "function"
    },
    {
      "inputs": [
        {
          "internalType": "address",
          "name": "_gov",
          "type": "address"
        }
      ],
      "name": "setGov",
      "outputs": [],
      "stateMutability": "nonpayable",
      "type": "function"
    },
    {
      "inputs": [
        {
          "internalType": "uint256",
          "name": "value",
          "type": "uint256"
        }
      ],
      "name": "setH2soQuoteLifetimeSeconds",
      "outputs": [],
      "stateMutability": "nonpayable",
      "type": "function"
    },
    {
      "inputs": [
        {
          "internalType": "bool",
          "name": "_isEnabled",
          "type": "bool"
        }
      ],
      "name": "setIsAmmEnabled",
      "outputs": [],
      "stateMutability": "nonpayable",
      "type": "function"
    },
    {
      "inputs": [
        {
          "internalType": "bool",
          "name": "_isEnabled",
          "type": "bool"
        }
      ],
      "name": "setIsSecondaryPriceEnabled",
      "outputs": [],
      "stateMutability": "nonpayable",
      "type": "function"
    },
    {
      "inputs": [
        {
          "internalType": "uint256",
          "name": "_maxStrictPriceDeviation",
          "type": "uint256"
        }
      ],
      "name": "setMaxStrictPriceDeviation",
      "outputs": [],
      "stateMutability": "nonpayable",
      "type": "function"
    },
    {
      "inputs": [
        {
          "internalType": "address",
          "name": "_bnbBusd",
          "type": "address"
        },
        {
          "internalType": "address",
          "name": "_ethBnb",
          "type": "address"
        },
        {
          "internalType": "address",
          "name": "_btcBnb",
          "type": "address"
        }
      ],
      "name": "setPairs",
      "outputs": [],
      "stateMutability": "nonpayable",
      "type": "function"
    },
    {
      "inputs": [
        {
          "internalType": "uint256",
          "name": "_priceSampleSpace",
          "type": "uint256"
        }
      ],
      "name": "setPriceSampleSpace",
      "outputs": [],
      "stateMutability": "nonpayable",
      "type": "function"
    },
    {
      "inputs": [
        {
          "internalType": "address",
          "name": "_secondaryPriceFeed",
          "type": "address"
        }
      ],
      "name": "setSecondaryPriceFeed",
      "outputs": [],
      "stateMutability": "nonpayable",
      "type": "function"
    },
    {
      "inputs": [
        {
          "internalType": "address",
          "name": "_token",
          "type": "address"
        },
        {
          "internalType": "uint256",
          "name": "_spreadBasisPoints",
          "type": "uint256"
        }
      ],
      "name": "setSpreadBasisPoints",
      "outputs": [],
      "stateMutability": "nonpayable",
      "type": "function"
    },
    {
      "inputs": [
        {
          "internalType": "uint256",
          "name": "_spreadThresholdBasisPoints",
          "type": "uint256"
        }
      ],
      "name": "setSpreadThresholdBasisPoints",
      "outputs": [],
      "stateMutability": "nonpayable",
      "type": "function"
    },
    {
      "inputs": [
        {
          "internalType": "address",
          "name": "_token",
          "type": "address"
        },
        {
          "internalType": "address",
          "name": "_priceFeed",
          "type": "address"
        },
        {
          "internalType": "uint256",
          "name": "_priceDecimals",
          "type": "uint256"
        },
        {
          "internalType": "bool",
          "name": "_isStrictStable",
          "type": "bool"
        }
      ],
      "name": "setTokenConfig",
      "outputs": [],
      "stateMutability": "nonpayable",
      "type": "function"
    },
    {
      "inputs": [
        {
          "internalType": "address",
          "name": "_btc",
          "type": "address"
        },
        {
          "internalType": "address",
          "name": "_eth",
          "type": "address"
        },
        {
          "internalType": "address",
          "name": "_bnb",
          "type": "address"
        }
      ],
      "name": "setTokens",
      "outputs": [],
      "stateMutability": "nonpayable",
      "type": "function"
    },
    {
      "inputs": [
        {
          "internalType": "bool",
          "name": "_useV2Pricing",
          "type": "bool"
        }
      ],
      "name": "setUseV2Pricing",
      "outputs": [],
      "stateMutability": "nonpayable",
      "type": "function"
    },
    {
      "inputs": [
        {
          "internalType": "address",
          "name": "",
          "type": "address"
        }
      ],
      "name": "spreadBasisPoints",
      "outputs": [
        {
          "internalType": "uint256",
          "name": "",
          "type": "uint256"
        }
      ],
      "stateMutability": "view",
      "type": "function"
    },
    {
      "inputs": [],
      "name": "spreadThresholdBasisPoints",
      "outputs": [
        {
          "internalType": "uint256",
          "name": "",
          "type": "uint256"
        }
      ],
      "stateMutability": "view",
      "type": "function"
    },
    {
      "inputs": [
        {
          "internalType": "address",
          "name": "",
          "type": "address"
        }
      ],
      "name": "strictStableTokens",
      "outputs": [
        {
          "internalType": "bool",
          "name": "",
          "type": "bool"
        }
      ],
      "stateMutability": "view",
      "type": "function"
    },
    {
      "inputs": [],
      "name": "useV2Pricing",
      "outputs": [
        {
          "internalType": "bool",
          "name": "",
          "type": "bool"
        }
      ],
      "stateMutability": "view",
      "type": "function"
    }
  ],
  "bytecode": "0x60806040526001805461ffff60b01b1960ff60a81b1960ff60a01b19909216600160a01b1791909116600160a81b1716815560025560006003819055601e60055560065534801561004f57600080fd5b50600080546001600160a01b03191633179055612748806100716000396000f3fe608060405234801561001057600080fd5b506004361061035d5760003560e01c8063717cfe7a116101d3578063a27ea38611610104578063c2138d8c116100a2578063d694376c1161007c578063d694376c14610958578063e4440e021461098c578063eb1c92a914610994578063fd34ec40146109b35761035d565b8063c2138d8c146108e6578063cefe0f211461090c578063cfad57a2146109325761035d565b8063a39c73a3116100de578063a39c73a314610867578063b02a2de41461086f578063b731dd87146108a3578063b8f61105146108c05761035d565b8063a27ea3861461080b578063a28d57d814610831578063a2ad7b93146108395761035d565b8063971bd396116101715780639a0a66351161014b5780639a0a66351461078b5780639b18dc47146107b15780639b889380146107b95780639dcb511a146107e55761035d565b8063971bd3961461075c57806397dfade7146107645780639917dc741461076c5761035d565b80638b86616c116101ad5780638b86616c146107145780638c7c9e0c1461071c57806393f690741461072457806395082d251461065c5761035d565b8063717cfe7a14610692578063732391b4146106b8578063826e055f146106ee5761035d565b80633eba8d36116102ad5780634b9ade471161024b578063604f37e911610225578063604f37e91461063d57806367781c0e1461065c5780636ce8a44b146106645780636fc807081461068a5761035d565b80634b9ade47146105c957806356c8c2c114610607578063593d9e80146106355761035d565b8063443be20911610287578063443be2091461055b57806348cac2771461059357806349a876e4146105b95780634a4b1f4f146105c15761035d565b80633eba8d36146105175780633ebbc6011461054b5780633f0c3bb7146105535761035d565b806329adf8ba1161031a5780632fc3a70a116102f45780632fc3a70a1461047f57806330536ee5146104bd578063378e7bf7146104d95780633d949c5f146104e15761035d565b806329adf8ba146103d75780632fa03b8f146104455780632fbfe3d3146104625761035d565b80630957aed9146103625780630a7e896e1461037c5780630ed77ee21461039b5780631193c809146103a3578063126082cf146103c757806312d43a51146103cf575b600080fd5b61036a6109d2565b60408051918252519081900360200190f35b6103996004803603602081101561039257600080fd5b50356109d7565b005b61036a610a29565b6103ab610a2f565b604080516001600160a01b039092168252519081900360200190f35b61036a610a3e565b6103ab610a44565b610399600480360360208110156103ed57600080fd5b810190602081018135600160201b81111561040757600080fd5b82018360208201111561041957600080fd5b803590602001918460018302840111600160201b8311171561043a57600080fd5b509092509050610a53565b6103996004803603602081101561045b57600080fd5b5035611021565b6103996004803603602081101561047857600080fd5b50356110b2565b61036a6004803603608081101561049557600080fd5b506001600160a01b038135169060208101351515906040810135151590606001351515611104565b6104c56111c2565b604080519115158252519081900360200190f35b61036a6111d2565b61036a600480360360608110156104f757600080fd5b506001600160a01b038135169060208101351515906040013515156111d8565b61036a6004803603606081101561052d57600080fd5b506001600160a01b038135169060208101359060400135151561134d565b6104c56113fb565b6104c561140b565b6103996004803603606081101561057157600080fd5b506001600160a01b03813581169160208101358216916040909101351661141b565b61036a600480360360208110156105a957600080fd5b50356001600160a01b03166114a7565b6103ab6114b9565b61036a6114c8565b610399600480360360808110156105df57600080fd5b506001600160a01b0381358116916020810135909116906040810135906060013515156114cd565b61036a6004803603604081101561061d57600080fd5b506001600160a01b038135169060200135151561156f565b6104c56119b3565b6103996004803603602081101561065357600080fd5b503515156119c3565b61036a611a2e565b6104c56004803603602081101561067a57600080fd5b50356001600160a01b0316611a3e565b61036a611a53565b61036a600480360360208110156106a857600080fd5b50356001600160a01b0316611a59565b61036a600480360360608110156106ce57600080fd5b506001600160a01b03813516906020810135151590604001351515611a6b565b6103996004803603602081101561070457600080fd5b50356001600160a01b0316611ac0565b6103ab611b2f565b6103ab611b3e565b6103996004803603606081101561073a57600080fd5b506001600160a01b038135811691602081013582169160409091013516611b4d565b6103ab611bd9565b6103ab611be8565b6103996004803603602081101561078257600080fd5b50351515611bf7565b610399600480360360208110156107a157600080fd5b50356001600160a01b0316611c62565b61036a611cd1565b610399600480360360408110156107cf57600080fd5b506001600160a01b038135169060200135611cd7565b6103ab600480360360208110156107fb57600080fd5b50356001600160a01b0316611d80565b61036a6004803603602081101561082157600080fd5b50356001600160a01b0316611d9b565b6103ab611dad565b61036a6004803603604081101561084f57600080fd5b506001600160a01b0381351690602001351515611dbc565b61036a611eb0565b61036a6004803603606081101561088557600080fd5b506001600160a01b0381351690602081013515159060400135611eb6565b610399600480360360208110156108b957600080fd5b5035611f7e565b6104c5600480360360208110156108d657600080fd5b50356001600160a01b0316611fd0565b61036a600480360360208110156108fc57600080fd5b50356001600160a01b0316611fe5565b61036a6004803603602081101561092257600080fd5b50356001600160a01b03166120e4565b6103996004803603602081101561094857600080fd5b50356001600160a01b03166120f6565b6103996004803603606081101561096e57600080fd5b506001600160a01b0381351690602081013515159060400135612165565b6103ab6122a8565b610399600480360360208110156109aa57600080fd5b503515156122b7565b610399600480360360208110156109c957600080fd5b50351515612322565b603281565b6000546001600160a01b03163314610a24576040805162461bcd60e51b81526020600482015260196024820152600080516020612682833981519152604482015290519081900360640190fd5b600655565b60065481565b600b546001600160a01b031681565b61271081565b6000546001600160a01b031681565b6040805160008082526020820181815282840182815260608085018481526080860185815260a08701909752939592939192905060606041815181610a9457fe5b0615610a9c57fe5b866041825181610aa857fe5b0414610ab057fe5b888860e0811015610ac057600080fd5b81359190810190604081016020820135600160201b811115610ae157600080fd5b820183602082011115610af357600080fd5b803590602001918460208302840111600160201b83111715610b1457600080fd5b9190808060200260200160405190810160405280939291908181526020018383602002808284376000920191909152509295949360208101935035915050600160201b811115610b6357600080fd5b820183602082011115610b7557600080fd5b803590602001918460208302840111600160201b83111715610b9657600080fd5b9190808060200260200160405190810160405280939291908181526020018383602002808284376000920191909152509295949360208101935035915050600160201b811115610be557600080fd5b820183602082011115610bf757600080fd5b803590602001918460208302840111600160201b83111715610c1857600080fd5b9190808060200260200160405190810160405280939291908181526020018383602002808284376000920191909152509295949360208101935035915050600160201b811115610c6757600080fd5b820183602082011115610c7957600080fd5b803590602001918460208302840111600160201b83111715610c9a57600080fd5b9190808060200260200160405190810160405280939291908181526020018383602002808284376000920191909152509295949360208101935035915050600160201b811115610ce957600080fd5b820183602082011115610cfb57600080fd5b803590602001918460208302840111600160201b83111715610d1c57600080fd5b9190808060200260200160405190810160405280939291908181526020018383602002808284376000920191909152509295949360208101935035915050600160201b811115610d6b57600080fd5b820183602082011115610d7d57600080fd5b803590602001918460018302840111600160201b83111715610d9e57600080fd5b91908080601f016020809104026020016040519081016040528093929190818152602001838380828437600081840152601f19601f820116905080830192505050505050509192919290505050809750819850829950839a50849b50859c50869d505050505050505060005b878110156110155760408051604180825260808201909252828202916060919060208201818036833701905050905060005b6041811015610e89578483820181518110610e5357fe5b602001015160f81c60f81b828281518110610e6a57fe5b60200101906001600160f81b031916908160001a905350600101610e3c565b506000600d60008b8681518110610e9c57fe5b60200260200101516001600160a01b03166001600160a01b0316815260200190815260200160002060009054906101000a90046001600160a01b03169050806001600160a01b0316634509bf298a8681518110610ef557fe5b60200260200101518a8781518110610f0957fe5b60200260200101518a8881518110610f1d57fe5b60200260200101518a8981518110610f3157fe5b6020026020010151876040518663ffffffff1660e01b81526004018086815260200185815260200184815260200183815260200180602001828103825283818151815260200191508051906020019080838360005b83811015610f9e578181015183820152602001610f86565b50505050905090810190601f168015610fcb5780820380516001836020036101000a031916815260200191505b509650505050505050600060405180830381600087803b158015610fee57600080fd5b505af1158015611002573d6000803e3d6000fd5b505060019095019450610e0a9350505050565b50505050505050505050565b6000546001600160a01b0316331461106e576040805162461bcd60e51b81526020600482015260196024820152600080516020612682833981519152604482015290519081900360640190fd5b600081116110ad5760405162461bcd60e51b81526004018080602001828103825260298152602001806125c16029913960400191505060405180910390fd5b600255565b6000546001600160a01b031633146110ff576040805162461bcd60e51b81526020600482015260196024820152600080516020612682833981519152604482015290519081900360640190fd5b600355565b6001546000908190600160b01b900460ff1661112a576111258686866111d8565b611135565b611135868686611a6b565b6001600160a01b03871660009081526011602052604090205490915080156111b8576001600160a01b03871660009081526012602052604090205460ff1680156111a05761119961271061119361118c828661238d565b86906123e7565b90612440565b92506111b6565b6111b361271061119361118c8286612482565b92505b505b5095945050505050565b600154600160b01b900460ff1681565b60035481565b6000806111e5858561156f565b90508280156111fd5750600154600160a01b900460ff165b1561124257600061120d86611fe5565b905080156112405784801561122157508181115b1561122a578091505b8415801561123757508181105b15611240578091505b505b600154600160a81b900460ff16156112625761125f85828661134d565b90505b6001600160a01b03851660009081526010602052604090205460ff16156112ec57600068327cb2734119d3b7a9601e1b82116112b3576112ae68327cb2734119d3b7a9601e1b83612482565b6112c9565b6112c98268327cb2734119d3b7a9601e1b612482565b905060035481116112ea5768327cb2734119d3b7a9601e1b92505050611346565b505b6001600160a01b0385166000908152600f6020526040902054841561132e5761132561271061119361131e828561238d565b85906123e7565b92505050611346565b61134161271061119361131e8285612482565b925050505b9392505050565b6004546000906001600160a01b0316611367575081611346565b6004805460408051630ffd9c6d60e31b81526001600160a01b038881169482019490945260248101879052851515604482015290519290911691637fece36891606480820192602092909190829003018186803b1580156113c757600080fd5b505afa1580156113db573d6000803e3d6000fd5b505050506040513d60208110156113f157600080fd5b5051949350505050565b600154600160a81b900460ff1681565b600154600160a01b900460ff1681565b6000546001600160a01b03163314611468576040805162461bcd60e51b81526020600482015260196024820152600080516020612682833981519152604482015290519081900360640190fd5b600780546001600160a01b039485166001600160a01b031991821617909155600880549385169382169390931790925560098054919093169116179055565b60116020526000908152604090205481565b6009546001600160a01b031681565b601481565b6000546001600160a01b0316331461151a576040805162461bcd60e51b81526020600482015260196024820152600080516020612682833981519152604482015290519081900360640190fd5b6001600160a01b039384166000908152600d6020908152604080832080546001600160a01b0319169690971695909517909555600e855283812092909255601090935220805460ff1916911515919091179055565b6001600160a01b038083166000908152600d6020526040812054909116806115c85760405162461bcd60e51b81526004018080602001828103825260228152602001806126f16022913960400191505060405180910390fd5b6001546001600160a01b0316156116a55760015460408051631abf23ff60e11b815273a438451d6458044c3c8cd2f6f31c91ac882a6d91600482015290516000926001600160a01b03169163357e47fe916024808301926020929190829003018186803b15801561163857600080fd5b505afa15801561164c573d6000803e3d6000fd5b505050506040513d602081101561166257600080fd5b5051905080156116a35760405162461bcd60e51b81526004018080602001828103825260258152602001806126a26025913960400191505060405180910390fd5b505b6000819050600080806000846001600160a01b031663feaf968c6040518163ffffffff1660e01b815260040160a06040518083038186803b1580156116e957600080fd5b505afa1580156116fd573d6000803e3d6000fd5b505050506040513d60a081101561171357600080fd5b5080516020820151606090920151600654919550919350909150810142111561176d5760405162461bcd60e51b81526004018080602001828103825260258152602001806126306025913960400191505060405180910390fd5b60005b600254816001600160501b0316101561192c57806001600160501b0316846001600160501b0316116117a15761192c565b60006001600160501b03821661180e578360008113611807576040805162461bcd60e51b815260206004820152601d60248201527f5661756c745072696365466565643a20696e76616c6964207072696365000000604482015290519081900360640190fd5b90506118e8565b6000876001600160a01b0316639a6fc8f58488036040518263ffffffff1660e01b815260040180826001600160501b0316815260200191505060a06040518083038186803b15801561185f57600080fd5b505afa158015611873573d6000803e3d6000fd5b505050506040513d60a081101561188957600080fd5b50602001519050600081136118e5576040805162461bcd60e51b815260206004820152601d60248201527f5661756c745072696365466565643a20696e76616c6964207072696365000000604482015290519081900360640190fd5b90505b856118f4579450611924565b89801561190057508581115b1561190c579450611924565b8915801561191957508581105b15611922578095505b505b600101611770565b506000841161196c5760405162461bcd60e51b81526004018080602001828103825260258152602001806125ea6025913960400191505060405180910390fd5b6001600160a01b0389166000908152600e60205260409020546119a3600a82900a6111938768327cb2734119d3b7a9601e1b6123e7565b9750505050505050505b92915050565b600154600160b81b900460ff1681565b6000546001600160a01b03163314611a10576040805162461bcd60e51b81526020600482015260196024820152600080516020612682833981519152604482015290519081900360640190fd5b60018054911515600160b81b0260ff60b81b19909216919091179055565b68327cb2734119d3b7a9601e1b81565b60126020526000908152604090205460ff1681565b60025481565b60136020526000908152604090205481565b600080611a78858561156f565b9050828015611a905750600154600160a01b900460ff165b1561124257611aa0858583611eb6565b905060015460ff600160a81b90910416156112625761125f85828661134d565b6000546001600160a01b03163314611b0d576040805162461bcd60e51b81526020600482015260196024820152600080516020612682833981519152604482015290519081900360640190fd5b600180546001600160a01b0319166001600160a01b0392909216919091179055565b6004546001600160a01b031681565b6008546001600160a01b031681565b6000546001600160a01b03163314611b9a576040805162461bcd60e51b81526020600482015260196024820152600080516020612682833981519152604482015290519081900360640190fd5b600a80546001600160a01b039485166001600160a01b031991821617909155600b805493851693821693909317909255600c8054919093169116179055565b600c546001600160a01b031681565b600a546001600160a01b031681565b6000546001600160a01b03163314611c44576040805162461bcd60e51b81526020600482015260196024820152600080516020612682833981519152604482015290519081900360640190fd5b60018054911515600160a01b0260ff60a01b19909216919091179055565b6000546001600160a01b03163314611caf576040805162461bcd60e51b81526020600482015260196024820152600080516020612682833981519152604482015290519081900360640190fd5b600480546001600160a01b0319166001600160a01b0392909216919091179055565b611c2081565b6000546001600160a01b03163314611d24576040805162461bcd60e51b81526020600482015260196024820152600080516020612682833981519152604482015290519081900360640190fd5b6032811115611d645760405162461bcd60e51b815260040180806020018281038252602a8152602001806126c7602a913960400191505060405180910390fd5b6001600160a01b039091166000908152600f6020526040902055565b600d602052600090815260409020546001600160a01b031681565b600f6020526000908152604090205481565b6007546001600160a01b031681565b6000806000846001600160a01b0316630902f1ac6040518163ffffffff1660e01b815260040160606040518083038186803b158015611dfa57600080fd5b505afa158015611e0e573d6000803e3d6000fd5b505050506040513d6060811015611e2457600080fd5b5080516020909101516dffffffffffffffffffffffffffff91821693501690508315611e7d5781611e5a576000925050506119ad565b611e74826111938368327cb2734119d3b7a9601e1b6123e7565b925050506119ad565b80611e8d576000925050506119ad565b611ea7816111938468327cb2734119d3b7a9601e1b6123e7565b95945050505050565b60055481565b600080611ec285611fe5565b905080611ed25782915050611346565b6000838211611eea57611ee58483612482565b611ef4565b611ef48285612482565b9050611f0b600554856123e790919063ffffffff16565b611f17826127106123e7565b1015611f4157600154600160b81b900460ff1615611f39578392505050611346565b509050611346565b848015611f4d57508382115b15611f5a57509050611346565b84158015611f6757508382105b15611f7457509050611346565b5091949350505050565b6000546001600160a01b03163314611fcb576040805162461bcd60e51b81526020600482015260196024820152600080516020612682833981519152604482015290519081900360640190fd5b600555565b60106020526000908152604090205460ff1681565b6009546000906001600160a01b038381169116141561201c57600a54612015906001600160a01b03166001611dbc565b90506120df565b6008546001600160a01b038381169116141561208e57600a5460009061204c906001600160a01b03166001611dbc565b600b54909150600090612069906001600160a01b03166001611dbc565b905061208568327cb2734119d3b7a9601e1b61119384846123e7565b925050506120df565b6007546001600160a01b03838116911614156120db57600a546000906120be906001600160a01b03166001611dbc565b600c54909150600090612069906001600160a01b03166001611dbc565b5060005b919050565b600e6020526000908152604090205481565b6000546001600160a01b03163314612143576040805162461bcd60e51b81526020600482015260196024820152600080516020612682833981519152604482015290519081900360640190fd5b600080546001600160a01b0319166001600160a01b0392909216919091179055565b6000546001600160a01b031633146121b2576040805162461bcd60e51b81526020600482015260196024820152600080516020612682833981519152604482015290519081900360640190fd5b6001600160a01b03831660009081526013602052604090205442906121d990611c2061238d565b106122155760405162461bcd60e51b815260040180806020018281038252602d815260200180612655602d913960400191505060405180910390fd5b6014811115612264576040805162461bcd60e51b8152602060048201526016602482015275696e76616c6964205f61646a7573746d656e7442707360501b604482015290519081900360640190fd5b6001600160a01b03929092166000908152601260209081526040808320805460ff191694151594909417909355601181528282209390935560139092529020429055565b6001546001600160a01b031681565b6000546001600160a01b03163314612304576040805162461bcd60e51b81526020600482015260196024820152600080516020612682833981519152604482015290519081900360640190fd5b60018054911515600160a81b0260ff60a81b19909216919091179055565b6000546001600160a01b0316331461236f576040805162461bcd60e51b81526020600482015260196024820152600080516020612682833981519152604482015290519081900360640190fd5b60018054911515600160b01b0260ff60b01b19909216919091179055565b600082820183811015611346576040805162461bcd60e51b815260206004820152601b60248201527f536166654d6174683a206164646974696f6e206f766572666c6f770000000000604482015290519081900360640190fd5b6000826123f6575060006119ad565b8282028284828161240357fe5b04146113465760405162461bcd60e51b815260040180806020018281038252602181526020018061260f6021913960400191505060405180910390fd5b600061134683836040518060400160405280601a81526020017f536166654d6174683a206469766973696f6e206279207a65726f0000000000008152506124c4565b600061134683836040518060400160405280601e81526020017f536166654d6174683a207375627472616374696f6e206f766572666c6f770000815250612566565b600081836125505760405162461bcd60e51b81526004018080602001828103825283818151815260200191508051906020019080838360005b838110156125155781810151838201526020016124fd565b50505050905090810190601f1680156125425780820380516001836020036101000a031916815260200191505b509250505060405180910390fd5b50600083858161255c57fe5b0495945050505050565b600081848411156125b85760405162461bcd60e51b81526020600482018181528351602484015283519092839260449091019190850190808383600083156125155781810151838201526020016124fd565b50505090039056fe5661756c745072696365466565643a20696e76616c6964205f707269636553616d706c6553706163655661756c745072696365466565643a20636f756c64206e6f74206665746368207072696365536166654d6174683a206d756c7469706c69636174696f6e206f766572666c6f775661756c745072696365466565643a204d757374207375626d6974206e65772070726963655661756c745072696365466565643a2061646a7573746d656e74206672657175656e63792065786365656465645661756c745072696365466565643a20666f7262696464656e00000000000000436861696e6c696e6b20666565647320617265206e6f74206265696e6720757064617465645661756c745072696365466565643a20696e76616c6964205f7370726561644261736973506f696e74735661756c745072696365466565643a20696e76616c69642070726963652066656564a264697066735822122084514c71b308ffe53fdd29ba0504e0dd33da8a8c0f8e2a80211e49a720d31bf764736f6c634300060c0033",
  "linkReferences": {},
  "deployedLinkReferences": {}
}