{
  "_format": "hh-sol-artifact-1",
  "contractName": "Vault",
  "sourceName": "contracts/core/Vault.sol",
  "abi": [
    {
      "anonymous": false,
      "inputs": [
        {
          "indexed": false,
          "internalType": "address",
          "name": "account",
          "type": "address"
        },
        {
          "indexed": false,
          "internalType": "address",
          "name": "token",
          "type": "address"
        },
        {
          "indexed": false,
          "internalType": "uint256",
          "name": "tokenAmount",
          "type": "uint256"
        },
        {
          "indexed": false,
          "internalType": "uint256",
          "name": "usdgAmount",
          "type": "uint256"
        },
        {
          "indexed": false,
          "internalType": "uint256",
          "name": "feeBasisPoints",
          "type": "uint256"
        }
      ],
      "name": "BuyUSDG",
      "type": "event"
    },
    {
      "anonymous": false,
      "inputs": [
        {
          "indexed": false,
          "internalType": "bytes32",
          "name": "key",
          "type": "bytes32"
        },
        {
          "indexed": false,
          "internalType": "uint256",
          "name": "size",
          "type": "uint256"
        },
        {
          "indexed": false,
          "internalType": "uint256",
          "name": "collateral",
          "type": "uint256"
        },
        {
          "indexed": false,
          "internalType": "uint256",
          "name": "averagePrice",
          "type": "uint256"
        },
        {
          "indexed": false,
          "internalType": "uint256",
          "name": "entryFundingRate",
          "type": "uint256"
        },
        {
          "indexed": false,
          "internalType": "uint256",
          "name": "reserveAmount",
          "type": "uint256"
        },
        {
          "indexed": false,
          "internalType": "int256",
          "name": "realisedPnl",
          "type": "int256"
        }
      ],
      "name": "ClosePosition",
      "type": "event"
    },
    {
      "anonymous": false,
      "inputs": [
        {
          "indexed": false,
          "internalType": "address",
          "name": "token",
          "type": "address"
        },
        {
          "indexed": false,
          "internalType": "uint256",
          "name": "feeUsd",
          "type": "uint256"
        },
        {
          "indexed": false,
          "internalType": "uint256",
          "name": "feeTokens",
          "type": "uint256"
        }
      ],
      "name": "CollectMarginFees",
      "type": "event"
    },
    {
      "anonymous": false,
      "inputs": [
        {
          "indexed": false,
          "internalType": "address",
          "name": "token",
          "type": "address"
        },
        {
          "indexed": false,
          "internalType": "uint256",
          "name": "feeUsd",
          "type": "uint256"
        },
        {
          "indexed": false,
          "internalType": "uint256",
          "name": "feeTokens",
          "type": "uint256"
        }
      ],
      "name": "CollectSwapFees",
      "type": "event"
    },
    {
      "anonymous": false,
      "inputs": [
        {
          "indexed": false,
          "internalType": "address",
          "name": "token",
          "type": "address"
        },
        {
          "indexed": false,
          "internalType": "uint256",
          "name": "amount",
          "type": "uint256"
        }
      ],
      "name": "DecreaseGuaranteedUsd",
      "type": "event"
    },
    {
      "anonymous": false,
      "inputs": [
        {
          "indexed": false,
          "internalType": "address",
          "name": "token",
          "type": "address"
        },
        {
          "indexed": false,
          "internalType": "uint256",
          "name": "amount",
          "type": "uint256"
        }
      ],
      "name": "DecreasePoolAmount",
      "type": "event"
    },
    {
      "anonymous": false,
      "inputs": [
        {
          "indexed": false,
          "internalType": "bytes32",
          "name": "key",
          "type": "bytes32"
        },
        {
          "indexed": false,
          "internalType": "address",
          "name": "account",
          "type": "address"
        },
        {
          "indexed": false,
          "internalType": "address",
          "name": "collateralToken",
          "type": "address"
        },
        {
          "indexed": false,
          "internalType": "address",
          "name": "indexToken",
          "type": "address"
        },
        {
          "indexed": false,
          "internalType": "uint256",
          "name": "collateralDelta",
          "type": "uint256"
        },
        {
          "indexed": false,
          "internalType": "uint256",
          "name": "sizeDelta",
          "type": "uint256"
        },
        {
          "indexed": false,
          "internalType": "bool",
          "name": "isLong",
          "type": "bool"
        },
        {
          "indexed": false,
          "internalType": "uint256",
          "name": "price",
          "type": "uint256"
        },
        {
          "indexed": false,
          "internalType": "uint256",
          "name": "fee",
          "type": "uint256"
        }
      ],
      "name": "DecreasePosition",
      "type": "event"
    },
    {
      "anonymous": false,
      "inputs": [
        {
          "indexed": false,
          "internalType": "address",
          "name": "token",
          "type": "address"
        },
        {
          "indexed": false,
          "internalType": "uint256",
          "name": "amount",
          "type": "uint256"
        }
      ],
      "name": "DecreaseReservedAmount",
      "type": "event"
    },
    {
      "anonymous": false,
      "inputs": [
        {
          "indexed": false,
          "internalType": "address",
          "name": "token",
          "type": "address"
        },
        {
          "indexed": false,
          "internalType": "uint256",
          "name": "amount",
          "type": "uint256"
        }
      ],
      "name": "DecreaseUsdgAmount",
      "type": "event"
    },
    {
      "anonymous": false,
      "inputs": [
        {
          "indexed": false,
          "internalType": "address",
          "name": "token",
          "type": "address"
        },
        {
          "indexed": false,
          "internalType": "uint256",
          "name": "amount",
          "type": "uint256"
        }
      ],
      "name": "DirectPoolDeposit",
      "type": "event"
    },
    {
      "anonymous": false,
      "inputs": [
        {
          "indexed": false,
          "internalType": "address",
          "name": "token",
          "type": "address"
        },
        {
          "indexed": false,
          "internalType": "uint256",
          "name": "amount",
          "type": "uint256"
        }
      ],
      "name": "IncreaseGuaranteedUsd",
      "type": "event"
    },
    {
      "anonymous": false,
      "inputs": [
        {
          "indexed": false,
          "internalType": "address",
          "name": "token",
          "type": "address"
        },
        {
          "indexed": false,
          "internalType": "uint256",
          "name": "amount",
          "type": "uint256"
        }
      ],
      "name": "IncreasePoolAmount",
      "type": "event"
    },
    {
      "anonymous": false,
      "inputs": [
        {
          "indexed": false,
          "internalType": "bytes32",
          "name": "key",
          "type": "bytes32"
        },
        {
          "indexed": false,
          "internalType": "address",
          "name": "account",
          "type": "address"
        },
        {
          "indexed": false,
          "internalType": "address",
          "name": "collateralToken",
          "type": "address"
        },
        {
          "indexed": false,
          "internalType": "address",
          "name": "indexToken",
          "type": "address"
        },
        {
          "indexed": false,
          "internalType": "uint256",
          "name": "collateralDelta",
          "type": "uint256"
        },
        {
          "indexed": false,
          "internalType": "uint256",
          "name": "sizeDelta",
          "type": "uint256"
        },
        {
          "indexed": false,
          "internalType": "bool",
          "name": "isLong",
          "type": "bool"
        },
        {
          "indexed": false,
          "internalType": "uint256",
          "name": "price",
          "type": "uint256"
        },
        {
          "indexed": false,
          "internalType": "uint256",
          "name": "fee",
          "type": "uint256"
        }
      ],
      "name": "IncreasePosition",
      "type": "event"
    },
    {
      "anonymous": false,
      "inputs": [
        {
          "indexed": false,
          "internalType": "address",
          "name": "token",
          "type": "address"
        },
        {
          "indexed": false,
          "internalType": "uint256",
          "name": "amount",
          "type": "uint256"
        }
      ],
      "name": "IncreaseReservedAmount",
      "type": "event"
    },
    {
      "anonymous": false,
      "inputs": [
        {
          "indexed": false,
          "internalType": "address",
          "name": "token",
          "type": "address"
        },
        {
          "indexed": false,
          "internalType": "uint256",
          "name": "amount",
          "type": "uint256"
        }
      ],
      "name": "IncreaseUsdgAmount",
      "type": "event"
    },
    {
      "anonymous": false,
      "inputs": [
        {
          "indexed": false,
          "internalType": "bytes32",
          "name": "key",
          "type": "bytes32"
        },
        {
          "indexed": false,
          "internalType": "address",
          "name": "account",
          "type": "address"
        },
        {
          "indexed": false,
          "internalType": "address",
          "name": "collateralToken",
          "type": "address"
        },
        {
          "indexed": false,
          "internalType": "address",
          "name": "indexToken",
          "type": "address"
        },
        {
          "indexed": false,
          "internalType": "bool",
          "name": "isLong",
          "type": "bool"
        },
        {
          "indexed": false,
          "internalType": "uint256",
          "name": "size",
          "type": "uint256"
        },
        {
          "indexed": false,
          "internalType": "uint256",
          "name": "collateral",
          "type": "uint256"
        },
        {
          "indexed": false,
          "internalType": "uint256",
          "name": "reserveAmount",
          "type": "uint256"
        },
        {
          "indexed": false,
          "internalType": "int256",
          "name": "realisedPnl",
          "type": "int256"
        },
        {
          "indexed": false,
          "internalType": "uint256",
          "name": "markPrice",
          "type": "uint256"
        }
      ],
      "name": "LiquidatePosition",
      "type": "event"
    },
    {
      "anonymous": false,
      "inputs": [
        {
          "indexed": false,
          "internalType": "address",
          "name": "account",
          "type": "address"
        },
        {
          "indexed": false,
          "internalType": "address",
          "name": "token",
          "type": "address"
        },
        {
          "indexed": false,
          "internalType": "uint256",
          "name": "usdgAmount",
          "type": "uint256"
        },
        {
          "indexed": false,
          "internalType": "uint256",
          "name": "tokenAmount",
          "type": "uint256"
        },
        {
          "indexed": false,
          "internalType": "uint256",
          "name": "feeBasisPoints",
          "type": "uint256"
        }
      ],
      "name": "SellUSDG",
      "type": "event"
    },
    {
      "anonymous": false,
      "inputs": [
        {
          "indexed": false,
          "internalType": "address",
          "name": "account",
          "type": "address"
        },
        {
          "indexed": false,
          "internalType": "address",
          "name": "tokenIn",
          "type": "address"
        },
        {
          "indexed": false,
          "internalType": "address",
          "name": "tokenOut",
          "type": "address"
        },
        {
          "indexed": false,
          "internalType": "uint256",
          "name": "amountIn",
          "type": "uint256"
        },
        {
          "indexed": false,
          "internalType": "uint256",
          "name": "amountOut",
          "type": "uint256"
        },
        {
          "indexed": false,
          "internalType": "uint256",
          "name": "amountOutAfterFees",
          "type": "uint256"
        },
        {
          "indexed": false,
          "internalType": "uint256",
          "name": "feeBasisPoints",
          "type": "uint256"
        }
      ],
      "name": "Swap",
      "type": "event"
    },
    {
      "anonymous": false,
      "inputs": [
        {
          "indexed": false,
          "internalType": "address",
          "name": "token",
          "type": "address"
        },
        {
          "indexed": false,
          "internalType": "uint256",
          "name": "fundingRate",
          "type": "uint256"
        }
      ],
      "name": "UpdateFundingRate",
      "type": "event"
    },
    {
      "anonymous": false,
      "inputs": [
        {
          "indexed": false,
          "internalType": "bytes32",
          "name": "key",
          "type": "bytes32"
        },
        {
          "indexed": false,
          "internalType": "bool",
          "name": "hasProfit",
          "type": "bool"
        },
        {
          "indexed": false,
          "internalType": "uint256",
          "name": "delta",
          "type": "uint256"
        }
      ],
      "name": "UpdatePnl",
      "type": "event"
    },
    {
      "anonymous": false,
      "inputs": [
        {
          "indexed": false,
          "internalType": "bytes32",
          "name": "key",
          "type": "bytes32"
        },
        {
          "indexed": false,
          "internalType": "uint256",
          "name": "size",
          "type": "uint256"
        },
        {
          "indexed": false,
          "internalType": "uint256",
          "name": "collateral",
          "type": "uint256"
        },
        {
          "indexed": false,
          "internalType": "uint256",
          "name": "averagePrice",
          "type": "uint256"
        },
        {
          "indexed": false,
          "internalType": "uint256",
          "name": "entryFundingRate",
          "type": "uint256"
        },
        {
          "indexed": false,
          "internalType": "uint256",
          "name": "reserveAmount",
          "type": "uint256"
        },
        {
          "indexed": false,
          "internalType": "int256",
          "name": "realisedPnl",
          "type": "int256"
        },
        {
          "indexed": false,
          "internalType": "uint256",
          "name": "markPrice",
          "type": "uint256"
        }
      ],
      "name": "UpdatePosition",
      "type": "event"
    },
    {
      "inputs": [],
      "name": "BASIS_POINTS_DIVISOR",
      "outputs": [
        {
          "internalType": "uint256",
          "name": "",
          "type": "uint256"
        }
      ],
      "stateMutability": "view",
      "type": "function"
    },
    {
      "inputs": [],
      "name": "FUNDING_RATE_PRECISION",
      "outputs": [
        {
          "internalType": "uint256",
          "name": "",
          "type": "uint256"
        }
      ],
      "stateMutability": "view",
      "type": "function"
    },
    {
      "inputs": [],
      "name": "MAX_FEE_BASIS_POINTS",
      "outputs": [
        {
          "internalType": "uint256",
          "name": "",
          "type": "uint256"
        }
      ],
      "stateMutability": "view",
      "type": "function"
    },
    {
      "inputs": [],
      "name": "MAX_FUNDING_RATE_FACTOR",
      "outputs": [
        {
          "internalType": "uint256",
          "name": "",
          "type": "uint256"
        }
      ],
      "stateMutability": "view",
      "type": "function"
    },
    {
      "inputs": [],
      "name": "MAX_LIQUIDATION_FEE_USD",
      "outputs": [
        {
          "internalType": "uint256",
          "name": "",
          "type": "uint256"
        }
      ],
      "stateMutability": "view",
      "type": "function"
    },
    {
      "inputs": [],
      "name": "MIN_FUNDING_RATE_INTERVAL",
      "outputs": [
        {
          "internalType": "uint256",
          "name": "",
          "type": "uint256"
        }
      ],
      "stateMutability": "view",
      "type": "function"
    },
    {
      "inputs": [],
      "name": "MIN_LEVERAGE",
      "outputs": [
        {
          "internalType": "uint256",
          "name": "",
          "type": "uint256"
        }
      ],
      "stateMutability": "view",
      "type": "function"
    },
    {
      "inputs": [],
      "name": "PRICE_PRECISION",
      "outputs": [
        {
          "internalType": "uint256",
          "name": "",
          "type": "uint256"
        }
      ],
      "stateMutability": "view",
      "type": "function"
    },
    {
      "inputs": [],
      "name": "USDG_DECIMALS",
      "outputs": [
        {
          "internalType": "uint256",
          "name": "",
          "type": "uint256"
        }
      ],
      "stateMutability": "view",
      "type": "function"
    },
    {
      "inputs": [
        {
          "internalType": "address",
          "name": "_router",
          "type": "address"
        }
      ],
      "name": "addRouter",
      "outputs": [],
      "stateMutability": "nonpayable",
      "type": "function"
    },
    {
      "inputs": [
        {
          "internalType": "uint256",
          "name": "_amount",
          "type": "uint256"
        },
        {
          "internalType": "address",
          "name": "_tokenDiv",
          "type": "address"
        },
        {
          "internalType": "address",
          "name": "_tokenMul",
          "type": "address"
        }
      ],
      "name": "adjustForDecimals",
      "outputs": [
        {
          "internalType": "uint256",
          "name": "",
          "type": "uint256"
        }
      ],
      "stateMutability": "view",
      "type": "function"
    },
    {
      "inputs": [
        {
          "internalType": "uint256",
          "name": "",
          "type": "uint256"
        }
      ],
      "name": "allWhitelistedTokens",
      "outputs": [
        {
          "internalType": "address",
          "name": "",
          "type": "address"
        }
      ],
      "stateMutability": "view",
      "type": "function"
    },
    {
      "inputs": [],
      "name": "allWhitelistedTokensLength",
      "outputs": [
        {
          "internalType": "uint256",
          "name": "",
          "type": "uint256"
        }
      ],
      "stateMutability": "view",
      "type": "function"
    },
    {
      "inputs": [
        {
          "internalType": "address",
          "name": "",
          "type": "address"
        },
        {
          "internalType": "address",
          "name": "",
          "type": "address"
        }
      ],
      "name": "approvedRouters",
      "outputs": [
        {
          "internalType": "bool",
          "name": "",
          "type": "bool"
        }
      ],
      "stateMutability": "view",
      "type": "function"
    },
    {
      "inputs": [
        {
          "internalType": "address",
          "name": "",
          "type": "address"
        }
      ],
      "name": "bufferAmounts",
      "outputs": [
        {
          "internalType": "uint256",
          "name": "",
          "type": "uint256"
        }
      ],
      "stateMutability": "view",
      "type": "function"
    },
    {
      "inputs": [
        {
          "internalType": "address",
          "name": "_token",
          "type": "address"
        },
        {
          "internalType": "address",
          "name": "_receiver",
          "type": "address"
        }
      ],
      "name": "buyUSDG",
      "outputs": [
        {
          "internalType": "uint256",
          "name": "",
          "type": "uint256"
        }
      ],
      "stateMutability": "nonpayable",
      "type": "function"
    },
    {
      "inputs": [
        {
          "internalType": "address",
          "name": "_token",
          "type": "address"
        }
      ],
      "name": "clearTokenConfig",
      "outputs": [],
      "stateMutability": "nonpayable",
      "type": "function"
    },
    {
      "inputs": [
        {
          "internalType": "address",
          "name": "",
          "type": "address"
        }
      ],
      "name": "cumulativeFundingRates",
      "outputs": [
        {
          "internalType": "uint256",
          "name": "",
          "type": "uint256"
        }
      ],
      "stateMutability": "view",
      "type": "function"
    },
    {
      "inputs": [
        {
          "internalType": "address",
          "name": "_account",
          "type": "address"
        },
        {
          "internalType": "address",
          "name": "_collateralToken",
          "type": "address"
        },
        {
          "internalType": "address",
          "name": "_indexToken",
          "type": "address"
        },
        {
          "internalType": "uint256",
          "name": "_collateralDelta",
          "type": "uint256"
        },
        {
          "internalType": "uint256",
          "name": "_sizeDelta",
          "type": "uint256"
        },
        {
          "internalType": "bool",
          "name": "_isLong",
          "type": "bool"
        },
        {
          "internalType": "address",
          "name": "_receiver",
          "type": "address"
        }
      ],
      "name": "decreasePosition",
      "outputs": [
        {
          "internalType": "uint256",
          "name": "",
          "type": "uint256"
        }
      ],
      "stateMutability": "nonpayable",
      "type": "function"
    },
    {
      "inputs": [
        {
          "internalType": "address",
          "name": "_token",
          "type": "address"
        }
      ],
      "name": "directPoolDeposit",
      "outputs": [],
      "stateMutability": "nonpayable",
      "type": "function"
    },
    {
      "inputs": [],
      "name": "errorController",
      "outputs": [
        {
          "internalType": "address",
          "name": "",
          "type": "address"
        }
      ],
      "stateMutability": "view",
      "type": "function"
    },
    {
      "inputs": [
        {
          "internalType": "uint256",
          "name": "",
          "type": "uint256"
        }
      ],
      "name": "errors",
      "outputs": [
        {
          "internalType": "string",
          "name": "",
          "type": "string"
        }
      ],
      "stateMutability": "view",
      "type": "function"
    },
    {
      "inputs": [
        {
          "internalType": "address",
          "name": "",
          "type": "address"
        }
      ],
      "name": "feeReserves",
      "outputs": [
        {
          "internalType": "uint256",
          "name": "",
          "type": "uint256"
        }
      ],
      "stateMutability": "view",
      "type": "function"
    },
    {
      "inputs": [],
      "name": "fundingInterval",
      "outputs": [
        {
          "internalType": "uint256",
          "name": "",
          "type": "uint256"
        }
      ],
      "stateMutability": "view",
      "type": "function"
    },
    {
      "inputs": [],
      "name": "fundingRateFactor",
      "outputs": [
        {
          "internalType": "uint256",
          "name": "",
          "type": "uint256"
        }
      ],
      "stateMutability": "view",
      "type": "function"
    },
    {
      "inputs": [
        {
          "internalType": "address",
          "name": "_indexToken",
          "type": "address"
        },
        {
          "internalType": "uint256",
          "name": "_size",
          "type": "uint256"
        },
        {
          "internalType": "uint256",
          "name": "_averagePrice",
          "type": "uint256"
        },
        {
          "internalType": "bool",
          "name": "_isLong",
          "type": "bool"
        },
        {
          "internalType": "uint256",
          "name": "_lastIncreasedTime",
          "type": "uint256"
        }
      ],
      "name": "getDelta",
      "outputs": [
        {
          "internalType": "bool",
          "name": "",
          "type": "bool"
        },
        {
          "internalType": "uint256",
          "name": "",
          "type": "uint256"
        }
      ],
      "stateMutability": "view",
      "type": "function"
    },
    {
      "inputs": [
        {
          "internalType": "address",
          "name": "_collateralToken",
          "type": "address"
        },
        {
          "internalType": "address",
          "name": "_indexToken",
          "type": "address"
        },
        {
          "internalType": "bool",
          "name": "_isLong",
          "type": "bool"
        }
      ],
      "name": "getEntryFundingRate",
      "outputs": [
        {
          "internalType": "uint256",
          "name": "",
          "type": "uint256"
        }
      ],
      "stateMutability": "view",
      "type": "function"
    },
    {
      "inputs": [
        {
          "internalType": "address",
          "name": "_token",
          "type": "address"
        },
        {
          "internalType": "uint256",
          "name": "_usdgDelta",
          "type": "uint256"
        },
        {
          "internalType": "uint256",
          "name": "_feeBasisPoints",
          "type": "uint256"
        },
        {
          "internalType": "uint256",
          "name": "_taxBasisPoints",
          "type": "uint256"
        },
        {
          "internalType": "bool",
          "name": "_increment",
          "type": "bool"
        }
      ],
      "name": "getFeeBasisPoints",
      "outputs": [
        {
          "internalType": "uint256",
          "name": "",
          "type": "uint256"
        }
      ],
      "stateMutability": "view",
      "type": "function"
    },
    {
      "inputs": [
        {
          "internalType": "address",
          "name": "_account",
          "type": "address"
        },
        {
          "internalType": "address",
          "name": "_collateralToken",
          "type": "address"
        },
        {
          "internalType": "address",
          "name": "_indexToken",
          "type": "address"
        },
        {
          "internalType": "bool",
          "name": "_isLong",
          "type": "bool"
        },
        {
          "internalType": "uint256",
          "name": "_size",
          "type": "uint256"
        },
        {
          "internalType": "uint256",
          "name": "_entryFundingRate",
          "type": "uint256"
        }
      ],
      "name": "getFundingFee",
      "outputs": [
        {
          "internalType": "uint256",
          "name": "",
          "type": "uint256"
        }
      ],
      "stateMutability": "view",
      "type": "function"
    },
    {
      "inputs": [
        {
          "internalType": "address",
          "name": "_token",
          "type": "address"
        }
      ],
      "name": "getGlobalShortDelta",
      "outputs": [
        {
          "internalType": "bool",
          "name": "",
          "type": "bool"
        },
        {
          "internalType": "uint256",
          "name": "",
          "type": "uint256"
        }
      ],
      "stateMutability": "view",
      "type": "function"
    },
    {
      "inputs": [
        {
          "internalType": "address",
          "name": "_token",
          "type": "address"
        }
      ],
      "name": "getMaxPrice",
      "outputs": [
        {
          "internalType": "uint256",
          "name": "",
          "type": "uint256"
        }
      ],
      "stateMutability": "view",
      "type": "function"
    },
    {
      "inputs": [
        {
          "internalType": "address",
          "name": "_token",
          "type": "address"
        }
      ],
      "name": "getMinPrice",
      "outputs": [
        {
          "internalType": "uint256",
          "name": "",
          "type": "uint256"
        }
      ],
      "stateMutability": "view",
      "type": "function"
    },
    {
      "inputs": [
        {
          "internalType": "address",
          "name": "_indexToken",
          "type": "address"
        },
        {
          "internalType": "uint256",
          "name": "_size",
          "type": "uint256"
        },
        {
          "internalType": "uint256",
          "name": "_averagePrice",
          "type": "uint256"
        },
        {
          "internalType": "bool",
          "name": "_isLong",
          "type": "bool"
        },
        {
          "internalType": "uint256",
          "name": "_nextPrice",
          "type": "uint256"
        },
        {
          "internalType": "uint256",
          "name": "_sizeDelta",
          "type": "uint256"
        },
        {
          "internalType": "uint256",
          "name": "_lastIncreasedTime",
          "type": "uint256"
        }
      ],
      "name": "getNextAveragePrice",
      "outputs": [
        {
          "internalType": "uint256",
          "name": "",
          "type": "uint256"
        }
      ],
      "stateMutability": "view",
      "type": "function"
    },
    {
      "inputs": [
        {
          "internalType": "address",
          "name": "_token",
          "type": "address"
        }
      ],
      "name": "getNextFundingRate",
      "outputs": [
        {
          "internalType": "uint256",
          "name": "",
          "type": "uint256"
        }
      ],
      "stateMutability": "view",
      "type": "function"
    },
    {
      "inputs": [
        {
          "internalType": "address",
          "name": "_indexToken",
          "type": "address"
        },
        {
          "internalType": "uint256",
          "name": "_nextPrice",
          "type": "uint256"
        },
        {
          "internalType": "uint256",
          "name": "_sizeDelta",
          "type": "uint256"
        }
      ],
      "name": "getNextGlobalShortAveragePrice",
      "outputs": [
        {
          "internalType": "uint256",
          "name": "",
          "type": "uint256"
        }
      ],
      "stateMutability": "view",
      "type": "function"
    },
    {
      "inputs": [
        {
          "internalType": "address",
          "name": "_account",
          "type": "address"
        },
        {
          "internalType": "address",
          "name": "_collateralToken",
          "type": "address"
        },
        {
          "internalType": "address",
          "name": "_indexToken",
          "type": "address"
        },
        {
          "internalType": "bool",
          "name": "_isLong",
          "type": "bool"
        }
      ],
      "name": "getPosition",
      "outputs": [
        {
          "internalType": "uint256",
          "name": "",
          "type": "uint256"
        },
        {
          "internalType": "uint256",
          "name": "",
          "type": "uint256"
        },
        {
          "internalType": "uint256",
          "name": "",
          "type": "uint256"
        },
        {
          "internalType": "uint256",
          "name": "",
          "type": "uint256"
        },
        {
          "internalType": "uint256",
          "name": "",
          "type": "uint256"
        },
        {
          "internalType": "uint256",
          "name": "",
          "type": "uint256"
        },
        {
          "internalType": "bool",
          "name": "",
          "type": "bool"
        },
        {
          "internalType": "uint256",
          "name": "",
          "type": "uint256"
        }
      ],
      "stateMutability": "view",
      "type": "function"
    },
    {
      "inputs": [
        {
          "internalType": "address",
          "name": "_account",
          "type": "address"
        },
        {
          "internalType": "address",
          "name": "_collateralToken",
          "type": "address"
        },
        {
          "internalType": "address",
          "name": "_indexToken",
          "type": "address"
        },
        {
          "internalType": "bool",
          "name": "_isLong",
          "type": "bool"
        }
      ],
      "name": "getPositionDelta",
      "outputs": [
        {
          "internalType": "bool",
          "name": "",
          "type": "bool"
        },
        {
          "internalType": "uint256",
          "name": "",
          "type": "uint256"
        }
      ],
      "stateMutability": "view",
      "type": "function"
    },
    {
      "inputs": [
        {
          "internalType": "address",
          "name": "_account",
          "type": "address"
        },
        {
          "internalType": "address",
          "name": "_collateralToken",
          "type": "address"
        },
        {
          "internalType": "address",
          "name": "_indexToken",
          "type": "address"
        },
        {
          "internalType": "bool",
          "name": "_isLong",
          "type": "bool"
        },
        {
          "internalType": "uint256",
          "name": "_sizeDelta",
          "type": "uint256"
        }
      ],
      "name": "getPositionFee",
      "outputs": [
        {
          "internalType": "uint256",
          "name": "",
          "type": "uint256"
        }
      ],
      "stateMutability": "view",
      "type": "function"
    },
    {
      "inputs": [
        {
          "internalType": "address",
          "name": "_account",
          "type": "address"
        },
        {
          "internalType": "address",
          "name": "_collateralToken",
          "type": "address"
        },
        {
          "internalType": "address",
          "name": "_indexToken",
          "type": "address"
        },
        {
          "internalType": "bool",
          "name": "_isLong",
          "type": "bool"
        }
      ],
      "name": "getPositionKey",
      "outputs": [
        {
          "internalType": "bytes32",
          "name": "",
          "type": "bytes32"
        }
      ],
      "stateMutability": "pure",
      "type": "function"
    },
    {
      "inputs": [
        {
          "internalType": "address",
          "name": "_account",
          "type": "address"
        },
        {
          "internalType": "address",
          "name": "_collateralToken",
          "type": "address"
        },
        {
          "internalType": "address",
          "name": "_indexToken",
          "type": "address"
        },
        {
          "internalType": "bool",
          "name": "_isLong",
          "type": "bool"
        }
      ],
      "name": "getPositionLeverage",
      "outputs": [
        {
          "internalType": "uint256",
          "name": "",
          "type": "uint256"
        }
      ],
      "stateMutability": "view",
      "type": "function"
    },
    {
      "inputs": [
        {
          "internalType": "address",
          "name": "_token",
          "type": "address"
        },
        {
          "internalType": "uint256",
          "name": "_usdgAmount",
          "type": "uint256"
        }
      ],
      "name": "getRedemptionAmount",
      "outputs": [
        {
          "internalType": "uint256",
          "name": "",
          "type": "uint256"
        }
      ],
      "stateMutability": "view",
      "type": "function"
    },
    {
      "inputs": [
        {
          "internalType": "address",
          "name": "_token",
          "type": "address"
        }
      ],
      "name": "getRedemptionCollateral",
      "outputs": [
        {
          "internalType": "uint256",
          "name": "",
          "type": "uint256"
        }
      ],
      "stateMutability": "view",
      "type": "function"
    },
    {
      "inputs": [
        {
          "internalType": "address",
          "name": "_token",
          "type": "address"
        }
      ],
      "name": "getRedemptionCollateralUsd",
      "outputs": [
        {
          "internalType": "uint256",
          "name": "",
          "type": "uint256"
        }
      ],
      "stateMutability": "view",
      "type": "function"
    },
    {
      "inputs": [
        {
          "internalType": "address",
          "name": "_token",
          "type": "address"
        }
      ],
      "name": "getTargetUsdgAmount",
      "outputs": [
        {
          "internalType": "uint256",
          "name": "",
          "type": "uint256"
        }
      ],
      "stateMutability": "view",
      "type": "function"
    },
    {
      "inputs": [
        {
          "internalType": "address",
          "name": "_token",
          "type": "address"
        }
      ],
      "name": "getUtilisation",
      "outputs": [
        {
          "internalType": "uint256",
          "name": "",
          "type": "uint256"
        }
      ],
      "stateMutability": "view",
      "type": "function"
    },
    {
      "inputs": [
        {
          "internalType": "address",
          "name": "",
          "type": "address"
        }
      ],
      "name": "globalShortAveragePrices",
      "outputs": [
        {
          "internalType": "uint256",
          "name": "",
          "type": "uint256"
        }
      ],
      "stateMutability": "view",
      "type": "function"
    },
    {
      "inputs": [
        {
          "internalType": "address",
          "name": "",
          "type": "address"
        }
      ],
      "name": "globalShortSizes",
      "outputs": [
        {
          "internalType": "uint256",
          "name": "",
          "type": "uint256"
        }
      ],
      "stateMutability": "view",
      "type": "function"
    },
    {
      "inputs": [],
      "name": "gov",
      "outputs": [
        {
          "internalType": "address",
          "name": "",
          "type": "address"
        }
      ],
      "stateMutability": "view",
      "type": "function"
    },
    {
      "inputs": [
        {
          "internalType": "address",
          "name": "",
          "type": "address"
        }
      ],
      "name": "guaranteedUsd",
      "outputs": [
        {
          "internalType": "uint256",
          "name": "",
          "type": "uint256"
        }
      ],
      "stateMutability": "view",
      "type": "function"
    },
    {
      "inputs": [],
      "name": "hasDynamicFees",
      "outputs": [
        {
          "internalType": "bool",
          "name": "",
          "type": "bool"
        }
      ],
      "stateMutability": "view",
      "type": "function"
    },
    {
      "inputs": [],
      "name": "inManagerMode",
      "outputs": [
        {
          "internalType": "bool",
          "name": "",
          "type": "bool"
        }
      ],
      "stateMutability": "view",
      "type": "function"
    },
    {
      "inputs": [],
      "name": "inPrivateLiquidationMode",
      "outputs": [
        {
          "internalType": "bool",
          "name": "",
          "type": "bool"
        }
      ],
      "stateMutability": "view",
      "type": "function"
    },
    {
      "inputs": [],
      "name": "includeAmmPrice",
      "outputs": [
        {
          "internalType": "bool",
          "name": "",
          "type": "bool"
        }
      ],
      "stateMutability": "view",
      "type": "function"
    },
    {
      "inputs": [
        {
          "internalType": "address",
          "name": "_account",
          "type": "address"
        },
        {
          "internalType": "address",
          "name": "_collateralToken",
          "type": "address"
        },
        {
          "internalType": "address",
          "name": "_indexToken",
          "type": "address"
        },
        {
          "internalType": "uint256",
          "name": "_sizeDelta",
          "type": "uint256"
        },
        {
          "internalType": "bool",
          "name": "_isLong",
          "type": "bool"
        }
      ],
      "name": "increasePosition",
      "outputs": [],
      "stateMutability": "nonpayable",
      "type": "function"
    },
    {
      "inputs": [],
      "name": "initialize",
      "outputs": [],
      "stateMutability": "nonpayable",
      "type": "function"
    },
    {
      "inputs": [
        {
          "internalType": "address",
          "name": "_router",
          "type": "address"
        },
        {
          "internalType": "address",
          "name": "_usdg",
          "type": "address"
        },
        {
          "internalType": "address",
          "name": "_priceFeed",
          "type": "address"
        },
        {
          "internalType": "uint256",
          "name": "_liquidationFeeUsd",
          "type": "uint256"
        },
        {
          "internalType": "uint256",
          "name": "_fundingRateFactor",
          "type": "uint256"
        },
        {
          "internalType": "uint256",
          "name": "_stableFundingRateFactor",
          "type": "uint256"
        }
      ],
      "name": "initializeConfig",
      "outputs": [],
      "stateMutability": "nonpayable",
      "type": "function"
    },
    {
      "inputs": [],
      "name": "isInitialized",
      "outputs": [
        {
          "internalType": "bool",
          "name": "",
          "type": "bool"
        }
      ],
      "stateMutability": "view",
      "type": "function"
    },
    {
      "inputs": [],
      "name": "isLeverageEnabled",
      "outputs": [
        {
          "internalType": "bool",
          "name": "",
          "type": "bool"
        }
      ],
      "stateMutability": "view",
      "type": "function"
    },
    {
      "inputs": [
        {
          "internalType": "address",
          "name": "",
          "type": "address"
        }
      ],
      "name": "isLiquidator",
      "outputs": [
        {
          "internalType": "bool",
          "name": "",
          "type": "bool"
        }
      ],
      "stateMutability": "view",
      "type": "function"
    },
    {
      "inputs": [
        {
          "internalType": "address",
          "name": "",
          "type": "address"
        }
      ],
      "name": "isManager",
      "outputs": [
        {
          "internalType": "bool",
          "name": "",
          "type": "bool"
        }
      ],
      "stateMutability": "view",
      "type": "function"
    },
    {
      "inputs": [],
      "name": "isSwapEnabled",
      "outputs": [
        {
          "internalType": "bool",
          "name": "",
          "type": "bool"
        }
      ],
      "stateMutability": "view",
      "type": "function"
    },
    {
      "inputs": [
        {
          "internalType": "address",
          "name": "",
          "type": "address"
        }
      ],
      "name": "lastFundingTimes",
      "outputs": [
        {
          "internalType": "uint256",
          "name": "",
          "type": "uint256"
        }
      ],
      "stateMutability": "view",
      "type": "function"
    },
    {
      "inputs": [
        {
          "internalType": "address",
          "name": "_account",
          "type": "address"
        },
        {
          "internalType": "address",
          "name": "_collateralToken",
          "type": "address"
        },
        {
          "internalType": "address",
          "name": "_indexToken",
          "type": "address"
        },
        {
          "internalType": "bool",
          "name": "_isLong",
          "type": "bool"
        },
        {
          "internalType": "address",
          "name": "_feeReceiver",
          "type": "address"
        }
      ],
      "name": "liquidatePosition",
      "outputs": [],
      "stateMutability": "nonpayable",
      "type": "function"
    },
    {
      "inputs": [],
      "name": "liquidationFeeUsd",
      "outputs": [
        {
          "internalType": "uint256",
          "name": "",
          "type": "uint256"
        }
      ],
      "stateMutability": "view",
      "type": "function"
    },
    {
      "inputs": [],
      "name": "marginFeeBasisPoints",
      "outputs": [
        {
          "internalType": "uint256",
          "name": "",
          "type": "uint256"
        }
      ],
      "stateMutability": "view",
      "type": "function"
    },
    {
      "inputs": [],
      "name": "maxGasPrice",
      "outputs": [
        {
          "internalType": "uint256",
          "name": "",
          "type": "uint256"
        }
      ],
      "stateMutability": "view",
      "type": "function"
    },
    {
      "inputs": [
        {
          "internalType": "address",
          "name": "",
          "type": "address"
        }
      ],
      "name": "maxGlobalShortSizes",
      "outputs": [
        {
          "internalType": "uint256",
          "name": "",
          "type": "uint256"
        }
      ],
      "stateMutability": "view",
      "type": "function"
    },
    {
      "inputs": [],
      "name": "maxLeverage",
      "outputs": [
        {
          "internalType": "uint256",
          "name": "",
          "type": "uint256"
        }
      ],
      "stateMutability": "view",
      "type": "function"
    },
    {
      "inputs": [
        {
          "internalType": "address",
          "name": "",
          "type": "address"
        }
      ],
      "name": "maxUsdgAmounts",
      "outputs": [
        {
          "internalType": "uint256",
          "name": "",
          "type": "uint256"
        }
      ],
      "stateMutability": "view",
      "type": "function"
    },
    {
      "inputs": [
        {
          "internalType": "address",
          "name": "",
          "type": "address"
        }
      ],
      "name": "minProfitBasisPoints",
      "outputs": [
        {
          "internalType": "uint256",
          "name": "",
          "type": "uint256"
        }
      ],
      "stateMutability": "view",
      "type": "function"
    },
    {
      "inputs": [],
      "name": "minProfitTime",
      "outputs": [
        {
          "internalType": "uint256",
          "name": "",
          "type": "uint256"
        }
      ],
      "stateMutability": "view",
      "type": "function"
    },
    {
      "inputs": [],
      "name": "mintBurnFeeBasisPoints",
      "outputs": [
        {
          "internalType": "uint256",
          "name": "",
          "type": "uint256"
        }
      ],
      "stateMutability": "view",
      "type": "function"
    },
    {
      "inputs": [
        {
          "internalType": "address",
          "name": "",
          "type": "address"
        }
      ],
      "name": "poolAmounts",
      "outputs": [
        {
          "internalType": "uint256",
          "name": "",
          "type": "uint256"
        }
      ],
      "stateMutability": "view",
      "type": "function"
    },
    {
      "inputs": [
        {
          "internalType": "bytes32",
          "name": "",
          "type": "bytes32"
        }
      ],
      "name": "positions",
      "outputs": [
        {
          "internalType": "uint256",
          "name": "size",
          "type": "uint256"
        },
        {
          "internalType": "uint256",
          "name": "collateral",
          "type": "uint256"
        },
        {
          "internalType": "uint256",
          "name": "averagePrice",
          "type": "uint256"
        },
        {
          "internalType": "uint256",
          "name": "entryFundingRate",
          "type": "uint256"
        },
        {
          "internalType": "uint256",
          "name": "reserveAmount",
          "type": "uint256"
        },
        {
          "internalType": "int256",
          "name": "realisedPnl",
          "type": "int256"
        },
        {
          "internalType": "uint256",
          "name": "lastIncreasedTime",
          "type": "uint256"
        }
      ],
      "stateMutability": "view",
      "type": "function"
    },
    {
      "inputs": [],
      "name": "priceFeed",
      "outputs": [
        {
          "internalType": "address",
          "name": "",
          "type": "address"
        }
      ],
      "stateMutability": "view",
      "type": "function"
    },
    {
      "inputs": [
        {
          "internalType": "address",
          "name": "_router",
          "type": "address"
        }
      ],
      "name": "removeRouter",
      "outputs": [],
      "stateMutability": "nonpayable",
      "type": "function"
    },
    {
      "inputs": [
        {
          "internalType": "address",
          "name": "",
          "type": "address"
        }
      ],
      "name": "reservedAmounts",
      "outputs": [
        {
          "internalType": "uint256",
          "name": "",
          "type": "uint256"
        }
      ],
      "stateMutability": "view",
      "type": "function"
    },
    {
      "inputs": [],
      "name": "router",
      "outputs": [
        {
          "internalType": "address",
          "name": "",
          "type": "address"
        }
      ],
      "stateMutability": "view",
      "type": "function"
    },
    {
      "inputs": [
        {
          "internalType": "address",
          "name": "_token",
          "type": "address"
        },
        {
          "internalType": "address",
          "name": "_receiver",
          "type": "address"
        }
      ],
      "name": "sellUSDG",
      "outputs": [
        {
          "internalType": "uint256",
          "name": "",
          "type": "uint256"
        }
      ],
      "stateMutability": "nonpayable",
      "type": "function"
    },
    {
      "inputs": [
        {
          "internalType": "address",
          "name": "_token",
          "type": "address"
        },
        {
          "internalType": "uint256",
          "name": "_amount",
          "type": "uint256"
        }
      ],
      "name": "setBufferAmount",
      "outputs": [],
      "stateMutability": "nonpayable",
      "type": "function"
    },
    {
      "inputs": [
        {
          "internalType": "uint256",
          "name": "_errorCode",
          "type": "uint256"
        },
        {
          "internalType": "string",
          "name": "_error",
          "type": "string"
        }
      ],
      "name": "setError",
      "outputs": [],
      "stateMutability": "nonpayable",
      "type": "function"
    },
    {
      "inputs": [
        {
          "internalType": "address",
          "name": "_errorController",
          "type": "address"
        }
      ],
      "name": "setErrorController",
      "outputs": [],
      "stateMutability": "nonpayable",
      "type": "function"
    },
    {
      "inputs": [
        {
          "internalType": "uint256",
          "name": "_taxBasisPoints",
          "type": "uint256"
        },
        {
          "internalType": "uint256",
          "name": "_stableTaxBasisPoints",
          "type": "uint256"
        },
        {
          "internalType": "uint256",
          "name": "_mintBurnFeeBasisPoints",
          "type": "uint256"
        },
        {
          "internalType": "uint256",
          "name": "_swapFeeBasisPoints",
          "type": "uint256"
        },
        {
          "internalType": "uint256",
          "name": "_stableSwapFeeBasisPoints",
          "type": "uint256"
        },
        {
          "internalType": "uint256",
          "name": "_marginFeeBasisPoints",
          "type": "uint256"
        },
        {
          "internalType": "uint256",
          "name": "_liquidationFeeUsd",
          "type": "uint256"
        },
        {
          "internalType": "uint256",
          "name": "_minProfitTime",
          "type": "uint256"
        },
        {
          "internalType": "bool",
          "name": "_hasDynamicFees",
          "type": "bool"
        }
      ],
      "name": "setFees",
      "outputs": [],
      "stateMutability": "nonpayable",
      "type": "function"
    },
    {
      "inputs": [
        {
          "internalType": "uint256",
          "name": "_fundingInterval",
          "type": "uint256"
        },
        {
          "internalType": "uint256",
          "name": "_fundingRateFactor",
          "type": "uint256"
        },
        {
          "internalType": "uint256",
          "name": "_stableFundingRateFactor",
          "type": "uint256"
        }
      ],
      "name": "setFundingRate",
      "outputs": [],
      "stateMutability": "nonpayable",
      "type": "function"
    },
    {
      "inputs": [
        {
          "internalType": "address",
          "name": "_gov",
          "type": "address"
        }
      ],
      "name": "setGov",
      "outputs": [],
      "stateMutability": "nonpayable",
      "type": "function"
    },
    {
      "inputs": [
        {
          "internalType": "bool",
          "name": "_inManagerMode",
          "type": "bool"
        }
      ],
      "name": "setInManagerMode",
      "outputs": [],
      "stateMutability": "nonpayable",
      "type": "function"
    },
    {
      "inputs": [
        {
          "internalType": "bool",
          "name": "_inPrivateLiquidationMode",
          "type": "bool"
        }
      ],
      "name": "setInPrivateLiquidationMode",
      "outputs": [],
      "stateMutability": "nonpayable",
      "type": "function"
    },
    {
      "inputs": [
        {
          "internalType": "bool",
          "name": "_isLeverageEnabled",
          "type": "bool"
        }
      ],
      "name": "setIsLeverageEnabled",
      "outputs": [],
      "stateMutability": "nonpayable",
      "type": "function"
    },
    {
      "inputs": [
        {
          "internalType": "bool",
          "name": "_isSwapEnabled",
          "type": "bool"
        }
      ],
      "name": "setIsSwapEnabled",
      "outputs": [],
      "stateMutability": "nonpayable",
      "type": "function"
    },
    {
      "inputs": [
        {
          "internalType": "address",
          "name": "_liquidator",
          "type": "address"
        },
        {
          "internalType": "bool",
          "name": "_isActive",
          "type": "bool"
        }
      ],
      "name": "setLiquidator",
      "outputs": [],
      "stateMutability": "nonpayable",
      "type": "function"
    },
    {
      "inputs": [
        {
          "internalType": "address",
          "name": "_manager",
          "type": "address"
        },
        {
          "internalType": "bool",
          "name": "_isManager",
          "type": "bool"
        }
      ],
      "name": "setManager",
      "outputs": [],
      "stateMutability": "nonpayable",
      "type": "function"
    },
    {
      "inputs": [
        {
          "internalType": "uint256",
          "name": "_maxGasPrice",
          "type": "uint256"
        }
      ],
      "name": "setMaxGasPrice",
      "outputs": [],
      "stateMutability": "nonpayable",
      "type": "function"
    },
    {
      "inputs": [
        {
          "internalType": "address",
          "name": "_token",
          "type": "address"
        },
        {
          "internalType": "uint256",
          "name": "_amount",
          "type": "uint256"
        }
      ],
      "name": "setMaxGlobalShortSize",
      "outputs": [],
      "stateMutability": "nonpayable",
      "type": "function"
    },
    {
      "inputs": [
        {
          "internalType": "uint256",
          "name": "_maxLeverage",
          "type": "uint256"
        }
      ],
      "name": "setMaxLeverage",
      "outputs": [],
      "stateMutability": "nonpayable",
      "type": "function"
    },
    {
      "inputs": [
        {
          "internalType": "address",
          "name": "_priceFeed",
          "type": "address"
        }
      ],
      "name": "setPriceFeed",
      "outputs": [],
      "stateMutability": "nonpayable",
      "type": "function"
    },
    {
      "inputs": [
        {
          "internalType": "address",
          "name": "_token",
          "type": "address"
        },
        {
          "internalType": "uint256",
          "name": "_tokenDecimals",
          "type": "uint256"
        },
        {
          "internalType": "uint256",
          "name": "_tokenWeight",
          "type": "uint256"
        },
        {
          "internalType": "uint256",
          "name": "_minProfitBps",
          "type": "uint256"
        },
        {
          "internalType": "uint256",
          "name": "_maxUsdgAmount",
          "type": "uint256"
        },
        {
          "internalType": "bool",
          "name": "_isStable",
          "type": "bool"
        },
        {
          "internalType": "bool",
          "name": "_isShortable",
          "type": "bool"
        }
      ],
      "name": "setTokenConfig",
      "outputs": [],
      "stateMutability": "nonpayable",
      "type": "function"
    },
    {
      "inputs": [
        {
          "internalType": "address",
          "name": "_token",
          "type": "address"
        },
        {
          "internalType": "uint256",
          "name": "_amount",
          "type": "uint256"
        }
      ],
      "name": "setUsdgAmount",
      "outputs": [],
      "stateMutability": "nonpayable",
      "type": "function"
    },
    {
      "inputs": [
        {
          "internalType": "contract IVaultUtils",
          "name": "_vaultUtils",
          "type": "address"
        }
      ],
      "name": "setVaultUtils",
      "outputs": [],
      "stateMutability": "nonpayable",
      "type": "function"
    },
    {
      "inputs": [
        {
          "internalType": "address",
          "name": "",
          "type": "address"
        }
      ],
      "name": "shortableTokens",
      "outputs": [
        {
          "internalType": "bool",
          "name": "",
          "type": "bool"
        }
      ],
      "stateMutability": "view",
      "type": "function"
    },
    {
      "inputs": [],
      "name": "stableFundingRateFactor",
      "outputs": [
        {
          "internalType": "uint256",
          "name": "",
          "type": "uint256"
        }
      ],
      "stateMutability": "view",
      "type": "function"
    },
    {
      "inputs": [],
      "name": "stableSwapFeeBasisPoints",
      "outputs": [
        {
          "internalType": "uint256",
          "name": "",
          "type": "uint256"
        }
      ],
      "stateMutability": "view",
      "type": "function"
    },
    {
      "inputs": [],
      "name": "stableTaxBasisPoints",
      "outputs": [
        {
          "internalType": "uint256",
          "name": "",
          "type": "uint256"
        }
      ],
      "stateMutability": "view",
      "type": "function"
    },
    {
      "inputs": [
        {
          "internalType": "address",
          "name": "",
          "type": "address"
        }
      ],
      "name": "stableTokens",
      "outputs": [
        {
          "internalType": "bool",
          "name": "",
          "type": "bool"
        }
      ],
      "stateMutability": "view",
      "type": "function"
    },
    {
      "inputs": [
        {
          "internalType": "address",
          "name": "_tokenIn",
          "type": "address"
        },
        {
          "internalType": "address",
          "name": "_tokenOut",
          "type": "address"
        },
        {
          "internalType": "address",
          "name": "_receiver",
          "type": "address"
        }
      ],
      "name": "swap",
      "outputs": [
        {
          "internalType": "uint256",
          "name": "",
          "type": "uint256"
        }
      ],
      "stateMutability": "nonpayable",
      "type": "function"
    },
    {
      "inputs": [],
      "name": "swapFeeBasisPoints",
      "outputs": [
        {
          "internalType": "uint256",
          "name": "",
          "type": "uint256"
        }
      ],
      "stateMutability": "view",
      "type": "function"
    },
    {
      "inputs": [],
      "name": "taxBasisPoints",
      "outputs": [
        {
          "internalType": "uint256",
          "name": "",
          "type": "uint256"
        }
      ],
      "stateMutability": "view",
      "type": "function"
    },
    {
      "inputs": [
        {
          "internalType": "address",
          "name": "",
          "type": "address"
        }
      ],
      "name": "tokenBalances",
      "outputs": [
        {
          "internalType": "uint256",
          "name": "",
          "type": "uint256"
        }
      ],
      "stateMutability": "view",
      "type": "function"
    },
    {
      "inputs": [
        {
          "internalType": "address",
          "name": "",
          "type": "address"
        }
      ],
      "name": "tokenDecimals",
      "outputs": [
        {
          "internalType": "uint256",
          "name": "",
          "type": "uint256"
        }
      ],
      "stateMutability": "view",
      "type": "function"
    },
    {
      "inputs": [
        {
          "internalType": "address",
          "name": "_token",
          "type": "address"
        },
        {
          "internalType": "uint256",
          "name": "_tokenAmount",
          "type": "uint256"
        }
      ],
      "name": "tokenToUsdMin",
      "outputs": [
        {
          "internalType": "uint256",
          "name": "",
          "type": "uint256"
        }
      ],
      "stateMutability": "view",
      "type": "function"
    },
    {
      "inputs": [
        {
          "internalType": "address",
          "name": "",
          "type": "address"
        }
      ],
      "name": "tokenWeights",
      "outputs": [
        {
          "internalType": "uint256",
          "name": "",
          "type": "uint256"
        }
      ],
      "stateMutability": "view",
      "type": "function"
    },
    {
      "inputs": [],
      "name": "totalTokenWeights",
      "outputs": [
        {
          "internalType": "uint256",
          "name": "",
          "type": "uint256"
        }
      ],
      "stateMutability": "view",
      "type": "function"
    },
    {
      "inputs": [
        {
          "internalType": "address",
          "name": "_collateralToken",
          "type": "address"
        },
        {
          "internalType": "address",
          "name": "_indexToken",
          "type": "address"
        }
      ],
      "name": "updateCumulativeFundingRate",
      "outputs": [],
      "stateMutability": "nonpayable",
      "type": "function"
    },
    {
      "inputs": [
        {
          "internalType": "address",
          "name": "_newVault",
          "type": "address"
        },
        {
          "internalType": "address",
          "name": "_token",
          "type": "address"
        },
        {
          "internalType": "uint256",
          "name": "_amount",
          "type": "uint256"
        }
      ],
      "name": "upgradeVault",
      "outputs": [],
      "stateMutability": "nonpayable",
      "type": "function"
    },
    {
      "inputs": [
        {
          "internalType": "address",
          "name": "_token",
          "type": "address"
        },
        {
          "internalType": "uint256",
          "name": "_usdAmount",
          "type": "uint256"
        },
        {
          "internalType": "uint256",
          "name": "_price",
          "type": "uint256"
        }
      ],
      "name": "usdToToken",
      "outputs": [
        {
          "internalType": "uint256",
          "name": "",
          "type": "uint256"
        }
      ],
      "stateMutability": "view",
      "type": "function"
    },
    {
      "inputs": [
        {
          "internalType": "address",
          "name": "_token",
          "type": "address"
        },
        {
          "internalType": "uint256",
          "name": "_usdAmount",
          "type": "uint256"
        }
      ],
      "name": "usdToTokenMax",
      "outputs": [
        {
          "internalType": "uint256",
          "name": "",
          "type": "uint256"
        }
      ],
      "stateMutability": "view",
      "type": "function"
    },
    {
      "inputs": [
        {
          "internalType": "address",
          "name": "_token",
          "type": "address"
        },
        {
          "internalType": "uint256",
          "name": "_usdAmount",
          "type": "uint256"
        }
      ],
      "name": "usdToTokenMin",
      "outputs": [
        {
          "internalType": "uint256",
          "name": "",
          "type": "uint256"
        }
      ],
      "stateMutability": "view",
      "type": "function"
    },
    {
      "inputs": [],
      "name": "usdg",
      "outputs": [
        {
          "internalType": "address",
          "name": "",
          "type": "address"
        }
      ],
      "stateMutability": "view",
      "type": "function"
    },
    {
      "inputs": [
        {
          "internalType": "address",
          "name": "",
          "type": "address"
        }
      ],
      "name": "usdgAmounts",
      "outputs": [
        {
          "internalType": "uint256",
          "name": "",
          "type": "uint256"
        }
      ],
      "stateMutability": "view",
      "type": "function"
    },
    {
      "inputs": [],
      "name": "useSwapPricing",
      "outputs": [
        {
          "internalType": "bool",
          "name": "",
          "type": "bool"
        }
      ],
      "stateMutability": "view",
      "type": "function"
    },
    {
      "inputs": [
        {
          "internalType": "address",
          "name": "_account",
          "type": "address"
        },
        {
          "internalType": "address",
          "name": "_collateralToken",
          "type": "address"
        },
        {
          "internalType": "address",
          "name": "_indexToken",
          "type": "address"
        },
        {
          "internalType": "bool",
          "name": "_isLong",
          "type": "bool"
        },
        {
          "internalType": "bool",
          "name": "_raise",
          "type": "bool"
        }
      ],
      "name": "validateLiquidation",
      "outputs": [
        {
          "internalType": "uint256",
          "name": "",
          "type": "uint256"
        },
        {
          "internalType": "uint256",
          "name": "",
          "type": "uint256"
        }
      ],
      "stateMutability": "view",
      "type": "function"
    },
    {
      "inputs": [],
      "name": "vaultUtils",
      "outputs": [
        {
          "internalType": "contract IVaultUtils",
          "name": "",
          "type": "address"
        }
      ],
      "stateMutability": "view",
      "type": "function"
    },
    {
      "inputs": [],
      "name": "whitelistedTokenCount",
      "outputs": [
        {
          "internalType": "uint256",
          "name": "",
          "type": "uint256"
        }
      ],
      "stateMutability": "view",
      "type": "function"
    },
    {
      "inputs": [
        {
          "internalType": "address",
          "name": "",
          "type": "address"
        }
      ],
      "name": "whitelistedTokens",
      "outputs": [
        {
          "internalType": "bool",
          "name": "",
          "type": "bool"
        }
      ],
      "stateMutability": "view",
      "type": "function"
    },
    {
      "inputs": [
        {
          "internalType": "address",
          "name": "_token",
          "type": "address"
        },
        {
          "internalType": "address",
          "name": "_receiver",
          "type": "address"
        }
      ],
      "name": "withdrawFees",
      "outputs": [
        {
          "internalType": "uint256",
          "name": "",
          "type": "uint256"
        }
      ],
      "stateMutability": "nonpayable",
      "type": "function"
    }
  ],
  "bytecode": "0x608060405234801561001057600080fd5b5061639c80620000216000396000f3fe608060405234801561001057600080fd5b50600436106107645760003560e01c8063870d917c116103c9578063cea0c328116101ff578063df73a26711610125578063f3ae2415116100b8578063fbfded6d11610087578063fbfded6d14611833578063fce28c1014611861578063fdaf6ac314611869578063fed1a606146118ad57610764565b8063f3ae2415146117cb578063f5b91b7b146117f1578063f887ea40146117f9578063fa12dbc01461180157610764565b8063efa10a6e116100f4578063efa10a6e1461172c578063f07456ce14611758578063f07bbf771461177e578063f25552781461179d57610764565b8063df73a267146116bb578063e124e6d2146116c3578063e468baf0146116e9578063e67f59a71461170657610764565b8063d8f897c31161019d578063db3555fb1161016c578063db3555fb146115f9578063db97495f1461161f578063dc8f5fac1461166b578063de2ea9481461167357610764565b8063d8f897c31461155b578063d9ac422514611581578063da76524c14611589578063daf9c210146115d357610764565b8063d3127e63116101d9578063d3127e631461146b578063d54d5a9f14611488578063d66b000d146114e7578063d899e5e11461151357610764565b8063cea0c328146113f2578063cfad57a214611428578063d2fa635e1461144e57610764565b8063a22f2392116102ef578063b06423f311610282578063c3c7b9e911610251578063c3c7b9e91461135e578063c4f718bf14611384578063c65bc7b11461138c578063c7e074c3146113b257610764565b8063b06423f3146112d2578063b136ca49146112da578063b1cc53ab14611300578063b364accb1461133857610764565b8063ab08c1c6116102be578063ab08c1c614611276578063ab2f3ad41461127e578063ad1e4f8d146112a4578063ae3302c2146112ca57610764565b8063a22f2392146111ee578063a42ab3d2146111f6578063a5e90eee14611222578063a93acac21461125057610764565b80639060b1ca116103675780639849e412116103365780639849e412146111805780639899cd02146111885780639d7432ca146111b45780639f392eb3146111e657610764565b80639060b1ca14611112578063933162121461111a57806395082d25146111525780639698d25a1461115a57610764565b80638a39735a116103a35780638a39735a146107e55780638a78daa8146110a05780638ee573ac146110c65780638f7b8404146110ec57610764565b8063870d917c1461104957806388b1fbdf146110515780638a27d4681461107757610764565b806345a6f3701161059e57806362287a32116104c4578063741bef1a11610457578063817bb85711610426578063817bb85714610f7557806381a612d614610fa357806382a0849014610fc95780638585f4d21461101d57610764565b8063741bef1a14610f3e5780637a210a2b14610f465780637c2eb9f714610f4e5780638129fc1c14610f6d57610764565b80636be6026b116104935780636be6026b14610ebc57806371089f4d14610ec4578063711e619014610eea578063724e78da14610f1857610764565b806362287a3214610e605780636274980314610e685780636abbe0c814610e8e5780636ae0b15414610e9657610764565b8063514ea4bf1161053c57806352f55eed1161050b57806352f55eed14610da65780635c07eaab14610dcc5780635f7bc11914610e0c5780636092219914610e3257610764565b8063514ea4bf14610cc757806351723e8214610d1c578063523fba7f14610d5a578063529a356f14610d8057610764565b80634a3f088d116105785780634a3f088d14610c105780634a993ee914610c915780634befe2ca14610cb75780634d47b30414610cbf57610764565b806345a6f37014610b6b57806348d91abf14610bc457806348f35cbb14610c0857610764565b806329ff96151161068e5780633a05dcc11161062157806340eb3802116105f057806340eb380214610a925780634215287314610ae357806342b60b0314610b175780634453a37414610b3d57610764565b80633a05dcc114610a0e5780633c5a6e3514610a345780633de39c1114610a825780633e72a26214610a8a57610764565b8063318bc6891161065d578063318bc689146109f657806334c1557d146107e5578063351a964d146109fe578063392e53cd14610a0657610764565b806329ff9615146109475780632c668ec11461096d5780632d4b05761461099957806330455ede146109d757610764565b8063134ca63b116107065780631ce9cb8f116106d55780631ce9cb8f1461086357806324b0c04d1461088957806324ca984e146108aa57806328e67be5146108d057610764565b8063134ca63b14610811578063174d269414610819578063181e210e146108215780631aa4ace51461083d57610764565b80630a48d5a9116107425780630a48d5a9146107b157806310eb56c2146107dd578063126082cf146107e557806312d43a51146107ed57610764565b806304fef1db1461076957806307c58752146107a15780630842b076146107a9575b600080fd5b61078f6004803603602081101561077f57600080fd5b50356001600160a01b031661193f565b60408051918252519081900360200190f35b61078f6119a2565b61078f6119b4565b61078f600480360360408110156107c757600080fd5b506001600160a01b0381351690602001356119ba565b61078f611a0d565b61078f611a13565b6107f5611a19565b604080516001600160a01b039092168252519081900360200190f35b61078f611a28565b61078f611a2e565b610829611a34565b604080519115158252519081900360200190f35b61078f6004803603602081101561085357600080fd5b50356001600160a01b0316611a44565b61078f6004803603602081101561087957600080fd5b50356001600160a01b0316611a56565b6108a86004803603602081101561089f57600080fd5b50351515611a68565b005b6108a8600480360360208110156108c057600080fd5b50356001600160a01b0316611a8c565b6108a8600480360360408110156108e657600080fd5b8135919081019060408101602082013564010000000081111561090857600080fd5b82018360208201111561091a57600080fd5b8035906020019184600183028401116401000000008311171561093c57600080fd5b509092509050611abd565b61078f6004803603602081101561095d57600080fd5b50356001600160a01b0316611b3b565b61078f6004803603604081101561098357600080fd5b506001600160a01b038135169060200135611b4f565b61078f600480360360808110156109af57600080fd5b506001600160a01b038135811691602081013582169160408201351690606001351515611b95565b6108a8600480360360208110156109ed57600080fd5b50351515611bf0565b61078f611c12565b610829611c18565b610829611c26565b61078f60048036036020811015610a2457600080fd5b50356001600160a01b0316611c2f565b6108a8600480360360e0811015610a4a57600080fd5b506001600160a01b038135169060208101359060408101359060608101359060808101359060a081013515159060c001351515611cef565b61078f611e33565b610829611e39565b6108a86004803603610120811015610aa957600080fd5b5080359060208101359060408101359060608101359060808101359060a08101359060c08101359060e08101359061010001351515611e48565b61078f60048036036060811015610af957600080fd5b508035906001600160a01b0360208201358116916040013516611f03565b61082960048036036020811015610b2d57600080fd5b50356001600160a01b0316611fa5565b6108a860048036036040811015610b5357600080fd5b506001600160a01b0381351690602001351515611fba565b610ba960048036036080811015610b8157600080fd5b506001600160a01b038135811691602081013582169160408201351690606001351515611fed565b60408051921515835260208301919091528051918290030190f35b6108a8600480360360a0811015610bda57600080fd5b506001600160a01b03813581169160208101358216916040820135169060608101359060800135151561208b565b6107f56124c9565b610c4e60048036036080811015610c2657600080fd5b506001600160a01b0381358116916020810135821691604082013516906060013515156124d8565b604080519889526020890197909752878701959095526060870193909352608086019190915260a0850152151560c084015260e083015251908190036101000190f35b61078f60048036036020811015610ca757600080fd5b50356001600160a01b03166125ce565b61078f6125e0565b61078f6125e6565b610ce460048036036020811015610cdd57600080fd5b50356125ec565b604080519788526020880196909652868601949094526060860192909252608085015260a084015260c0830152519081900360e00190f35b61078f60048036036080811015610d3257600080fd5b506001600160a01b038135811691602081013582169160408201351690606001351515612629565b61078f60048036036020811015610d7057600080fd5b50356001600160a01b03166126cf565b61082960048036036020811015610d9657600080fd5b50356001600160a01b03166126e1565b61078f60048036036020811015610dbc57600080fd5b50356001600160a01b03166126f6565b610ba9600480360360a0811015610de257600080fd5b506001600160a01b0381351690602081013590604081013590606081013515159060800135612708565b6108a860048036036020811015610e2257600080fd5b50356001600160a01b0316612800565b61082960048036036040811015610e4857600080fd5b506001600160a01b03813581169160200135166128e3565b61078f612903565b61078f60048036036020811015610e7e57600080fd5b50356001600160a01b0316612909565b6107f561291b565b6108a860048036036020811015610eac57600080fd5b50356001600160a01b0316612931565b61078f61295f565b6108a860048036036020811015610eda57600080fd5b50356001600160a01b0316612966565b61078f60048036036040811015610f0057600080fd5b506001600160a01b038135811691602001351661299a565b6108a860048036036020811015610f2e57600080fd5b50356001600160a01b0316612c2d565b6107f5612c57565b61078f612c66565b6108a860048036036020811015610f6457600080fd5b50351515612c6c565b6108a8612c90565b61078f60048036036040811015610f8b57600080fd5b506001600160a01b0381358116916020013516612da0565b61078f60048036036020811015610fb957600080fd5b50356001600160a01b0316613071565b61078f600480360360e0811015610fdf57600080fd5b506001600160a01b0381358116916020810135821691604082013581169160608101359160808201359160a081013515159160c0909101351661311b565b6108a86004803603604081101561103357600080fd5b506001600160a01b038135169060200135613198565b61078f6131bc565b61078f6004803603602081101561106757600080fd5b50356001600160a01b03166131c1565b6108a86004803603606081101561108d57600080fd5b50803590602081013590604001356131d3565b61078f600480360360208110156110b657600080fd5b50356001600160a01b0316613219565b61078f600480360360208110156110dc57600080fd5b50356001600160a01b031661322b565b6108a86004803603602081101561110257600080fd5b50356001600160a01b031661323d565b610829613267565b61078f6004803603606081101561113057600080fd5b506001600160a01b038135811691602081013582169160409091013516613276565b61078f61355e565b61078f6004803603602081101561117057600080fd5b50356001600160a01b031661356f565b61078f613581565b61078f6004803603604081101561119e57600080fd5b506001600160a01b038135169060200135613587565b61078f600480360360608110156111ca57600080fd5b506001600160a01b0381351690602081013590604001356135a9565b610829613652565b61078f61365b565b61078f6004803603604081101561120c57600080fd5b506001600160a01b038135169060200135613661565b6108a86004803603604081101561123857600080fd5b506001600160a01b038135169060200135151561367e565b61078f6004803603602081101561126657600080fd5b50356001600160a01b03166136b1565b6108296137af565b61078f6004803603602081101561129457600080fd5b50356001600160a01b03166137b8565b61078f600480360360208110156112ba57600080fd5b50356001600160a01b03166137ca565b61078f6137dc565b6108296137e2565b61078f600480360360208110156112f057600080fd5b50356001600160a01b03166137f0565b61078f6004803603606081101561131657600080fd5b506001600160a01b038135811691602081013590911690604001351515613891565b610ba96004803603602081101561134e57600080fd5b50356001600160a01b031661392c565b61078f6004803603602081101561137457600080fd5b50356001600160a01b03166139c4565b61078f6139d6565b61078f600480360360208110156113a257600080fd5b50356001600160a01b03166139dc565b61078f600480360360a08110156113c857600080fd5b506001600160a01b03813516906020810135906040810135906060810135906080013515156139ee565b6108a86004803603606081101561140857600080fd5b506001600160a01b03813581169160208101359091169060400135613a98565b6108a86004803603602081101561143e57600080fd5b50356001600160a01b0316613ab9565b6108a86004803603602081101561146457600080fd5b5035613ae3565b6108a86004803603602081101561148157600080fd5b5035613af0565b6114ce600480360360a081101561149e57600080fd5b506001600160a01b0381358116916020810135821691604082013516906060810135151590608001351515613b0c565b6040805192835260208301919091528051918290030190f35b6108a8600480360360408110156114fd57600080fd5b506001600160a01b038135169060200135613bc3565b6108a8600480360360c081101561152957600080fd5b506001600160a01b03813581169160208101358216916040820135169060608101359060808101359060a00135613c1c565b61078f6004803603602081101561157157600080fd5b50356001600160a01b0316613c94565b61078f613ca6565b61078f600480360360c081101561159f57600080fd5b506001600160a01b038135811691602081013582169160408201351690606081013515159060808101359060a00135613cac565b610829600480360360208110156115e957600080fd5b50356001600160a01b0316613d60565b6108296004803603602081101561160f57600080fd5b50356001600160a01b0316613d75565b61078f600480360360e081101561163557600080fd5b506001600160a01b0381351690602081013590604081013590606081013515159060808101359060a08101359060c00135613d8a565b61078f613e1b565b6108a8600480360360a081101561168957600080fd5b506001600160a01b03813581169160208101358216916040820135811691606081013515159160809091013516613e21565b61078f6141f8565b61078f600480360360208110156116d957600080fd5b50356001600160a01b03166141fe565b6107f5600480360360208110156116ff57600080fd5b5035614275565b6108a86004803603602081101561171c57600080fd5b50356001600160a01b031661429c565b6108a86004803603604081101561174257600080fd5b506001600160a01b038135169060200135614371565b61078f6004803603602081101561176e57600080fd5b50356001600160a01b0316614395565b6108a86004803603602081101561179457600080fd5b503515156143a7565b61078f600480360360408110156117b357600080fd5b506001600160a01b03813581169160200135166143cd565b610829600480360360208110156117e157600080fd5b50356001600160a01b0316614423565b6107f5614438565b6107f5614447565b61078f6004803603606081101561181757600080fd5b506001600160a01b038135169060208101359060400135614456565b6108a86004803603604081101561184957600080fd5b506001600160a01b0381358116916020013516614490565b61078f614669565b61078f600480360360a081101561187f57600080fd5b506001600160a01b03813581169160208101358216916040820135169060608101351515906080013561466f565b6118ca600480360360208110156118c357600080fd5b50356146e5565b6040805160208082528351818301528351919283929083019185019080838360005b838110156119045781810151838201526020016118ec565b50505050905090810190601f1680156119315780820380516001836020036101000a031916815260200191505b509250505060405180910390f35b6001600160a01b0381166000908152605760205260408120548061196757600091505061199d565b6001600160a01b03831660009081526058602052604090205461199990829061199390620f4240614780565b906147d9565b9150505b919050565b6d04ee2d6d415b85acef810000000081565b604d5490565b6000816119c957506000611a07565b60006119d484613071565b6001600160a01b0385166000908152604f6020526040902054909150611a02600a82900a6119938685614780565b925050505b92915050565b603d5481565b61271081565b6038546001600160a01b031681565b60465481565b603b5481565b6048546301000000900460ff1681565b60556020526000908152604090205481565b605e6020526000908152604090205481565b611a7061481b565b60488054911515620100000262ff000019909216919091179055565b336000908152604a602090815260408083206001600160a01b0394909416835292905220805460ff19166001179055565b6034546001600160a01b03163314611b1c576040805162461bcd60e51b815260206004820152601e60248201527f5661756c743a20696e76616c6964206572726f72436f6e74726f6c6c65720000604482015290519081900360640190fd5b6000838152606260205260409020611b359083836161fd565b50505050565b6000611a0782611b4a846137f0565b6119ba565b600080611b5b846141fe565b90506000611b7a82611993866c0c9f2c9cd04674edea40000000614780565b603754909150611a029082906001600160a01b031687611f03565b604080516bffffffffffffffffffffffff19606096871b811660208084019190915295871b811660348301529390951b9092166048850152151560f81b605c8401528051603d818503018152605d9093019052815191012090565b611bf861481b565b603380549115156101000261ff0019909216919091179055565b60415481565b603354610100900460ff1681565b60335460ff1681565b600080603760009054906101000a90046001600160a01b03166001600160a01b03166318160ddd6040518163ffffffff1660e01b815260040160206040518083038186803b158015611c8057600080fd5b505afa158015611c94573d6000803e3d6000fd5b505050506040513d6020811015611caa57600080fd5b5051905080611cbd57600091505061199d565b6001600160a01b038316600090815260546020526040902054604754611ce7906119938385614780565b949350505050565b611cf761481b565b6001600160a01b0387166000908152604e602052604090205460ff16611d7457603954611d25906001614836565b603955604d80546001810182556000919091527f1b524e1c8b5382bb913d0a2aae8ad83bb92a45fcb47761fa4a12f5b6316c2b200180546001600160a01b0319166001600160a01b0389161790555b6047546001600160a01b038816600090815260546020526040902054611d9b908290614890565b6001600160a01b0389166000908152604e602090815260408083208054600160ff1991821617909155604f83528184208c9055605483528184208b9055605083528184208a9055605683528184208990556051835281842080548216891515179055605290925290912080549091168415151790559050611e1c8187614836565b604755611e28886141fe565b505050505050505050565b60495481565b60335462010000900460ff1681565b611e5061481b565b611e606101f48a111560036148d2565b611e706101f489111560046148d2565b611e806101f488111560056148d2565b611e906101f487111560066148d2565b611ea06101f486111560076148d2565b611eb06101f485111560086148d2565b611ecc6d04ee2d6d415b85acef810000000084111560096148d2565b603c98909855603d96909655603e94909455603f92909255604055604155603b556042556043805460ff1916911515919091179055565b60375460009081906001600160a01b03858116911614611f3b576001600160a01b0384166000908152604f6020526040902054611f3e565b60125b6037549091506000906001600160a01b03858116911614611f77576001600160a01b0384166000908152604f6020526040902054611f7a565b60125b9050611f9982600a0a61199383600a0a8961478090919063ffffffff16565b925050505b9392505050565b60516020526000908152604090205460ff1681565b611fc261481b565b6001600160a01b03919091166000908152604b60205260409020805460ff1916911515919091179055565b6000806000611ffe87878787611b95565b905061200861627b565b506000818152605d6020908152604091829020825160e081018452815480825260018301549382019390935260028201549381018490526003820154606082015260048201546080820152600582015460a082015260069091015460c08201819052909261207c9289929091908990612708565b93509350505094509492505050565b600260015414156120d1576040805162461bcd60e51b815260206004820152601f60248201526000805160206162ce833981519152604482015290519081900360640190fd5b60026001556033546120ed9062010000900460ff16601c6148d2565b6120f561497e565b6120fe8561499a565b6121098484836149fa565b60335460408051634eae147d60e11b81526001600160a01b038881166004830152878116602483015286811660448301526064820186905284151560848301529151630100000090930490911691639d5c28fa9160a480820192600092909190829003018186803b15801561217d57600080fd5b505afa158015612191573d6000803e3d6000fd5b5050505061219f8484614490565b60006121ad86868685611b95565b6000818152605d60205260408120919250836121d1576121cc86613071565b6121da565b6121da866141fe565b82549091506121eb57600282018190555b8154158015906121fb5750600085115b156122215761221b868360000154846002015487858a8860060154613d8a565b60028301555b600061223a898989888a88600001548960030154614b10565b9050600061224789614bde565b905060006122558a836119ba565b60018601549091506122679082614836565b6001860181905561227c90841115601d6148d2565b600185015461228b9084614890565b600186015561229b8a8a89613891565b600386015584546122ac9089614836565b8086554260068701556122c2901515601e6148d2565b6122d485600001548660010154614c8b565b6122e28b8b8b8a6001613b0c565b505060006122f08b8a613661565b60048701549091506123029082614836565b60048701556123118b82614caf565b87156123565761232a8b6123258b87614836565b614d4f565b6123348b83614dce565b61233e8b84614e4d565b6123518b61234c8d87613587565b614f65565b6123c2565b6001600160a01b038a166000908152605f6020526040902054612393576001600160a01b038a1660009081526060602052604090208590556123b8565b61239e8a868b6135a9565b6001600160a01b038b166000908152606060205260409020555b6123c28a8a61503b565b604080518881526001600160a01b03808f166020830152808e16828401528c1660608201526080810184905260a081018b905289151560c082015260e08101879052610100810186905290517f2fe68525253654c21998f35787a8d0f361905ef647c854092430ab65f2f15022918190036101200190a1855460018701546002880154600389015460048a015460058b0154604080518e81526020810197909752868101959095526060860193909352608085019190915260a084015260c083015260e08201879052517f20853733b590dce729d9f4628682ebd9a34d2354e72679e66f43a008fc03b773918190036101000190a150506001805550505050505050505050565b6034546001600160a01b031681565b60008060008060008060008060006124f28d8d8d8d611b95565b90506124fc61627b565b605d60008381526020019081526020016000206040518060e001604052908160008201548152602001600182015481526020016002820154815260200160038201548152602001600482015481526020016005820154815260200160068201548152505090506000808260a001511361257c578160a00151600003612582565b8160a001515b9050816000015182602001518360400151846060015185608001518560008860a0015112158860c001519a509a509a509a509a509a509a509a5050505094995094995094999196509450565b60596020526000908152604090205481565b6101f481565b603e5481565b605d602052600090815260409020805460018201546002830154600384015460048501546005860154600690960154949593949293919290919087565b60008061263886868686611b95565b905061264261627b565b506000818152605d6020908152604091829020825160e0810184528154815260018201549281018390526002820154938101939093526003810154606084015260048101546080840152600581015460a08401526006015460c08301526126ac90151560256148d2565b602081015181516126c4919061199390612710614780565b979650505050505050565b60536020526000908152604090205481565b604b6020526000908152604090205460ff1681565b60576020526000908152604090205481565b6000806127196000861160266148d2565b60008461272e57612729886141fe565b612737565b61273788613071565b905060008187116127515761274c8288614890565b61275b565b61275b8783614890565b9050600061276d886119938b85614780565b9050600087156127805750878311612785565b508288115b600061279c6042548961483690919063ffffffff16565b42116127c0576001600160a01b038c166000908152605060205260409020546127c3565b60005b90508180156127e657506127d78b82614780565b6127e384612710614780565b11155b156127f057600092505b509a909950975050505050505050565b60026001541415612846576040805162461bcd60e51b815260206004820152601f60248201526000805160206162ce833981519152604482015290519081900360640190fd5b60026001556001600160a01b0381166000908152604e60205260409020546128729060ff16600e6148d2565b600061287d82614bde565b905061288d60008211600f6148d2565b6128978282614e4d565b604080516001600160a01b03841681526020810183905281517fa5a389190ebf6170a133bda5c769b77f4d6715b8aa172ec0ddf8473d0b4944bd929181900390910190a1505060018055565b604a60209081526000928352604080842090915290825290205460ff1681565b60395481565b60606020526000908152604090205481565b603354630100000090046001600160a01b031681565b336000908152604a602090815260408083206001600160a01b0394909416835292905220805460ff19169055565b620f424081565b61296e61481b565b603380546001600160a01b039092166301000000026301000000600160b81b0319909216919091179055565b6000600260015414156129e2576040805162461bcd60e51b815260206004820152601f60248201526000805160206162ce833981519152604482015290519081900360640190fd5b60026001556129ef6150f6565b6001600160a01b0383166000908152604e6020526040902054612a169060ff1660136148d2565b6048805461ff001916610100179055603754600090612a3d906001600160a01b0316614bde565b9050612a4d6000821160146148d2565b612a578485614490565b6000612a638583611b4f565b9050612a736000821160156148d2565b612a7d8583615125565b612a878582614f65565b60375460408051632770a7eb60e21b81523060048201526024810185905290516001600160a01b0390921691639dc29fac9160448082019260009290919082900301818387803b158015612ada57600080fd5b505af1158015612aee573d6000803e3d6000fd5b5050603754612b0892506001600160a01b03169050615207565b6033546040805163eb0835bf60e01b81526001600160a01b038881166004830152602482018690529151600093630100000090049092169163eb0835bf91604480820192602092909190829003018186803b158015612b6657600080fd5b505afa158015612b7a573d6000803e3d6000fd5b505050506040513d6020811015612b9057600080fd5b505190506000612ba18784846152a2565b9050612bb16000821160166148d2565b612bbc87828861536a565b604080516001600160a01b03808916825289166020820152808201869052606081018390526080810184905290517fd732b7828fa6cee72c285eac756fc66a7477e3dc22e22e7c432f1c265d40b4839181900360a00190a16048805461ff0019169055600180559695505050505050565b612c3561481b565b603680546001600160a01b0319166001600160a01b0392909216919091179055565b6036546001600160a01b031681565b603c5481565b612c7461481b565b60338054911515620100000262ff000019909216919091179055565b600054610100900460ff1680612ca95750612ca9615411565b80612cb7575060005460ff16155b612cf25760405162461bcd60e51b815260040180806020018281038252602e8152602001806162ee602e913960400191505060405180910390fd5b600054610100900460ff16158015612d1d576000805460ff1961ff0019909116610100171660011790555b612d25615417565b603880546001600160a01b031916331790556207a120603a556032603c556014603d55601e603e819055603f556004604055600a6041556170806044556048805460ff191660011790556033805462ff00001961ff00199091166101001716620100001790558015612d9d576000805461ff00191690555b50565b600060026001541415612de8576040805162461bcd60e51b815260206004820152601f60248201526000805160206162ce833981519152604482015290519081900360640190fd5b6002600155612df56150f6565b6001600160a01b0383166000908152604e6020526040902054612e1c9060ff1660106148d2565b6048805461ff0019166101001790556000612e3684614bde565b9050612e466000821160116148d2565b612e508485614490565b6000612e5b85613071565b90506000612e7a6c0c9f2c9cd04674edea400000006119938585614780565b603754909150612e9690829088906001600160a01b0316611f03565b9050612ea66000821160126148d2565b6033546040805163256f6ee360e11b81526001600160a01b0389811660048301526024820185905291516000936301000000900490921691634adeddc691604480820192602092909190829003018186803b158015612f0457600080fd5b505afa158015612f18573d6000803e3d6000fd5b505050506040513d6020811015612f2e57600080fd5b505190506000612f3f8886846152a2565b90506000612f5e6c0c9f2c9cd04674edea400000006119938488614780565b603754909150612f7a9082908b906001600160a01b0316611f03565b9050612f8689826154c0565b612f908983614e4d565b603754604080516340c10f1960e01b81526001600160a01b038b8116600483015260248201859052915191909216916340c10f1991604480830192600092919082900301818387803b158015612fe557600080fd5b505af1158015612ff9573d6000803e3d6000fd5b5050604080516001600160a01b03808d1682528d1660208201528082018a9052606081018590526080810187905290517fab4c77c74cd32c85f35416cf03e7ce9e2d4387f7b7f2c1f4bf53daaecf8ea72d93509081900360a0019150a16048805461ff00191690556001805598975050505050505050565b603654604854604080516317e1d38560e11b81526001600160a01b03858116600483015260006024830181905260ff8086161515604485015261010090950490941615156064830152915192939190911691632fc3a70a91608480820192602092909190829003018186803b1580156130e957600080fd5b505afa1580156130fd573d6000803e3d6000fd5b505050506040513d602081101561311357600080fd5b505192915050565b600060026001541415613163576040805162461bcd60e51b815260206004820152601f60248201526000805160206162ce833981519152604482015290519081900360640190fd5b600260015561317061497e565b6131798861499a565b6131888888888888888861557e565b6001805598975050505050505050565b6131a061481b565b6001600160a01b03909116600090815260596020526040902055565b601281565b60506020526000908152604090205481565b6131db61481b565b6131eb610e10841015600a6148d2565b6131fb612710831115600b6148d2565b61320b612710821115600c6148d2565b604492909255604555604655565b605f6020526000908152604090205481565b604f6020526000908152604090205481565b61324561481b565b603480546001600160a01b0319166001600160a01b0392909216919091179055565b60485462010000900460ff1681565b6000600260015414156132be576040805162461bcd60e51b815260206004820152601f60248201526000805160206162ce833981519152604482015290519081900360640190fd5b60026001556033546132d990610100900460ff1660176148d2565b6001600160a01b0384166000908152604e60205260409020546133009060ff1660186148d2565b6001600160a01b0383166000908152604e60205260409020546133279060ff1660196148d2565b613347836001600160a01b0316856001600160a01b03161415601a6148d2565b6048805461ff0019166101001790556133608480614490565b61336a8384614490565b600061337585614bde565b905061338560008211601b6148d2565b600061339086613071565b9050600061339d866141fe565b905060006133af826119938686614780565b90506133bc818989611f03565b905060006133db6c0c9f2c9cd04674edea400000006119938787614780565b6037549091506133f79082908b906001600160a01b0316611f03565b60335460408051636d099c0b60e11b81526001600160a01b038d811660048301528c8116602483015260448201859052915193945060009363010000009093049091169163da13381691606480820192602092909190829003018186803b15801561346157600080fd5b505afa158015613475573d6000803e3d6000fd5b505050506040513d602081101561348b57600080fd5b50519050600061349c8a85846152a2565b90506134a88b846154c0565b6134b28a84615125565b6134bc8b88614e4d565b6134c68a85614f65565b6134cf8a615a41565b6134da8a828b61536a565b604080516001600160a01b03808c168252808e1660208301528c1681830152606081018990526080810186905260a0810183905260c0810184905290517f0874b2d545cb271cdbda4e093020c452328b24af12382ed62c4d00f5c26709db9181900360e00190a16048805461ff0019169055600180559a9950505050505050505050565b6c0c9f2c9cd04674edea4000000081565b60616020526000908152604090205481565b60445481565b60008161359657506000611a07565b611f9e83836135a4866141fe565b614456565b6001600160a01b0383166000908152605f60209081526040808320546060909252822054828582116135e4576135df8683614890565b6135ee565b6135ee8287614890565b90506000613600836119938685614780565b905086831160006136118689614836565b9050600082613629576136248285614836565b613633565b6136338285614890565b9050613643816119938c85614780565b9b9a5050505050505050505050565b60435460ff1681565b603f5481565b60008161367057506000611a07565b611f9e83836135a486613071565b61368661481b565b6001600160a01b03919091166000908152604c60205260409020805460ff1916911515919091179055565b6044546001600160a01b0382166000908152605c6020526040812054909142916136da91614836565b11156136e85750600061199d565b6044546001600160a01b0383166000908152605c6020526040812054909161371591611993904290614890565b6001600160a01b038416600090815260576020526040902054909150806137415760009250505061199d565b6001600160a01b03841660009081526051602052604081205460ff166137695760455461376d565b6046545b6001600160a01b0386166000908152605860205260409020549091506137a69083906119939086906137a0908690614780565b90614780565b95945050505050565b60485460ff1681565b60546020526000908152604090205481565b60566020526000908152604090205481565b603a5481565b604854610100900460ff1681565b6001600160a01b03811660009081526051602052604081205460ff161561383057506001600160a01b03811660009081526057602052604090205461199d565b6001600160a01b0382166000908152605a6020526040812054613854908490613587565b6001600160a01b0384166000908152605860209081526040808320546057909252909120549192506119999161388b908490614836565b90614890565b6033546040805163b1cc53ab60e01b81526001600160a01b038681166004830152858116602483015284151560448301529151600093630100000090049092169163b1cc53ab91606480820192602092909190829003018186803b1580156138f857600080fd5b505afa15801561390c573d6000803e3d6000fd5b505050506040513d602081101561392257600080fd5b5051949350505050565b6001600160a01b0381166000908152605f60205260408120548190806139595760008092509250506139bf565b6000613964856141fe565b6001600160a01b038616600090815260606020526040812054919250828211613996576139918383614890565b6139a0565b6139a08284614890565b905060006139b2836119938785614780565b9390921195509193505050505b915091565b60586020526000908152604090205481565b60455481565b605b6020526000908152604090205481565b6033546040805163c7e074c360e01b81526001600160a01b03888116600483015260248201889052604482018790526064820186905284151560848301529151600093630100000090049092169163c7e074c39160a480820192602092909190829003018186803b158015613a6257600080fd5b505afa158015613a76573d6000803e3d6000fd5b505050506040513d6020811015613a8c57600080fd5b50519695505050505050565b613aa061481b565b613ab46001600160a01b0383168483615ab9565b505050565b613ac161481b565b603880546001600160a01b0319166001600160a01b0392909216919091179055565b613aeb61481b565b604955565b613af861481b565b613b07612710821160026148d2565b603a55565b6033546040805163d54d5a9f60e01b81526001600160a01b03888116600483015287811660248301528681166044830152851515606483015284151560848301528251600094859463010000009091049092169263d54d5a9f9260a4808301939192829003018186803b158015613b8257600080fd5b505afa158015613b96573d6000803e3d6000fd5b505050506040513d6040811015613bac57600080fd5b508051602090910151909890975095505050505050565b613bcb61481b565b6001600160a01b03821660009081526055602052604090205480821115613c0557613bff83613bfa8484614890565b6154c0565b50613c18565b613ab483613c138385614890565b615125565b5050565b613c2461481b565b603354613c369060ff161560016148d2565b60338054600160ff19909116179055603580546001600160a01b03199081166001600160a01b039889161790915560378054821696881696909617909555603680549095169390951692909217909255603b91909155604555604655565b605c6020526000908152604090205481565b60425481565b6033546040805163369d949360e21b81526001600160a01b0389811660048301528881166024830152878116604483015286151560648301526084820186905260a482018590529151600093630100000090049092169163da76524c9160c480820192602092909190829003018186803b158015613d2957600080fd5b505afa158015613d3d573d6000803e3d6000fd5b505050506040513d6020811015613d5357600080fd5b5051979650505050505050565b604e6020526000908152604090205460ff1681565b60526020526000908152604090205460ff1681565b6000806000613d9c8a8a8a8a88612708565b90925090506000613dad8a87614836565b905060008815613ddc5783613dcb57613dc68284614890565b613dd5565b613dd58284614836565b9050613dfd565b83613df057613deb8284614836565b613dfa565b613dfa8284614890565b90505b613e0b816119938a85614780565b9c9b505050505050505050505050565b60475481565b60026001541415613e67576040805162461bcd60e51b815260206004820152601f60248201526000805160206162ce833981519152604482015290519081900360640190fd5b60026001556048546301000000900460ff1615613e9c57336000908152604b6020526040902054613e9c9060ff1660226148d2565b6048805460ff19169055613eb08484614490565b6000613ebe86868686611b95565b9050613ec861627b565b506000818152605d6020908152604091829020825160e08101845281548082526001830154938201939093526002820154938101939093526003810154606084015260048101546080840152600581015460a08401526006015460c0830152613f3490151560236148d2565b600080613f45898989896000613b0c565b91509150613f58826000141560246148d2565b8160021415613f8d57613f75898989600087600001518b8f61557e565b50506048805460ff19166001179055506141ed915050565b6000613f998983613587565b6001600160a01b038a166000908152605e6020526040902054909150613fbf9082614836565b6001600160a01b038a166000818152605e602090815260409182902093909355805191825291810184905280820183905290517f5d0c0019d3d45fadeb74eff9d2c9924d146d000ac6bcf3c28bf0ac3c9baa011a9181900360600190a161402a898560800151615b0b565b8615614059576020840151845161404b918b9161404691614890565b614dce565b6140598961234c8b85613587565b60008761406e57614069896141fe565b614077565b61407789613071565b90507f2e1f85a64a2f22cf2f0c42584e7c919ed4abe8d53675cff0f62bf1e95a1c676f868c8c8c8c8a600001518b602001518c608001518d60a001518a604051808b81526020018a6001600160a01b03168152602001896001600160a01b03168152602001886001600160a01b0316815260200187151581526020018681526020018581526020018481526020018381526020018281526020019a505050505050505050505060405180910390a1871580156141365750846020015183105b1561416457602085015160009061414d9085614890565b90506141628b61415d8d84613587565b614e4d565b505b8761417757614177898660000151615bc2565b6000868152605d60205260408120818155600181018290556002810182905560038101829055600481018290556005810182905560060155603b546141c3908b9061234c908290613587565b6141d98a6141d38c603b54613587565b8961536a565b50506048805460ff19166001179055505050505b505060018055505050565b60405481565b603654604854604080516317e1d38560e11b81526001600160a01b0385811660048301526001602483015260ff808516151560448401526101009094049093161515606482015290516000939290921691632fc3a70a91608480820192602092909190829003018186803b1580156130e957600080fd5b604d818154811061428257fe5b6000918252602090912001546001600160a01b0316905081565b6142a461481b565b6001600160a01b0381166000908152604e60205260409020546142cb9060ff16600d6148d2565b6001600160a01b0381166000908152605460205260409020546047546142f091614890565b6047556001600160a01b0381166000908152604e60209081526040808320805460ff19908116909155604f83528184208490556054835281842084905560508352818420849055605683528184208490556051835281842080548216905560529092529091208054909116905560395461436b906001614890565b60395550565b61437961481b565b6001600160a01b03909116600090815260616020526040902055565b605a6020526000908152604090205481565b6143af61481b565b6048805491151563010000000263ff00000019909216919091179055565b60006143d761481b565b6001600160a01b0383166000908152605e6020526040902054806143ff576000915050611a07565b6001600160a01b0384166000908152605e6020526040812055611f9e84828561536a565b604c6020526000908152604090205460ff1681565b6037546001600160a01b031681565b6035546001600160a01b031681565b60008261446557506000611f9e565b6001600160a01b0384166000908152604f60205260409020546137a68361199386600a85900a614780565b6033546040805163fbfded6d60e01b81526001600160a01b03858116600483015284811660248301529151600093630100000090049092169163fbfded6d9160448082019260209290919082900301818787803b1580156144f057600080fd5b505af1158015614504573d6000803e3d6000fd5b505050506040513d602081101561451a57600080fd5b50519050806145295750613c18565b6001600160a01b0383166000908152605c602052604090205461457657604454614557906137a042826147d9565b6001600160a01b0384166000908152605c602052604090205550613c18565b6044546001600160a01b0384166000908152605c6020526040902054429161459e9190614836565b11156145aa5750613c18565b60006145b5846136b1565b6001600160a01b0385166000908152605b60205260409020549091506145db9082614836565b6001600160a01b0385166000908152605b6020526040902055604454614605906137a042826147d9565b6001600160a01b0385166000818152605c6020908152604080832094909455605b8152908390205483519283529082015281517fa146fc154e1913322e9817d49f0d5c37466c24326e15de10e739a948be815eab929181900390910190a150505050565b610e1081565b6033546040805163fdaf6ac360e01b81526001600160a01b038881166004830152878116602483015286811660448301528515156064830152608482018590529151600093630100000090049092169163fdaf6ac39160a480820192602092909190829003018186803b158015613a6257600080fd5b60626020908152600091825260409182902080548351601f6002600019610100600186161502019093169290920491820184900484028101840190945280845290918301828280156147785780601f1061474d57610100808354040283529160200191614778565b820191906000526020600020905b81548152906001019060200180831161475b57829003601f168201915b505050505081565b60008261478f57506000611a07565b8282028284828161479c57fe5b0414611f9e5760405162461bcd60e51b815260040180806020018281038252602181526020018061631c6021913960400191505060405180910390fd5b6000611f9e83836040518060400160405280601a81526020017f536166654d6174683a206469766973696f6e206279207a65726f000000000000815250615c2a565b603854614834906001600160a01b0316331460356148d2565b565b600082820183811015611f9e576040805162461bcd60e51b815260206004820152601b60248201527f536166654d6174683a206164646974696f6e206f766572666c6f770000000000604482015290519081900360640190fd5b6000611f9e83836040518060400160405280601e81526020017f536166654d6174683a207375627472616374696f6e206f766572666c6f770000815250615ccc565b600081815260626020526040902082613ab45760405162461bcd60e51b815260206004820190815282546002600019610100600184161502019091160460248301819052909182916044909101908490801561496f5780601f106149445761010080835404028352916020019161496f565b820191906000526020600020905b81548152906001019060200180831161495257829003601f168201915b50509250505060405180910390fd5b60495461498a57614834565b6148346049543a111560376148d2565b336001600160a01b03821614156149b057612d9d565b6035546001600160a01b03163314156149c857612d9d565b6001600160a01b0381166000908152604a60209081526040808320338452909152902054612d9d9060ff1660296148d2565b8015614a7357614a1f826001600160a01b0316846001600160a01b031614602a6148d2565b6001600160a01b0383166000908152604e6020526040902054614a469060ff16602b6148d2565b6001600160a01b038316600090815260516020526040902054614a6e9060ff1615602c6148d2565b613ab4565b6001600160a01b0383166000908152604e6020526040902054614a9a9060ff16602d6148d2565b6001600160a01b038316600090815260516020526040902054614ac19060ff16602e6148d2565b6001600160a01b038216600090815260516020526040902054614ae99060ff1615602f6148d2565b6001600160a01b038216600090815260526020526040902054613ab49060ff1660306148d2565b600080614b20898989898961466f565b90506000614b328a8a8a8a8989613cac565b9050614b3e8282614836565b91506000614b4c8a84613587565b6001600160a01b038b166000908152605e6020526040902054909150614b729082614836565b6001600160a01b038b166000818152605e602090815260409182902093909355805191825291810185905280820183905290517f5d0c0019d3d45fadeb74eff9d2c9924d146d000ac6bcf3c28bf0ac3c9baa011a9181900360600190a150909998505050505050505050565b6001600160a01b03811660008181526053602090815260408083205481516370a0823160e01b8152306004820152915193949093859391926370a08231926024808301939192829003018186803b158015614c3857600080fd5b505afa158015614c4c573d6000803e3d6000fd5b505050506040513d6020811015614c6257600080fd5b50516001600160a01b03851660009081526053602052604090208190559050611ce78183614890565b81614ca157614c9c811560276148d2565b613c18565b613c188183101560286148d2565b6001600160a01b038216600090815260586020526040902054614cd29082614836565b6001600160a01b038316600090815260586020818152604080842085905560578252909220549152614d0791111560346148d2565b604080516001600160a01b03841681526020810183905281517faa5649d82f5462be9d19b0f2b31a59b2259950a6076550bac9f3a1c07db9f66d929181900390910190a15050565b6001600160a01b0382166000908152605a6020526040902054614d729082614836565b6001600160a01b0383166000818152605a602090815260409182902093909355805191825291810183905281517fd9d4761f75e0d0103b5cbeab941eeb443d7a56a35b5baf2a0787c03f03f4e474929181900390910190a15050565b6001600160a01b0382166000908152605a6020526040902054614df19082614890565b6001600160a01b0383166000818152605a602090815260409182902093909355805191825291810183905281517f34e07158b9db50df5613e591c44ea2ebc82834eff4a4dc3a46e000e608261d68929181900390910190a15050565b6001600160a01b038216600090815260576020526040902054614e709082614836565b6001600160a01b03831660008181526057602090815260408083209490945583516370a0823160e01b8152306004820152935191936370a082319260248083019392829003018186803b158015614ec657600080fd5b505afa158015614eda573d6000803e3d6000fd5b505050506040513d6020811015614ef057600080fd5b50516001600160a01b038416600090815260576020526040902054909150614f1c9082101560316148d2565b604080516001600160a01b03851681526020810184905281517f976177fbe09a15e5e43f848844963a42b41ef919ef17ff21a17a5421de8f4737929181900390910190a1505050565b604080518082018252601a81527f5661756c743a20706f6f6c416d6f756e742065786365656465640000000000006020808301919091526001600160a01b038516600090815260579091529190912054614fc0918390615ccc565b6001600160a01b03831660009081526057602090815260408083208490556058909152902054614ff391101560326148d2565b604080516001600160a01b03841681526020810183905281517f112726233fbeaeed0f5b1dba5cb0b2b81883dee49fb35ff99fd98ed9f6d31eb0929181900390910190a15050565b6001600160a01b0382166000908152605f602052604090205461505e9082614836565b6001600160a01b0383166000908152605f60209081526040808320939093556061905220548015613ab4576001600160a01b0383166000908152605f6020526040902054811015613ab4576040805162461bcd60e51b815260206004820152601a60248201527f5661756c743a206d61782073686f727473206578636565646564000000000000604482015290519081900360640190fd5b60485462010000900460ff161561483457336000908152604c60205260409020546148349060ff1660366148d2565b6001600160a01b0382166000908152605560205260409020548181116151a0576001600160a01b0383166000818152605560209081526040808320929092558151928352820183905280517fe1e812596aac93a06ecc4ca627014d18e30f5c33b825160cc9d5c0ba61e452279281900390910190a150613c18565b6151aa8183614890565b6001600160a01b03841660008181526055602090815260409182902093909355805191825291810184905281517fe1e812596aac93a06ecc4ca627014d18e30f5c33b825160cc9d5c0ba61e45227929181900390910190a1505050565b6000816001600160a01b03166370a08231306040518263ffffffff1660e01b815260040180826001600160a01b0316815260200191505060206040518083038186803b15801561525657600080fd5b505afa15801561526a573d6000803e3d6000fd5b505050506040513d602081101561528057600080fd5b50516001600160a01b0390921660009081526053602052604090209190915550565b6000806152bf6127106119936152b88287614890565b8790614780565b905060006152cd8583614890565b6001600160a01b0387166000908152605e60205260409020549091506152f39082614836565b6001600160a01b0387166000908152605e60205260409020557f47cd9dda0e50ce30bcaaacd0488452b596221c07ac402a581cfae4d3933cac2b8661533881846119ba565b604080516001600160a01b0390931683526020830191909152818101849052519081900360600190a150949350505050565b61537e6001600160a01b0384168284615ab9565b604080516370a0823160e01b815230600482015290516001600160a01b038516916370a08231916024808301926020929190829003018186803b1580156153c457600080fd5b505afa1580156153d8573d6000803e3d6000fd5b505050506040513d60208110156153ee57600080fd5b50516001600160a01b039093166000908152605360205260409020929092555050565b303b1590565b600054610100900460ff16806154305750615430615411565b8061543e575060005460ff16155b6154795760405162461bcd60e51b815260040180806020018281038252602e8152602001806162ee602e913960400191505060405180910390fd5b600054610100900460ff161580156154a4576000805460ff1961ff0019909116610100171660011790555b6154ac615d26565b8015612d9d576000805461ff001916905550565b6001600160a01b0382166000908152605560205260409020546154e39082614836565b6001600160a01b0383166000908152605560209081526040808320939093556056905220548015615535576001600160a01b0383166000908152605560205260409020546155359082101560336148d2565b604080516001600160a01b03851681526020810184905281517f64243679a443432e2293343b77d411ff6144370404618f00ca0d2025d9ca9882929181900390910190a1505050565b603354604080516381d11a2360e01b81526001600160a01b038a8116600483015289811660248301528881166044830152606482018890526084820187905285151560a483015284811660c4830152915160009363010000009004909216916381d11a239160e4808201928692909190829003018186803b15801561560257600080fd5b505afa158015615616573d6000803e3d6000fd5b505050506156248787614490565b600061563289898987611b95565b6000818152605d60205260409020805491925090615653901515601f6148d2565b615665868260000154101560206148d2565b615677878260010154101560216148d2565b60018101548154600483015460009161569491611993908b614780565b60048401549091506156a69082614890565b60048401556156b58b82615b0b565b506000806156c78d8d8d8d8d8d615dcb565b85549193509150891461586b576156df8c8c8a613891565b600385015583546156f0908a614890565b80855560018501546157029190614c8b565b6157108d8d8d8b6001613b0c565b5050871561573d576157338c61232586600101548661489090919063ffffffff16565b61573d8c8a614dce565b6000886157525761574d8c6141fe565b61575b565b61575b8c613071565b90507f93d75d64d1f84fc6f430a64fc578bdd4c1e090e90ea2d51773e626d19de56d30868f8f8f8f8f8f886157908c8c614890565b60408051998a526001600160a01b0398891660208b015296881689880152949096166060880152608087019290925260a0860152151560c085015260e084019290925261010083019190915251908190036101200190a18454600186015460028701546003880154600489015460058a0154604080518d81526020810197909752868101959095526060860193909352608085019190915260a084015260c083015260e08201839052517f20853733b590dce729d9f4628682ebd9a34d2354e72679e66f43a008fc03b773918190036101000190a1506159df565b87156158855761587b8c84614d4f565b6158858c8a614dce565b60008861589a576158958c6141fe565b6158a3565b6158a38c613071565b90507f93d75d64d1f84fc6f430a64fc578bdd4c1e090e90ea2d51773e626d19de56d30868f8f8f8f8f8f886158d88c8c614890565b60408051998a526001600160a01b0398891660208b015296881689880152949096166060880152608087019290925260a0860152151560c085015260e084019290925261010083019190915251908190036101200190a18454600186015460028701546003880154600489015460058a0154604080518d81526020810197909752868101959095526060860193909352608085019190915260a084015260c0830152517f73af1d417d82c240fdb6d319b34ad884487c6bf2845d98980cc52ad9171cb4559181900360e00190a1506000858152605d602052604081208181556001810182905560028101829055600381018290556004810182905560058101829055600601555b876159ee576159ee8b8a615bc2565b8115615a2e578715615a0857615a088c61234c8e85613587565b6000615a148d83613587565b9050615a218d828a61536a565b95506126c4945050505050565b5060009c9b505050505050505050505050565b6001600160a01b0381166000908152605960209081526040808320546057909252909120541015612d9d576040805162461bcd60e51b815260206004820152601a60248201527f5661756c743a20706f6f6c416d6f756e74203c20627566666572000000000000604482015290519081900360640190fd5b604080516001600160a01b038416602482015260448082018490528251808303909101815260649091019091526020810180516001600160e01b031663a9059cbb60e01b179052613ab4908490615fc5565b604080518082018252601b81527f5661756c743a20696e73756666696369656e74207265736572766500000000006020808301919091526001600160a01b038516600090815260589091529190912054615b66918390615ccc565b6001600160a01b03831660008181526058602090815260409182902093909355805191825291810183905281517f533cb5ed32be6a90284e96b5747a1bfc2d38fdb5768a6b5f67ff7d62144ed67b929181900390910190a15050565b6001600160a01b0382166000908152605f602052604090205480821115615c0257506001600160a01b0382166000908152605f6020526040812055613c18565b615c0c8183614890565b6001600160a01b0384166000908152605f6020526040902055505050565b60008183615cb65760405162461bcd60e51b81526004018080602001828103825283818151815260200191508051906020019080838360005b83811015615c7b578181015183820152602001615c63565b50505050905090810190601f168015615ca85780820380516001836020036101000a031916815260200191505b509250505060405180910390fd5b506000838581615cc257fe5b0495945050505050565b60008184841115615d1e5760405162461bcd60e51b8152602060048201818152835160248401528351909283926044909101919085019080838360008315615c7b578181015183820152602001615c63565b505050900390565b600054610100900460ff1680615d3f5750615d3f615411565b80615d4d575060005460ff16155b615d885760405162461bcd60e51b815260040180806020018281038252602e8152602001806162ee602e913960400191505060405180910390fd5b600054610100900460ff16158015615db3576000805460ff1961ff0019909116610100171660011790555b600180558015612d9d576000805461ff001916905550565b6000806000615ddc89898987611b95565b6000818152605d60205260408120805460038201549394509092615e09918d918d918d918b918d91614b10565b9050600080600080615e2a8d876000015488600201548d8a60060154612708565b87549195508593509150615e42906119938d84614780565b925050506000828015615e555750600082115b15615e855750600584018054820190558088615e85576000615e778e84613587565b9050615e838e82614f65565b505b82158015615e935750600082115b15615ed7576001850154615ea79083614890565b600186015588615ecb576000615ebd8e84613587565b9050615ec98e82614e4d565b505b60058501805483900390555b8a15615eff57615ee7818c614836565b6001860154909150615ef9908c614890565b60018601555b84548a1415615f22576001850154615f18908290614836565b6000600187015590505b8084811115615f3c57615f358286614890565b9050615f70565b6001860154615f4b9086614890565b60018701558915615f70576000615f628f87613587565b9050615f6e8f82614f65565b505b60408051888152851515602082015280820185905290517f3ff41bdde87755b687ae83d0221a232b6be51a803330ed9661c1b5d0105e0d8a9181900360600190a1909e909d509b505050505050505050505050565b606061601a826040518060400160405280602081526020017f5361666545524332303a206c6f772d6c6576656c2063616c6c206661696c6564815250856001600160a01b03166160769092919063ffffffff16565b805190915015613ab45780806020019051602081101561603957600080fd5b5051613ab45760405162461bcd60e51b815260040180806020018281038252602a81526020018061633d602a913960400191505060405180910390fd5b6060611ce784846000858561608a85616191565b6160db576040805162461bcd60e51b815260206004820152601d60248201527f416464726573733a2063616c6c20746f206e6f6e2d636f6e7472616374000000604482015290519081900360640190fd5b60006060866001600160a01b031685876040518082805190602001908083835b6020831061611a5780518252601f1990920191602091820191016160fb565b6001836020036101000a03801982511681845116808217855250505050505090500191505060006040518083038185875af1925050503d806000811461617c576040519150601f19603f3d011682016040523d82523d6000602084013e616181565b606091505b50915091506126c4828286616197565b3b151590565b606083156161a6575081611f9e565b8251156161b65782518084602001fd5b60405162461bcd60e51b8152602060048201818152845160248401528451859391928392604401919085019080838360008315615c7b578181015183820152602001615c63565b828054600181600116156101000203166002900490600052602060002090601f016020900481019282601f1061623e5782800160ff1982351617855561626b565b8280016001018555821561626b579182015b8281111561626b578235825591602001919060010190616250565b506162779291506162b8565b5090565b6040518060e00160405280600081526020016000815260200160008152602001600081526020016000815260200160008152602001600081525090565b5b8082111561627757600081556001016162b956fe5265656e7472616e637947756172643a207265656e7472616e742063616c6c00496e697469616c697a61626c653a20636f6e747261637420697320616c726561647920696e697469616c697a6564536166654d6174683a206d756c7469706c69636174696f6e206f766572666c6f775361666545524332303a204552433230206f7065726174696f6e20646964206e6f742073756363656564a26469706673582212208d282b00f57ac01587fed1d6b5c549135fbeb620c5432623e88fd49de0b752af64736f6c634300060c0033",
  "linkReferences": {},
  "deployedLinkReferences": {}
}